:100000000C9446010C9477010C9477010C947701C1
:100010000C9477010C9477010C9477010C94770180
:100020000C9477010C9477010C9477010C94770170
:100030000C9477010C9477010C9477010C94770160
:100040000C9477010C9477010C9477010C94770150
:100050000C9477010C9477010C9477010C94A424F0
:100060000C9477010C94E7280C94BB290C9477012D
:100070000C9477010C9477010C9477010C94770120
:100080000C9477010C9477010C9477010C94770110
:100090000C9414290C94062A0C9477010C944A238E
:1000A0000C9477010C9477010C9477010C947701F0
:1000B0000C9477010C9477010C9477010C947701E0
:1000C0000C9477010C9477010C9477010C944129DE
:1000D0000C94512A0C9477010C946E290C949C2A50
:1000E0000C94770107634236B79BD8A71A39685634
:1000F00018AEBAAB558C1D3CB7CC5763BD6DEDFD4A
:10010000753EF6177231BF000000803F0800000006
:10011000BE922449123EABAAAA2ABECDCCCC4C3EFC
:1001200000000080BEABAAAAAA3E00000000BF00EB
:100130000000803F0000000000084178D3BB4387E7
:10014000D1133D190E3CC3BD4282AD2B3E68EC82FB
:1001500076BED98FE1A93E4C80EFFFBE01C4FF7F80
:100160003F000000000000002100240027002A00BA
:100170002D003000330001010000040107010A01D5
:1001800000002200250028002B002E003100340042
:1001900002010000050108010B01000020002300FE
:1001A000260029002C002F0032000001000003016E
:1001B00006010901050505050705080808080202EA
:1001C00002020A0A080804040404010101010101F1
:1001D00001010303030303030303040707070C0CD4
:1001E0000C0C0C0C0C0C020202020606060606069B
:1001F00006060B0B0B0B0B0B0B0B01021020200840
:100200000810204010204080020102010804020171
:1002100001020408102040808040201008040201E0
:100220008004020180402010080402010804020139
:1002300001020408102040800102040810204080C0
:100240000000090A02080B0C0D0706030401000058
:10025000000000000000000000000000000000009E
:1002600000000000000000000000000011100F005E
:10027000000000000000000000000000000000007E
:10028000000000000000BD0ADA22E72A11241FBE88
:10029000CFEFD1E2DEBFCDBF00E00CBF18E0A0E0A1
:1002A000B2E0E4EFFEE500E00BBF02C007900D9264
:1002B000AA37B107D9F713E1AAE7B8E001C01D9248
:1002C000A032B107E1F712E0CCE8D2E000E006C0CE
:1002D00022970109FE010BBF0E94642FC638D10787
:1002E00080E00807A9F70E941F280C94782F0C942F
:1002F00000000F93DF93CF93CDB7DEB760970FB6B3
:10030000F894DEBF0FBECDBF002309F459C0298386
:100310003A834B835C836D837E838F839887E0E28F
:10032000E01B2D813E814F8158851E16BCF01D8635
:100330001E861F86188A8E2F992787FD9095909587
:1003400081959F4F04C056954795379527958A9577
:10035000D2F729873A874B875C872AC0CA01B9013F
:10036000002E04C096958795779567950A94D2F7E5
:100370006D877E878F87988BDA01C90104C0880F4B
:10038000991FAA1FBB1FEA95D2F729813A814B8199
:100390005C8104C056954795379527950A95D2F705
:1003A000822B932BA42BB52B89879A87AB87BC878D
:1003B00029853A854B855C856D857E858F859889F5
:1003C00060960FB6F894DEBF0FBECDBFCF91DF9120
:1003D0000F9108950F93DF93CF93CDB7DEB760975A
:1003E0000FB6F894DEBF0FBECDBF002309F459C08D
:1003F00029833A834B835C836D837E838F839887C5
:10040000E0E2E01B29813A814B815C811E16BCF041
:1004100019861A861B861C868E2F992787FD909534
:10042000909581959F4F04C0220F331F441F551F85
:100430008A95D2F72D873E874F87588B2AC0CA01ED
:10044000B901002E04C0660F771F881F991F0A94F8
:10045000D2F769877A878B879C87DA01C90104C044
:10046000B695A79597958795EA95D2F72D813E8108
:100470004F81588504C0220F331F441F551F0A9512
:10048000D2F7822B932BA42BB52B8D879E87AF871A
:10049000B88B29853A854B855C856D857E858F85F2
:1004A000988960960FB6F894DEBF0FBECDBFCF918E
:1004B000DF910F91089580917A0890917B080196C1
:1004C00090937B0880937A088431910524F01092F0
:1004D0007B0810927A0808950F931F93082F162F08
:1004E00084ED9AE00E94AA116091940A7091950A95
:1004F0008091960A9091970A20E030E0A9010E942D
:10050000C72D18169CF4812F60E070E00E94D6265B
:100510006091940A7091950A8091960A9091970A39
:100520000E94BF2C9B01AC01802F13C0802F60E084
:1005300070E00E94D6266091940A7091950A80918D
:10054000960A9091970A90580E94BF2C9B01AC018B
:10055000812FB9010E94D6261F910F9108950F9304
:100560001F93082F162F8DE09BE00E94AA11609127
:10057000A00A7091A10A8091A20A9091A30A20E09A
:1005800030E0A9010E94C72D18169CF4812F60E06D
:1005900070E00E94D6266091A00A7091A10A809115
:1005A000A20A9091A30A0E94BF2C9B01AC01802F4C
:1005B00013C0802F60E070E00E94D6266091A00AF0
:1005C0007091A10A8091A20A9091A30A90580E946A
:1005D000BF2C9B01AC01812FB9010E94D6261F912F
:1005E0000F9108950F931F93082F162F86E49BE019
:1005F0000E94AA116091AC0A7091AD0A8091AE0A76
:100600009091AF0A20E030E0A9010E94C72D181692
:100610009CF4812F60E070E00E94D6266091AC0AC5
:100620007091AD0A8091AE0A9091AF0A0E94BF2CE2
:100630009B01AC01802F13C0802F60E070E00E940E
:10064000D6266091AC0A7091AD0A8091AE0A909165
:10065000AF0A90580E94BF2C9B01AC01812FB901B9
:100660000E94D6261F910F9108951F93182F8FE790
:100670009BE00E94AA116091B80A7091B90A80911A
:10068000BA0A9091BB0A0E94BF2C9B01AC01812F3A
:10069000B9010E94D6261F9108951F93182F88EB49
:1006A0009BE00E94AA116091C40A7091C50A8091D2
:1006B000C60A9091C70A0E94BF2C9B01AC01812FF2
:1006C000B9010E94D6261F9108951F93182F81EF1C
:1006D0009BE00E94AA116091D00A7091D10A80918A
:1006E000D20A9091D30A0E94BF2C9B01AC01812FAA
:1006F000B9010E94D6261F9108950F931F93162FBC
:10070000042F882321F1862F61E00E941D26802F6F
:1007100061E00E941D26802F60E070E00E94D626D6
:10072000812F61E00E94412668EC70E080E090E05B
:100730000E942025812F60E00E94412668EC70E035
:1007400080E090E00E942025812F61E002C0862F8A
:1007500060E00E9441261F910F910895AF92BF92D1
:10076000CF92DF92EF92FF920F931F93CF93DF937D
:100770005B016C01EA017901000F111F000F111FCD
:10078000C00FD11FF901608171818281938128811D
:1007900039814A815B810E94BD2BF701608371839F
:1007A00082839383A882B982CA82DB82C601B501A3
:1007B00020813181428153810E94BE2B262F372F09
:1007C000482F592FF701208331834283538320E040
:1007D00030E040EA51E40E94262CDF91CF911F9136
:1007E0000F91FF90EF90DF90CF90BF90AF90089562
:1007F000EF92FF920F931F937B018C0120E030E07A
:100800004CE553E40E94222C87FD0CC1C801B701BE
:1008100020E030E04CE553E40E94C72D87FD17C06F
:10082000C801B70120E030E84BEA53E40E94222CD3
:1008300087FF0DC0C801B70124E13EEA47EC5DE344
:100840000E94802E27E231E34AEB51E420C0C80128
:10085000B70120E030E84BEA53E40E94C72D87FD42
:1008600019C0C801B70120E030E044EE53E40E9413
:10087000222C87FF0FC0C801B7012FE03BE045EBFA
:100880005DE30E94802E22E134E142EA51E40E94BD
:10089000BD2BCCC0C801B70120E030E044EE53E4EA
:1008A0000E94C72D87FD17C0C801B70120E030E0C6
:1008B00047E254E40E94222C87FF0DC0C801B70113
:1008C00026EA3BE944EE5FE30E94E32E22E63EEB9C
:1008D0004CEB59E3A4C0C801B70120E030E047E287
:1008E00054E40E94C72D87FD19C0C801B70120E05C
:1008F00030E04DE454E40E94222C87FF0FC0C80171
:10090000B70122E83FEF4DE25BE30E94802E0E9498
:10091000932C20E635EE48ED50E481C0C801B701C4
:1009200020E030E04DE454E40E94C72D87FD19C05B
:10093000C801B70120E030EC49E554E40E94222CC4
:1009400087FF0FC0C801B70126EA3BE944E45BE337
:100950000E94802E0E94932C2FE135E843EA50E458
:100960005EC0C801B70120E030EC49E554E40E94C4
:10097000C72D87FD19C0C801B70120E030E443E668
:1009800054E40E94222C87FF0FC0C801B70126EB58
:1009900030E144E65BE30E94802E0E94932C27E224
:1009A00031E348E550E43BC0C801B70120E030E442
:1009B00043E654E40E94C72D87FD19C0C801B70162
:1009C00020E030E84AE654E40E94222C87FF0FC062
:1009D000C801B7012CE930E548E85BE30E94802EAE
:1009E0000E94932C20EB32E748EE5FE318C0C80169
:1009F000B70120E030E84AE654E40E94C72D87FDA5
:100A000011C0C801B70122E83FEF4DEA5BE30E9445
:100A1000802E0E94932C24EA30E74DE15FE30E9490
:100A2000802E04C060E070E080E090E01F910F91A4
:100A3000FF90EF9008956330710581059105A9F14C
:100A4000643071058105910560F46130710581059F
:100A50009105B9F0623071058105910509F049C031
:100A600019C0653071058105910589F16530710501
:100A70008105910518F16630710581059105C9F56B
:100A80002FC06091880A7091890A80918A0A90919A
:100A90008B0A08C06091840A7091850A8091860A49
:100AA0009091870A0E94F8032EC06091800A70918D
:100AB000810A8091820A9091830AF4CF6091740A2E
:100AC0007091750A8091760A9091770AEBCF6091C8
:100AD000780A7091790A80917A0A90917B0AE2CF24
:100AE00060917C0A70917D0A80917E0A90917F0AC4
:100AF000D9CF83EC92E160E072E00E940C2860E0C4
:100B000070E080E090E00895AF92BF92CF92DF92C4
:100B1000EF92FF920F931F93833009F4F8C1843052
:100B200038F4813009F457C1823009F041C2A1C1C3
:100B3000853009F474C0853020F0863009F038C261
:100B4000DCC082E40E94A3269C01B901882777FDBE
:100B50008095982F0E94F22C6093740A7093750A06
:100B60008093760A9093770A00917A0810917B0817
:100B70004CE758E02CE53AE00E94AE036093900AFF
:100B80007093910A8093920A9093930A64E070E0C4
:100B900080E090E00E941B050E94C42C5B016C0168
:100BA00083E40E94A3269C01B901882777FD8095E4
:100BB000982F0E94F22C0E94F8030E94C42C9B01E3
:100BC000AC01EE24F22E032F142FEA0CFB1C0C1D9B
:100BD0001D1DA114B104C104D104F9F02115310582
:100BE00041055105D1F060918C0A70918D0A809178
:100BF0008E0A90918F0A20E030E0A9010E94222CF9
:100C0000882359F08DE161E00E9441268DE090E05B
:100C10006CE070E00E946C02CEC18DE1C5C18FE333
:100C20000E94A3269C01B901882777FD8095982F03
:100C30000E94F22C6093780A7093790A80937A0A62
:100C400090937B0A00917A0810917B084CEC58E055
:100C500020E63AE00E94AE0360939C0A70939D0ADE
:100C600080939E0A90939F0A65E070E080E090E098
:100C70000E941B050E94C42C5B016C0180E40E9451
:100C8000A3269C01B901882777FD8095982F0E94A3
:100C9000F22C0E94F8030E94C42C9B01AC01EE24AC
:100CA000F22E032F142FEA0CFB1C0C1D1D1DA1148A
:100CB000B104C104D104F9F02115310541055105F4
:100CC000D1F06091980A7091990A80919A0A909156
:100CD0009B0A20E030E0A9010E94222C882359F0D1
:100CE0008BE161E00E94412689E090E068E070E0DD
:100CF0000E94AF0260C18BE157C18CE30E94A32622
:100D00009C01B901882777FD8095982F0E94F22CCD
:100D100060937C0A70937D0A80937E0A90937F0A89
:100D200000917A0810917B084CE159E024E63AE002
:100D30000E94AE036093A80A7093A90A8093AA0A3E
:100D40009093AB0A66E070E080E090E00E941B05A3
:100D50000E94C42C5B016C018DE30E94A3269C01C0
:100D6000B901882777FD8095982F0E94F22C0E9468
:100D7000F8030E94C42C9B01AC01EE24F22E032F39
:100D8000142FEA0CFB1C0C1D1D1DA114B104C10481
:100D9000D104F9F02115310541055105D1F06091DB
:100DA000A40A7091A50A8091A60A9091A70A20E052
:100DB00030E0A9010E94222C882359F08CE161E0E7
:100DC0000E9441268BE090E06AE070E00E94F2020F
:100DD000F2C08CE1E9C088E30E94A3269C01B9011E
:100DE000882777FD8095982F0E94F22C6093880ABF
:100DF0007093890A80938A0A90938B0A00917A08EB
:100E000010917B084CE05AE020E73AE00E94AE03E4
:100E10006093CC0A7093CD0A8093CE0A9093CF0A48
:100E200061E070E080E090E00E941B050E94C42C0D
:100E30007B018C01E114F10401051105C1F0609101
:100E4000C80A7091C90A8091CA0A9091CB0A20E021
:100E500030E0A9010E94222C882349F088E161E05A
:100E60000E94412687E090E00E946503A4C088E1CB
:100E70009BC087E30E94A3269C01B901882777FDC8
:100E80008095982F0E94F22C6093840A7093850AB3
:100E90008093860A9093870A00917A0810917B08C4
:100EA0004CEB59E02CE63AE00E94AE036093C00A96
:100EB0007093C10A8093C20A9093C30A62E070E003
:100EC00080E090E00E941B050E94C42C7B018C01F5
:100ED000E114F10401051105C1F06091BC0A7091A3
:100EE000BD0A8091BE0A9091BF0A20E030E0A901BE
:100EF0000E94222C882349F089E161E00E9441266A
:100F000086E090E00E944D0356C089E14DC086E323
:100F10000E94A3269C01B901882777FD8095982F10
:100F20000E94F22C6093800A7093810A8093820A57
:100F30009093830A00917A0810917B084CE659E05F
:100F400028E63AE00E94AE036093B40A7093B50AB3
:100F50008093B60A9093B70A63E070E080E090E077
:100F60000E941B050E94C42C7B018C01E114F1043A
:100F700001051105C1F06091B00A7091B10A80912C
:100F8000B20A9091B30A20E030E0A9010E94222C1D
:100F9000882349F08AE161E00E94412685E090E0E3
:100FA0000E94350308C08AE160E00E94412603C028
:100FB000EE24FF248701B701C8011F910F91FF9014
:100FC000EF90DF90CF90BF90AF9008956F927F9297
:100FD0008F929F92AF92BF92CF92DF92EF92FF9249
:100FE0000F931F933B014C01BA01A901980187019E
:100FF0007601650183E0681671048104910461F152
:1010000084E0681671048104910468F481E0681634
:10101000710481049104D1F082E0681671048104A6
:10102000910459F516C085E0681671048104910495
:10103000C9F085E0681671048104910480F086E0AF
:101040006816710481049104C1F40FC081EF9BE024
:101050000EC088EB9BE00BC08FE79BE008C084EDDF
:101060009AE005C08DE09BE002C086E49BE00E9410
:101070000C13862D0E94840506C083EC92E169EB77
:1010800072E00E940C281F910F91FF90EF90DF906B
:10109000CF90BF90AF909F908F907F906F9008956A
:1010A000EF92FF920F931F937B018C0120E030E0C1
:1010B000A9010E94C72D87FD17C0C801B70126E608
:1010C00036E646E251E40E94222C87FF0DC0C8019B
:1010D000B70127E231E34AEB51E40E94BE2B24E141
:1010E0003EEA47EC5DE3ECC0C801B70120E030E028
:1010F00048E251E40E94C72D87FD17C0C801B7011F
:1011000023E333E343EA51E40E94222C87FF0DC01E
:10111000C801B70122E134E142EA51E40E94BE2B4A
:101120002FE03BE045EB5DE3CBC0C801B70120E019
:1011300030E044EA51E40E94C72D87FD1DC0C8017C
:10114000B7012AE939E941E252E40E94222C87FFE3
:1011500013C0C801B70122E63EEB4CEB59E30E94F5
:10116000262C0E940D2E26EA3BE944EE5FE30E9406
:10117000262C0E94932CABC0C801B70120E030E0C0
:1011800042E252E40E94C72D87FD19C0C801B70191
:101190002AE939E941E752E40E94222C87FF0FC077
:1011A000C801B70120E635EE48ED50E40E94262C38
:1011B0000E940D2E22E83FEF4DE25BE381C0C801A3
:1011C000B70120E030E042E752E40E94C72D87FDDE
:1011D00019C0C801B7012DEC3CEC4CE852E40E9468
:1011E000222C87FF0FC0C801B7012FE135E843EA81
:1011F00050E40E94262C0E940D2E26EA3BE944E48E
:101200005BE35EC0C801B70120E030E04DE852E486
:101210000E94C72D87FD19C0C801B7012DEC3CEC19
:1012200040EA52E40E94222C87FF0FC0C801B70198
:1012300027E231E348E550E40E94262C0E940D2E5F
:1012400026EB30E144E65BE33BC0C801B70120E098
:1012500030E041EA52E40E94C72D87FD19C0C80161
:10126000B70120E030E044EB52E40E94222C87FFDB
:101270000FC0C801B70120EB32E748EE5FE30E94E0
:10128000262C0E940D2E2CE930E548E85BE318C0BF
:10129000C801B70120E030E044EB52E40E94C72DC2
:1012A00087FD11C0C801B70124EA30E74DE15FE3D3
:1012B0000E94262C0E940D2E22E83FEF4DEA5BE3B0
:1012C0000E94262C04C060E070E080E090E01F9156
:1012D0000F91FF90EF9008956F927F928F929F925F
:1012E000AF92BF92CF92DF92EF92FF920F931F9334
:1012F000CF93DF9380E5ECE7F8E0DF01982F1D92B4
:101300009A95E9F7ECECF8E0DF01982F1D929A9599
:10131000E9F7ECE1F9E0DF01982F1D929A95E9F7E2
:10132000ECE6F9E0DF01982F1D929A95E9F7ECEBD6
:10133000F9E0DF01982F1D929A95E9F7ECE0FAE0C9
:10134000DF011D928A95E9F760E070E08CE092E49D
:101350000E94500860938C0A70938D0A80938E0AC5
:1013600090938F0A60E070E080EB91E40E94500857
:101370006093980A7093990A80939A0A90939B0AB3
:101380006093A40A7093A50A8093A60A9093A70A73
:1013900060E070E08CEB92E40E9450086093B00A29
:1013A0007093B10A8093B20A9093B30A60E070E040
:1013B00082E892E40E9450086093BC0A7093BD0AD0
:1013C0008093BE0A9093BF0A60E070E08CE592E4DF
:1013D0000E9450086093C80A7093C90A8093CA0A91
:1013E0009093CB0AC4EDDAE0CE0161E070E00E9498
:1013F000A4141DE0E12E1BE0F12EC70161E070E0B6
:101400000E94A414B6E4CB2EBBE0DB2EC60161E043
:1014100070E00E94A414AFE7AA2EABE0BA2EC5017B
:1014200061E070E00E94A414F8EB8F2EFBE09F2E89
:10143000C40161E070E00E94A414E1EF6E2EEBE0C5
:101440007E2EC30161E070E00E94A414CE0140E052
:1014500050E06FE773EC00E010E02FE733E40E9408
:10146000E213C70140E050E06FE773EC00E010E0EA
:101470002FE733E40E94E213C60140E050E06FE73B
:1014800073EC00E010E02FE733E40E94E213C501A3
:1014900040E050E0BA0100E010E02FE733E40E94A2
:1014A000E213C40140E050E0BA0100E010E02FE791
:1014B00033E40E94E213C30140E050E0BA0100E0CF
:1014C00010E02FE733E40E94E21380E06DE170E06A
:1014D0004DE050E00E947D0380E06DE170E04CE063
:1014E00050E00E947D0380E06BE170E049E050E055
:1014F0000E947D0380E06BE170E048E050E00E94D4
:101500007D0380E06CE170E04BE050E00E947D03E1
:1015100080E06CE170E04AE050E00E947D0380E0F2
:101520006AE170E045E050E00E947D0380E069E1FF
:1015300070E046E050E00E947D0380E068E170E0EA
:1015400047E050E00E947D030E94EC2460932A0C47
:1015500070932B0C80932C0C90932D0CDF91CF91DA
:101560001F910F91FF90EF90DF90CF90BF90AF90C1
:101570009F908F907F906F9008956F927F928F923F
:101580009F92AF92BF92CF92DF92EF92FF920F9312
:101590001F9300D000D00F2EF0E06F2EF0E07F2ED2
:1015A000F0E08F2EFFE39F2EF02DEDB7FEB76182A6
:1015B0007282838294821682158284ED9AE060E9B9
:1015C0007AE044E95AE02CE83AE00F2EFAE9EF2EEF
:1015D000F9E9FF2EF9E90F2FFEE31F2FF02D0F2E53
:1015E000FAE9AF2EF9E9BF2EF9E1CF2EFEE3DF2EA7
:1015F000F02D0E94F614EDB7FEB7618272828382ED
:101600009482168215828DE09BE06CE97AE040EAD4
:101610005AE028E93AE00E94F614EDB7FEB761827D
:101620007282838294821682158286E49BE068EA45
:101630007AE04CEA5AE024EA3AE00E94F6140F2ECF
:10164000F0E06F2EF0E07F2EF0E08F2EF0E09F2E86
:10165000F02DEDB7FEB7618272828382948216828A
:1016600015828FE79BE064EB7AE048EB5AE020EBD1
:101670003AE00F2EF0E0EF2EF0E0FF2EF0E60F2F15
:10168000F1E41F2FF02D0F2EF4EFAF2EFDEFBF2E44
:10169000F4E5CF2EFCE3DF2EF02D0E94F614EDB71B
:1016A000FEB761827282838294821682158288EBF1
:1016B0009BE060EC7AE044EC5AE02CEB3AE00E94CC
:1016C000F614EDB7FEB7618272828382948216822D
:1016D000158281EF9BE06CEC7AE040ED5AE028EC5B
:1016E0003AE00E94F6148DB79EB706960FB6F894AE
:1016F0009EBF0FBE8DBF1F910F91FF90EF90DF90A7
:10170000CF90BF90AF909F908F907F906F900895F3
:10171000DF93CF93CDB7DEB760970FB6F894DEBFF7
:101720000FBECDBF88E59EE020E2FC0111922A9514
:10173000E9F760E270E00E94741529873A874B87C9
:101740005C876D877E878F87988BDE011196FE01FF
:10175000399688E001900D928150E1F7CE01019613
:1017600065E574E046E15DE00E944517882349F095
:1017700083E090E168E57EE040E250E00E944C2288
:1017800006C084EA92E165EE72E00E940C28609641
:101790000FB6F894DEBF0FBECDBFCF91DF91089595
:1017A000CF93DF931092500C10924F0C80E2EEE238
:1017B000FCE0DF011D928A95E9F783E090E10E9449
:1017C000EA21009731F1C0914F0CD091500CC132F9
:1017D000D105FCF483E090E10E94F321FE01E25D7B
:1017E000F34F80832196D093500CC0934F0CE5CFDC
:1017F00021E020934E0C825D934FFC01108211C0BA
:1018000010924E0C84EA92E160E073E00E94EC27B3
:1018100008C080914F0C9091500C8132910544F397
:10182000EFCFDF91CF9108958EBD0DB407FEFDCFB0
:101830008EB5089581E00E94CB2184E00E94D421DE
:1018400084E00E94D9210E94AC2180E10E94140C06
:1018500080E00E94140C08950F931F93DF93CF93A1
:101860000F92CDB7DEB7182F062F60E079830E9464
:1018700041267981872F805F0E94140C802F0E945F
:10188000140C812F61E00E9441260F90CF91DF91CF
:101890001F910F910895CF93DF930E946C09C3E0CD
:1018A000D0E1CE0163E070E00E94CD22CE0168E875
:1018B0007BE00E94D522CE0160ED7BE00E94D02229
:1018C00084E261E00E941D268AE261E00E941D26FA
:1018D0008DE261E00E941D2685E261E00E941D26E6
:1018E0008BE261E00E941D268CE261E00E941D26D1
:1018F00084E260E00E9441268AE260E00E94412684
:101900008DE260E00E94412685E260E00E9441266F
:101910008BE260E00E9441268CE260E00E9441265A
:101920008EE161E00E941D2680E261E00E941D269A
:1019300082E261E00E941D268FE161E00E941D2687
:1019400081E261E00E941D2683E261E00E941D2683
:101950008EE160E00E94412680E260E00E94412624
:1019600082E260E00E9441268FE160E00E94412611
:1019700081E260E00E94412683E260E00E9441260D
:1019800085E361E00E941D260E941A0C84E290E02B
:1019900060E070E00E942C0C8AE290E060E070E071
:1019A0000E942C0C8DE290E060E070E00E942C0C14
:1019B00085E290E060E070E00E942C0C8BE290E009
:1019C00060E070E00E942C0C8CE290E060E070E03F
:1019D0000E942C0C80E060E00E941D261092740C86
:1019E0001092750C1092760C1092770C1092780C65
:1019F0001092790C10927A0C10927B0C10927C0C45
:101A000010927D0C10927E0C10927F0C1092800C24
:101A10001092810C1092820C1092830C1092840C04
:101A20001092850C1092860C1092870C1092880CE4
:101A30001092890C10928A0C10928B0C10928C0CC4
:101A400010928D0C10928E0C10928F0C88EC9AE0F4
:101A50009093540C8093530C8CEB9AE09093560C1B
:101A60008093550C80EB9AE09093580C8093570C20
:101A700088E99AE090935C0C80935B0C84EA9AE08E
:101A800090935E0C80935D0C8CE89AE090935A0CD6
:101A90008093590C88E18093600C87E08093670CF9
:101AA0008FEF80936E0C99E19093610C96E0909388
:101AB000680C80936F0C9AE19093620C95E0909380
:101AC000690C8093700C8BE18093640C99E0909387
:101AD0006B0C98E09093720C8093650C8BE0809374
:101AE0006C0C8AE08093730C8DE18093630C8DE025
:101AF00080936A0C8CE08093710C81E08093150DCB
:101B0000DF91CF910895CF93DF93C82FD0E0FE01EE
:101B1000EE0FFF1FEE0FFF1FEC58F34F9081843044
:101B200031F5973420F1E091150DF0E0EE0FFF1F35
:101B3000EF5AF34F0190F081E02D80E090E0DC015E
:101B400080839183A283B383E091150DF0E0E95681
:101B5000F34F1082FE01E15AF34F808160E00E9452
:101B60004126CA59D34F888160E00E944126DF9107
:101B7000CF9108952F923F924F925F926F927F92F2
:101B80008F929F92AF92BF92CF92DF92EF92FF928D
:101B90000F931F93DF93CF9300D00F92CDB7DEB793
:101BA00037E0632E712C8824992480E0F401E256FA
:101BB000F34F9081992309F44BC01082C401AA27E6
:101BC00097FDA095BA2F89839A83AB83BC83540178
:101BD000AA0CBB1CAA0CBB1CF501EF53F34F608190
:101BE0007181828193810E94F02C20E030E04AE7ED
:101BF00054E40E94262C1B012C01F501E352F34F03
:101C000060817181828193810E94F02C20E030E01C
:101C10004AE754E40E94262C7B018C01F501E75031
:101C2000F34F60817181828193810E94F02C20E0CA
:101C300030E04AE754E40E94262C5B016C01698184
:101C40007A818B819C81A20191010E94E60781E04B
:101C50000894811C911C0894610871086114710436
:101C600009F0A4CF0F900F900F900F90CF91DF91BC
:101C70001F910F91FF90EF90DF90CF90BF90AF90AA
:101C80009F908F907F906F905F904F903F902F909C
:101C90000895EF92FF920F931F93CF93DF93E0E9A4
:101CA000FCE0C0E0D0E08191882309F462C0FE012D
:101CB000E057F34F10828E010956134FF8018081CF
:101CC000882309F440C0FE01EE0FFF1FEE0FFF1F37
:101CD000EB55F34F608171818281938161157105AC
:101CE0008105910581F1FE01EE0FFF1FEF5AF34FC1
:101CF000E080F1800E94F02C0E945008F701608380
:101D00007183828393835FE5E52E5CE0F52EEC0E14
:101D1000FD1EF7016081FE01EA59F34F4081F80191
:101D2000808170E050E00E947D03C359D34F488109
:101D30004F3F31F1F70160818091560F70E050E024
:101D40000E947D031DC0FE01EE0FFF1FEF5AF34FEF
:101D50000190F081E02D80E090E0DC0180839183B0
:101D6000A283B383C15AD34F888160E00E94412689
:101D700007C02196C730D10509F095CF80E001C09A
:101D800081E0DF91CF911F910F91FF90EF90089527
:101D900080E00E94792621E08130910509F020E061
:101DA000822F0895CF93DF93FC01EB0120813181D5
:101DB0002130310509F0B1C08281882309F4ADC01A
:101DC000838194818430910521F18730910509F454
:101DD00088C08330910509F0A0C021E02E8B2BA78D
:101DE000988F8F8B9DA78CA783E090E0A0E0B0E058
:101DF0008EA79FA7A8ABB9AB85E090E0A0E0B0E0CC
:101E00008AAB9BABACABBDAB1EAA1FAA18AE19AE7A
:101E100082C042E050E059834883FB01EE55FF4FFA
:101E200041E04083FB01ED55FF4F318320834E8B12
:101E30004AAF988F8F8B8091780C9091790CA091FC
:101E40007A0CB0917B0C8BAF9CAFADAFBEAFFB01FA
:101E5000FF9680917C0C90917D0CA0917E0CB091AE
:101E60007F0C80839183A283B383FB01ED5BFF4FE3
:101E70008091800C9091810CA091820CB091830C88
:101E800080839183A283B383FB01E95BFF4F809141
:101E9000840C9091850CA091860CB091870C808366
:101EA0009183A283B383FB01E55BFF4F8091880C94
:101EB0009091890CA0918A0CB0918B0C80839183B6
:101EC000A283B383C15BDF4F80918C0C90918D0C0A
:101ED000A0918E0CB0918F0C88839983AA83BB83C9
:101EE0001AC042E050E059834883FB01EE55FF4F92
:101EF00041E04083FB01ED55FF4F318320834E8B42
:101F0000FB01EB59FF4F4083988F8F8B0E94C80EC7
:101F1000CA59DF4F888381E001C080E0DF91CF9113
:101F200008950F931F93CF93DF938C01EB01FC0176
:101F3000808191818930910549F08A30910509F4B9
:101F400091C08130910509F022C11BC1F801EB520B
:101F5000FF4F80819181A281B38183309105A105DA
:101F6000B10509F441C084309105A105B10560F4C3
:101F700081309105A105B105C9F082309105A10517
:101F8000B10509F03DC121C085309105A105B1051C
:101F900009F44AC085309105A105B105B0F186303C
:101FA0009105A105B10509F02BC14DC0F801EC5216
:101FB000FF4F8EE160810E944126F801E752FF4FFA
:101FC0006081718184E290E01DC0F801EC52FF4F06
:101FD00080E260810E944126F801E752FF4F608154
:101FE00071818AE290E00EC0F801EC52FF4F82E26C
:101FF00060810E944126F801E752FF4F60817181A4
:102000008DE290E00E942C0CFBC0F801EC52FF4FD7
:102010008FE160810E944126F801E752FF4F608105
:10202000718185E290E0EECFF801EC52FF4F81E242
:1020300060810E944126F801E752FF4F6081718163
:102040008BE290E0DFCFF801EC52FF4F83E260813A
:102050000E944126F801E752FF4F608171818CE2B6
:1020600090E0D0CFF801EB51FF4F80818823D1F071
:10207000F801E152FF4F0190F081E02DEE0FFF1FBC
:10208000EE0FFF1FEF53F34FD801AA51BF4F8D91B1
:102090009D910D90BC91A02D80839183A283B383E9
:1020A00081E001C080E0F801E651FF4F9081992363
:1020B000C9F0F801E152FF4F0190F081E02DEE0FE1
:1020C000FF1FEE0FFF1FE352F34FD801A551BF4F83
:1020D0008D919D910D90BC91A02D80839183A283C1
:1020E000B38381E0F801E151FF4F90819923C9F05A
:1020F000F801E152FF4F0190F081E02DEE0FFF1F3C
:10210000EE0FFF1FE750F34FD801A051BF4F8D9145
:102110009D910D90BC91A02D80839183A283B38368
:1021200002C0882351F0F801E152FF4F0190F08185
:10213000E02DE256F34F81E08083F801E152FF4F3A
:102140002081822F9181FC01E057F34F31E03083F1
:10215000FC01E956F34FD801A252BF4F3C913083A6
:102160002430D9F587349105C4F1FC01EE0FFF1F2F
:10217000EE0FFF1FEB55F34F86E490E0A0E0B0E0D8
:102180003BC0C8010E94D20E882369F007C084EAD0
:1021900092E162E373E00E940C2805C022E030E087
:1021A0003983288315C0FE01EE55FF4F81E08083FF
:1021B00083E090E099838883FE01ED55FF4F82E034
:1021C00090E091838083CB55DF4F9983888380E0B3
:1021D000DF91CF911F910F910895FC01EE0FFF1F2A
:1021E000EE0FFF1FEB55F34FD801AF51BF4F8D914D
:1021F0009D910D90BC91A02D80839183A283B38388
:10220000FE01EE55FF4F81E0808383E090E09983EB
:102210008883FE01ED55FF4F81E090E0918380833C
:10222000CB55DF4F9983888381E0D2CF0F931F93E3
:10223000DF93CF93CDB7DEB760970FB6F894DEBFCC
:102240000FBECDBF8A010E94181B29873A874B8792
:102250005C876D877E878F87988BDE011196FE01E4
:10226000399688E001900D928150E1F7CE010196F8
:1022700065E574E0A8010E946B2060960FB6F894A3
:10228000DEBF0FBECDBFCF91DF911F910F9108959B
:102290000F931F93CF93DF9380914E0C882359F1B6
:1022A000C8E7DEE082E491E0FE019C01119221503A
:1022B0003040E1F706E11DE0F8019C011192215048
:1022C0003040E1F760914F0C7091500C8EE29CE031
:1022D000AE010E941611882329F0CE01B8010E9498
:1022E000910F06C084EA92E16FE473E00E94EC274C
:1022F00010924E0C2AC00E94BA0D882331F50E941C
:10230000490E882311F50091150D802F8F5F809362
:10231000150D802F0E948405E02FF0E0EE0FFF1FC7
:10232000EE0FFF1FEC58F34F60837183828393831A
:102330008091150D873028F081E08093150D0E9463
:102340005B028091150D0E94830DDF91CF911F914B
:102350000F9108952F923F924F925F926F927F92CA
:102360008F929F92AF92BF92CF92DF92EF92FF92A5
:102370000F931F93DF93CF93CDB7DEB72A970FB696
:10238000F894DEBF0FBECDBF9A878987DC01D8964F
:102390008C91D897882309F425C10E94EC246D8381
:1023A0007E838F839887E985FA8580A191A1A2A178
:1023B000B3A12D813E814F815885281B390B4A0BD3
:1023C0005B0B84A595A5A6A5B7A5281739074A07CD
:1023D0005B0708F407C1228D338DD9018D919D9142
:1023E0000D90BC91A02D89839A83AB83BC83068C0E
:1023F000F78DE02D608171818281938129813A81FD
:102400004B815C810E94BD2B562E472E382E292EE3
:10241000A2019101652F742F832F922FE985FA85F0
:1024200020893189428953890E94802EA985BA85E5
:1024300094962D913D914D915C9197970E94BE2B62
:10244000D62EC72EB82EA92EA6019501852F942F22
:10245000A32FB22FE985FA8584A395A3A6A3B7A3DA
:1024600004A915A9F6A8E7A8652F742F832F922F2A
:10247000F701202F312F4F2F5E2F0E94C72D1816E6
:1024800064F49701802F912FA32FB22FE985FA854D
:1024900084A395A3A6A3B7A31AC0A985BA85D0968D
:1024A0006D907D908D909C90D397A6019501652F9E
:1024B000742F832F922FA40193010E94222C87FF57
:1024C00006C0E985FA8564A275A286A297A2A20138
:1024D0009101652F742D832F922DA985BA851C96A5
:1024E0002D913D914D915C911F970E94802EE98521
:1024F000FA8524A135A146A157A10E94BE2B5B01FC
:102500006C0169817A818B819C81A985BA859896B5
:102510002D913D914D915C919B970E94BD2BE9853A
:10252000FA8524893589468957890E94802E9B0126
:10253000AC01C601B5010E94BD2BD62EC72EB82E08
:10254000A92EA6019501652F742F832F922FF701D5
:10255000202F312F4F2F5E2D0E94C72D1816FCF013
:10256000A985BA85D0960C91D097D1961C91D19718
:10257000D296FC90D297D396EC90A6019501652F48
:10258000742F832F922FF701202F312F4F2F5E2F83
:102590000E94222C87FD03C00D2D1C2D7501A985DD
:1025A000BA855C96ED91FC915D979701802F912FF4
:1025B000A32FBE2D80839183A283B38389819A81C7
:1025C000AB81BC81E985FA8580A791A7A2A7B3A7B3
:1025D0008D819E81AF81B88580A391A3A2A3B3A36F
:1025E00081E001C080E02A960FB6F894DEBF0FBEEE
:1025F000CDBFCF91DF911F910F91FF90EF90DF90B2
:10260000CF90BF90AF909F908F907F906F905F9092
:102610004F903F902F9008952F923F924F925F924C
:102620006F927F928F929F92AF92BF92CF92DF92E2
:10263000EF92FF920F931F93DF93CF9300D0CDB70C
:10264000DEB79B838A832A013B0148015901CB01F4
:10265000BA0120E030E0A9010E94222C87FD9CC035
:10266000C501B40120E030E0A9010E94222C87FDC1
:1026700093C0C701B60120E030E0A9010E94222CDE
:1026800087FD8AC0EA81FB81408251826282738227
:1026900084829582A682B782C086D186E286F3863E
:1026A00064A575A586A597A50E94F02C20E030E0D2
:1026B0004AE754E40E94262C162F072F382E292E85
:1026C000EA81FB814486558666867786C501B4011A
:1026D000D801F1012B2F3A2F4F2F5E2F0E94802E11
:1026E000B62EA72E982E9983A501292F852F942FDA
:1026F000A92DB22FEA81FB81808B918BA28BB38BAA
:10270000C701B601D801F1012B2F3A2F4F2F5E2FB1
:102710000E94262CC62E872E182F092F9801862F4F
:10272000982DA32FB22FEA81FB81848B958BA68BEA
:10273000B78B808D918D8130910571F560E070E0EF
:10274000CB01A30192010E94BD2BEA81FB8164872A
:1027500075878687978760E070E0CB01D501398067
:102760002B2F3A2F492D532D0E94BD2BEA81FB813F
:10277000608B718B828B938B60E070E0CB01F801F2
:102780002C2D382D4F2F5E2F0E94BD2BEA81FB810F
:10279000648B758B868B978B0F900F900F90CF91DA
:1027A000DF911F910F91FF90EF90DF90CF90BF903E
:1027B000AF909F908F907F906F905F904F903F90E1
:1027C0002F9008954F925F926F927F928F929F9277
:1027D000AF92BF92CF92DF92EF92FF920F931F932F
:1027E000CF93DF93EC015A016B0178018901CB0192
:1027F000BA01A80197010E94C72D87FF4EC0A8AA61
:10280000B9AACAAADBAAECAAFDAA0EAB1FAB88AD77
:10281000882309F442C08C8C9D8CF4014080518047
:1028200062807380C301B201A80197010E94C72D85
:10283000181634F4F401E082F182028313830DC090
:10284000C301B201A60195010E94222C87FF05C099
:10285000F401A082B182C282D382ACA0BDA0CEA07E
:10286000DFA0ECA8FDA80EA91FA9C601B501A8010B
:1028700097010E94C72D181664F0E8A8F9A80AA9C4
:102880001BA9C601B501A80197010E94222C87FF50
:1028900004C0ECA2FDA20EA31FA3DF91CF911F9154
:1028A0000F91FF90EF90DF90CF90BF90AF909F90EF
:1028B0008F907F906F905F904F900895AF92BF92EE
:1028C000CF92DF92EF92FF920F931F93CF93DF93FC
:1028D000EC01EC8DFD8DE080F18002811381ECA292
:1028E000FDA20EA31FA3EA8DFB8D80819181A281A1
:1028F000B38188A799A7AAA7BBA7ACA8BDA8CEA853
:10290000DFA8C801B701A60195010E94C72D1816BE
:1029100064F0A8A8B9A8CAA8DBA8C801B701A60195
:1029200095010E94222C87FF04C0ACA2BDA2CEA2BA
:10293000DFA2DF91CF911F910F91FF90EF90DF9079
:10294000CF90BF90AF9008951F93CF93DF93EC018A
:1029500011E06130710509F010E088AD91E0892740
:10296000181719F4CE010E945E1418AFDF91CF91B1
:102970001F9108950F931F93CF93DF93EC018B0169
:1029800088AD882361F1888D998D6817790739F1B1
:1029900060E070E0CB012C853D854E855F850E940F
:1029A000BD2B6C877D878E879F8760E070E0CB01B1
:1029B000288939894A895B890E94BD2B688B798B6C
:1029C0008A8B9B8B60E070E0CB012C893D894E891E
:1029D0005F890E94BD2B6C8B7D8B8E8B9F8B198F9B
:1029E000088FDF91CF911F910F9108954F925F92C1
:1029F0006F927F928F929F92AF92BF92CF92DF920F
:102A0000EF92FF920F931F93DF93CF93CDB7DEB773
:102A10004C0127013801FC01558F448F738F628F61
:102A2000378F268F10AE40E050E0BA0100E010E092
:102A30002FE733E40E94E21384E690E0A0E0B0E0E8
:102A4000F40184A795A7A6A7B7A7C401688D798DBF
:102A50000E94BA14C401B301A20196018501CC8879
:102A6000DD88EE88FF880E940C130E94EC24F4019C
:102A700024A535A546A557A5621B730B840B950BA2
:102A800060A371A382A393A3CF91DF911F910F91B4
:102A9000FF90EF90DF90CF90BF90AF909F908F907E
:102AA0007F906F905F904F900895CF92DF92EF925A
:102AB000FF920F931F93CF93DF937C018A01FC0158
:102AC000C281D381CE010E94682FC00FD11FF701B0
:102AD000D383C28381E0DF91CF911F910F91FF904B
:102AE000EF90DF90CF900895DF93CF93CDB7DEB70F
:102AF00028970FB6F894DEBF0FBECDBF25E535E1B0
:102B00003A8329838B839C836D837E8318861F82FF
:102B10003A81AC0180E0988528960FB6F894DEBF24
:102B20000FBECDBFCF91DF9108950F931F93CF9329
:102B3000DF93EC018A01E881F981309769F08E8199
:102B40009F81840F951F2C813D812817390760F0E4
:102B5000CE011995882341F08E819F81800F911FAE
:102B60009F838E8381E001C080E0DF91CF911F9130
:102B70000F910895AF92BF92CF92DF92EF92FF92A2
:102B80000F931F93DF93CF93CDB7DEB762970FB646
:102B9000F894DEBF0FBECDBF6C01E02F0B87F12F85
:102BA0001C87A22F2D87B32F3E87E42E4F87A52E9B
:102BB000588B862F698B972F7A8B9F01AD016E2DD5
:102BC0007A2DE32BE42BE52BEE29EA29E82BE92BE0
:102BD00039F05E010894A11CB11CEE24FF2412C040
:102BE000C601BE01655F7F4F41E050E027C0E22F84
:102BF000E068D501ED935D0107E00E94790108943A
:102C0000E11CF11CE22FE32BE42BE52BE62BE72B59
:102C1000E82BE92B61F72B873C874D875E876F8711
:102C2000788B898B9A8BFE01EE0DFF1D80818F774B
:102C30008083C601BE016F5F7F4FA7010E9495157B
:102C400062960FB6F894DEBF0FBECDBFCF91DF9175
:102C50001F910F91FF90EF90DF90CF90BF90AF90BA
:102C600008958F929F92AF92BF92CF92DF92EF9290
:102C7000FF920F931F93FA01DB0114962C91149786
:102C8000223069F0233018F4213029F505C02430B2
:102C900071F0283001F510C08080992402C0808036
:102CA0009180AA24BB24CC24DD2476010DC0808031
:102CB0009180A280B380F7CF80809180A280B38082
:102CC000C480D580E680F78084019501A601B70114
:102CD0000E94BA1501C080E01F910F91FF90EF9004
:102CE000DF90CF90BF90AF909F908F9008950F93FB
:102CF0001F93CF93DF93EC01B22FA32FF42FE52F77
:102D0000CB0197FD0BC098014B2F5A2F6F2F7E2FB1
:102D100001E00E94EA01F82FE92F12C098014B2F21
:102D20005A2F6F2F7E2F01E00E94EA0120953095E7
:102D30004095509560957095F82FF095E92FE095A6
:102D4000CE0189019A01AB016F2F7E2F0E94BA1527
:102D5000DF91CF911F910F910895EF92FF920F9302
:102D60001F93FA01DB0114962C911497243019F06B
:102D7000283001F512C04081518162817381B42FE6
:102D8000A52F9B017A018B01110FEE08FE2C870104
:102D90004E2D5E2D6E2D7E2D08C0B081A181228129
:102DA000338144815581668177810B2F1A2F0E94D0
:102DB000771601C080E01F910F91FF90EF9008956A
:102DC00044E050E00E9495150895BA010E94E01673
:102DD000089548E050E00E9495150895BA010E94B8
:102DE000E91608958F929F92AF92BF92CF92DF9291
:102DF000EF92FF920F931F93E3E0220F331F441FC4
:102E0000551FEA95D1F74B01AA24BB24282939295B
:102E10004A295B2949015A018901950140E050E0A6
:102E200060E070E00E94BA151F910F91FF90EF9043
:102E3000DF90CF90BF90AF909F908F900895FB014F
:102E4000218130E02F7030702230310599F023302D
:102E500031053CF02330310539F0273031059CF441
:102E600006C060E070E008C061E070E005C062E0AC
:102E700070E002C065E070E0208130E040E050E0AA
:102E80000E94F216089580E008952F923F924F928B
:102E90005F926F927F928F929F92AF92BF92CF92EA
:102EA000DF92EF92FF920F931F93DF93CF93CDB7F3
:102EB000DEB762970FB6F894DEBF0FBECDBF2C0110
:102EC000242E352E662E772E1E861D869E012F5FA0
:102ED0003F4F3A8B298B34C1D30111968C911197B6
:102EE00090E0AC014F705070FA01EE0FFF1FE35CF1
:102EF000F74F608171817C876B8712963C911297A6
:102F00006D857E85630F711D260E371E1396EC911D
:102F10001397FF27E7FDF095E20DF31D14963C9102
:102F2000A32FB0E0BE87AD87807F9070803291057F
:102F300081F4D30115968C9190E0AD85BE85A89F54
:102F4000B001A99F700DB89F700D11247E876D8709
:102F500031C080319105D9F0813191051CF4009781
:102F600049F0EAC08032910529F18033910509F0DA
:102F7000E3C0D3C0C201B3010E941F17882309F424
:102F8000E6C0C201B301A101EB85FC85D2C08081FE
:102F9000882309F4D1C0C201B3010E941F178823FE
:102FA00009F4D5C0C201B301A1012B853C85F9010B
:102FB0001995C0C0608171817A8769876115710533
:102FC00009F4BAC04430510524F0410100E010E09A
:102FD0009EC030E040E050E0C20162E070E00E943C
:102FE000F216882309F4B3C0D30111968C9111977E
:102FF00090E08F7090708230910549F4E985FA85F0
:10300000EE0FFF1FEE0FFF1FF88BEF8731C08330ED
:10301000910541F429853A85F3E0220F331FFA9593
:10302000E1F724C0A989BA89E8E01D92EA95E9F799
:10303000410100E010E013C0CE010196B301A401EC
:103040002B853C85F9011995882309F480C0D301AB
:1030500014968C911497880E911C0F5F1F4FE98571
:10306000FA850E171F0740F32F813885388B2F877D
:103070006F857889C2018B0120E030E040E050E0AC
:1030800060E070E00E94BA15882309F460C0D201A4
:103090008D919C911197009721F0410100E010E083
:1030A00019C0C20160E070E04F8558890E949515F3
:1030B00041C0C201B301A401EB85FC8519958823A9
:1030C00009F445C0D30114968C911497880E911C75
:1030D0000F5F1F4FE985FA850E171F0750F32CC0AD
:1030E000C201B3010E941F17882389F1C201B301F5
:1030F000A4012B853C85F9011995882341F1D30161
:1031000014968C911497880E911C0F5F1F4FE985C0
:10311000FA850E171F0720F30FC0D101ED91FC9126
:103120001197309749F012964D915C911397C20117
:10313000B3011995882359F0E8E0F0E06E0E7F1E88
:10314000D3012C91222309F0C7CE81E001C080E099
:1031500062960FB6F894DEBF0FBECDBFCF91DF9160
:103160001F910F91FF90EF90DF90CF90BF90AF90A5
:103170009F908F907F906F905F904F903F902F9097
:1031800008954F925F926F927F928F929F92AF922B
:10319000BF92CF92DF92EF92FF920F931F93CF9344
:1031A000DF93EC012B013A018A0120E030E040E09E
:1031B00050E060E070E00E94BA15882331F0CE0143
:1031C000B201A3010E94951501C080E0DF91CF916B
:1031D0001F910F91FF90EF90DF90CF90BF90AF9035
:1031E0009F908F907F906F905F904F900895FA011D
:1031F00001900020E9F73197E41BF50BBA01AF010C
:103200000E94C1180895FA01BA016E5F7F4F408194
:1032100051810E94C11808952F923F924F925F9260
:103220006F927F928F929F92AF92BF92CF92DF92D6
:10323000EF92FF920F931F93DF93CF93CDB7DEB73B
:103240002C970FB6F894DEBF0FBECDBF3C017A8736
:1032500069875C874B871E010894211C311C88E01C
:10326000F10111928A95E9F7C10169857A854B854B
:103270005C850E944517882309F446C04F80588416
:10328000C301820120E030E040E050E060E070E007
:103290000E94BA158823C1F1F301208131812115E3
:1032A000310539F4C30160E070E0A2010E94951578
:1032B0002CC0F30186819781840D951D4481558131
:1032C0004817590708F13A832983828193819C83A7
:1032D0008B835E824D8218861F82C10169857A8543
:1032E0004B855C850E9445174F815885F3012681E7
:1032F0003781240F351F378326832B813C8133830D
:1033000022834415550509F080E02C960FB6F894F9
:10331000DEBF0FBECDBFCF91DF911F910F91FF9008
:10332000EF90DF90CF90BF90AF909F908F907F9065
:103330006F905F904F903F902F900895FB016681B2
:1033400077816115710519F00E940C19089580E0CC
:103350000895FC01A281B38114962C91149730E05A
:1033600011968C91119790E0807F9070803291053A
:1033700069F415968C91159790E0A901489F9001EA
:10338000499F300D589F300D112407C0009729F434
:1033900086819781019697838683CD0108969383D2
:1033A00082838481958101969583848318968C917C
:1033B0001897882381F48081918193838283158279
:1033C000148217821682808591859387828720E0F8
:1033D00030E080E001C081E0A281B38112969C912F
:1033E0001297A901490F511D22853385240F351FDE
:1033F0003387228713964C911397552747FD509595
:10340000420F531F558744870895CF92DF92EF9262
:10341000FF920F931F93CF93DF937C018A01FC01EE
:10342000C281D3816115710521F0CB01BE010E94DB
:10343000682FC00FD11FF701D383C28381E0DF91D2
:10344000CF911F910F91FF90EF90DF90CF90089553
:103450000F931F93DF93CF93CDB7DEB72E970FB6A1
:10346000F894DEBF0FBECDBFFC019C838B839A8393
:1034700089831E821D8218861F8282819B01280FEC
:10348000311D3C872B878381992787FD9095820F7B
:10349000931F9E878D877A8769878E010F5F1F4FE5
:1034A000EB81FC8180818823A9F1218130E0C90171
:1034B000807F90708031910521F4AD85BE851C928E
:1034C0000BC08032910529F4ED85FE8511821082B2
:1034D00021C080339105F1F0C9018F709070268171
:1034E00037818630910531F46B857C85C9010E9456
:1034F000281A10C08B859C8544812115310529F03F
:10350000B90150E00E94682F05C060E070E050E013
:103510000E94712FC8010E94A919882309F62E96CE
:103520000FB6F894DEBF0FBECDBFCF91DF911F91D4
:103530000F910895CF92DF92EF92FF920F931F9316
:10354000DF93CF93CDB7DEB760970FB6F894DEBFA9
:103550000FBECDBF8C017A016115710529F5DC0123
:103560008D919C911197BAE185309B0779F41CC02D
:10357000C801B60140E150E00E949A1A882309F47C
:1035800047C0E0EFFFEFEE0EFF1E04C06E0108948F
:10359000C11CD11CF1E1EF16F10450F7C801B601CE
:1035A000A7010E949A1A35C0D80114968D919C915A
:1035B00015978E159F0568F416968D919C91179717
:1035C000009731F580E793E017969C938E931697BA
:1035D0001FC0D801ED91FC91C801A701199588235E
:1035E00051F4F80186819781009791F48EE793E07A
:1035F000978386830DC0D80114968D919C91159761
:103600008E199F0915969C938E93149781E001C0A3
:1036100080E060960FB6F894DEBF0FBECDBFCF91AD
:10362000DF911F910F91FF90EF90DF90CF90089561
:10363000DF93CF93CDB7DEB728970FB6F894DEBFF0
:103640000FBECDBF25E03AE13A8329838B839C836B
:103650006D837E833A81AC018F81988528960FB661
:10366000F894DEBF0FBECDBFCF91DF9108958F924A
:103670009F92AF92BF92CF92DF92EF92FF920F9301
:103680001F93DF93CF930F92CDB7DEB75C017B0121
:10369000DB011C9211961C92119712961C921297A4
:1036A00013961C92139714961C92149715961C92BD
:1036B000159716961C92169717961C921797CC245E
:1036C000DD244E010894811C911C4CC01981212FCE
:1036D0002F7730E040E050E060E070E080E090E084
:1036E0000C2D0E94EA01D701EC91E22BEC9311968C
:1036F0002C911197232B11962C93119712962C91A4
:103700001297242B12962C93129713962C911397A1
:10371000252B13962C93139714962C911497262BE4
:1037200014962C93149715962C911597272B159674
:103730002C93159716962C911697282B16962C934A
:10374000169717968C911797892B17968C93179726
:1037500017FF1FC0E7E0F0E0CE0EDF1EF6E4CF1645
:10376000D10449F0C501B40141E050E00E949A1A29
:10377000882309F0ABCFD50116968D919C911797B0
:10378000009749F487E893E017969C938E931697D9
:1037900002C081E001C080E00F90CF91DF911F91C6
:1037A0000F91FF90EF90DF90CF90BF90AF909F90E0
:1037B0008F9008950F931F93DF93CF93CDB7DEB70C
:1037C00028970FB6F894DEBF0FBECDBF8B01BE01A8
:1037D0006F5F7F4F0E94371B29813A814B815C814B
:1037E000F801208331834283538328960FB6F894DF
:1037F000DEBF0FBECDBFCF91DF911F910F91089516
:103800008F929F92AF92BF92CF92DF92EF92FF92F0
:103810000F931F93DF93CF9300D00F92CDB7DEB7F6
:103820008C017B014A01BE016F5F7F4F0E94DA1B52
:10383000882349F1A980BA80CB80DC80A60195015C
:103840002F5F3F4F4F4F5F4FF701848190E0A0E023
:10385000B0E082179307A407B50750F4F8018681FA
:103860009781009781F487E993E0978386830BC063
:10387000C801B401A5010E949A1AE981FA81E80DF4
:10388000F91D108201C080E00F900F900F900F90F3
:10389000CF91DF911F910F91FF90EF90DF90CF902C
:1038A000BF90AF909F908F900895EF92FF920F93EB
:1038B0001F93DF93CF9300D000D0CDB7DEB78C013C
:1038C0007B01BE016F5F7F4F4D835E830E94DA1BD9
:1038D0004D815E818823E9F0BA0149815A81FB015B
:1038E00051834083F701848190E002978417950704
:1038F00050F4F80186819781009759F487EA93E0A4
:103900009783868306C06E5F7F4FC8010E949A1A14
:1039100001C080E026960FB6F894DEBF0FBECDBF83
:10392000CF91DF911F910F91FF90EF900895CF926B
:10393000DF92EF92FF920F931F93DF93CF93CDB758
:10394000DEB728970FB6F894DEBF0FBECDBF7C015F
:103950006B018A01BE016F5F7F4F0E94371BF6012A
:103960009481923071F0933018F4913061F505C074
:10397000943069F0983039F514C09981F80190833A
:103980002CC029813A81F8013183208326C0298106
:103990003A814B815C81F8012083318342835383D8
:1039A0001CC09981F80190839A8191839B819283B5
:1039B0009C8193839D8194839E8195839F8196832F
:1039C000988597830AC0F70186819781009721F433
:1039D00086EB93E09783868380E028960FB6F89471
:1039E000DEBF0FBECDBFCF91DF911F910F91FF9032
:1039F000EF90DF90CF900895EF92FF920F931F9377
:103A0000DF93CF930F92CDB7DEB77C018E010F5FAE
:103A10001F4FC701B80141E050E00E949A1A882365
:103A200029F0898187FDF5CF81E001C080E00F900A
:103A3000CF91DF911F910F91FF90EF9008950F9319
:103A40001F93DF93CF9300D00F92CDB7DEB78C01D9
:103A5000BE016F5F7F4F0E94DA1B882341F04981CE
:103A60005A81C80160E070E00E949A1A01C080E0AB
:103A70000F900F900F900F90CF91DF911F910F91AA
:103A80000895AF92BF92CF92DF92EF92FF920F9381
:103A90001F93DF93CF9300D00F92CDB7DEB76C01A9
:103AA0005B017A018901F9011082FB011182108208
:103AB000FA011082118212821382BE016F5F7F4F62
:103AC0000E94DA1B882331F4F601848195810097E6
:103AD00011F508C089819A81AB81BC810097A1054D
:103AE000B10521F481E0F801808315C09C01AD018E
:103AF00063E056954795379527956A95D1F7F70175
:103B0000208331834283538387709070F5019183C2
:103B1000808381E001C080E00F900F900F900F90A4
:103B2000CF91DF911F910F91FF90EF90DF90CF9099
:103B3000BF90AF9008956130710569F061307105F3
:103B400038F06230710561F06530710599F40BC091
:103B50000E94FC1C089560E070E048E050E007C05F
:103B60000E941F1D089560E070E044E050E00E9454
:103B70009A1A0895FC01268137812115310531F407
:103B800028EC33E03783268380E0089580E00895B1
:103B9000EF92FF920F931F93DF93CF9300D00F927A
:103BA000CDB7DEB78C017B01BE016F5F7F4F0E94F6
:103BB000DA1B882361F1D701F80188E001900D92AA
:103BC0008150E1F789819A81AB81BC81F701248121
:103BD000358140E050E0281739074A075B0750F469
:103BE000F80186819781009791F48AED93E097839D
:103BF00086830DC09C01F70195838483F80184813D
:103C00009581821B930B9583848381E001C080E0C2
:103C10000F900F900F900F90CF91DF911F910F9108
:103C2000FF90EF9008952F923F924F925F926F9284
:103C30007F928F929F92AF92BF92CF92DF92EF923C
:103C4000FF920F931F93DF93CF93CDB7DEB7AF975C
:103C50000FB6F894DEBF0FBECDBF8C011A01FE0176
:103C6000389688E0DF011D928A95E9F77DA36CA361
:103C70007BA36AA31FA21EA219A618A6DB01129697
:103C80008C9112979A01280F311D3DA72CA71396EE
:103C90008C911397992787FD9095820F931F9FA76B
:103CA0008EA75BA74AA790E1692E712C6C0E7D1E32
:103CB00088E1482E512C4C0E5D1E4B018EC1C8016F
:103CC000BE016E5F7F4FAE014C5F5F4F9E012F5F65
:103CD0003F4F0E94411D882331F46401898188236C
:103CE00009F084C1D9C1CC80DD80EE80FF80AEA018
:103CF000BFA06CA17DA1FB01808190E0A0E0B0E0BD
:103D00008C159D05AE05BF0551F0CE0182960E942F
:103D1000A9198EA19FA18A159B0559F7D6C1DB0170
:103D200011964C91119750E0CA01807F90700097D6
:103D3000F1F428A539A520343105CCF4F901B3E01C
:103D4000F595E795BA95E1F7A8E0B0E0AC0FBD1F97
:103D5000EA0FFB1FD901A770B07021E030E002C06C
:103D6000220F331FAA95E2F7A081A22BA0832A81FC
:103D70003B814F705070FA01EE0FFF1FE55BF74F6C
:103D8000C080D1808031910571F0813191051CF4A2
:103D9000009769F014C18032910561F0803391057C
:103DA00009F00DC17EC0EEA5FFA5B1E0B0834CA522
:103DB0005DA573C02230310509F046C0443051057D
:103DC0000CF042C0EEA4FFA4C801B3010E94C81DBC
:103DD0008823E9F460C1FB01248130E0829FF00177
:103DE000839FF00D929FF00D11244CA55DA54E0F01
:103DF0005F1FC301F6011995882309F44CC1D7014F
:103E00008D919C911197019611969C938E932C897C
:103E10003D892115310569F0F701808191816CA1FF
:103E20007DA1DB0115964C91159750E084179507FD
:103E300090F281E02115310509F080E02A893B8963
:103E4000F80133832283C6C0EEA5FFA5ECA4FDA430
:103E5000DB0114962C9114978081918115964C91D9
:103E6000159750E08417950748F0F80186819781EF
:103E7000009709F010C182EF93E0A9C0AC014F5F39
:103E80005F4F5183408330E0829FA001839F500D9C
:103E9000929F500D11244E0D5F1DC801F60119951A
:103EA00099C0CCA4DDA4D6018D919C911197009767
:103EB00019F4C801B9010CC12230310541F5C8011E
:103EC000B3010E94C81D8823C1F4E5C06CA17DA187
:103ED000F601428153810190F081E02DC3011995D3
:103EE000882359F4D80116968D919C9117970097C5
:103EF00009F0D1C081E094E0C2C08C899D8900970F
:103F000029F78A899B89F8019383828366C02130CF
:103F1000310509F12130310520F02530310579F5E1
:103F200024C05201EE24FF240894E11CF11CFBE0A4
:103F3000EF16F10409F4AFC0C801B50141E050E04B
:103F40000E949A1A882309F4A6C0D5018D915D01BB
:103F500087FDEACF20C0C801B20148E050E00E94CE
:103F60009A1AB8E0EB2EF12C13C0C801B20144E05C
:103F700050E00E949A1AA4E0EA2EF12C09C0F80140
:103F800086819781009709F086C088EC93E01FC076
:103F9000882309F480C085E09AE1998B888B5B8A3D
:103FA0004A8AFD8AEC8A6CA17DA1D60112964D91B8
:103FB0005C911397ED91FC91C30119950BC0F80129
:103FC00086819781009709F066C081E194E097832C
:103FD000868361C0882309F45EC0D80114968D9150
:103FE0009C911597009709F06ACE6401DDA2CCA2DE
:103FF000DBA2CAA21FA21EA219A618A6F6018281E0
:104000009101280F311D3DA72CA78381992787FD9A
:104010009095820F931F9FA78EA73BA62AA6F8E034
:10402000EF2EF12CEC0EFD1EE2E2CE2ED12CCC0EAA
:10403000DD1EECA1FDA18181807F31F528A539A588
:10404000203431050CF5F90173E0F595E7957A9583
:10405000E1F7EE0DFF1D808190E02770307002C007
:10406000959587952A95E2F780FD0EC0D8011696A2
:104070008D919C911797009771F484E294E01796C4
:104080009C938E93169707C0C6010E94A919882396
:1040900081F681E001C080E0AF960FB6F894DEBFF4
:1040A0000FBECDBFCF91DF911F910F91FF90EF9089
:1040B000DF90CF90BF90AF909F908F907F906F9048
:1040C0005F904F903F902F9008956A817B81C80147
:1040D0000E949B1D7FCFEF92FF920F931F93CF9370
:1040E000DF937C018B01EA01CB01BA010E94281AFF
:1040F000C701B801AE010E94131EDF91CF911F913D
:104100000F91FF90EF900895AF92BF92CF92DF9200
:10411000EF92FF920F931F93DF93CF93CDB7DEB74C
:104120002A970FB6F894DEBF0FBECDBF7C018B017E
:10413000FB01A680B7806E010894C11CD11CB6019A
:1041400049875A870E94C81D49855A85882319F1D5
:10415000F80186819781009751F4F7018681978154
:104160000097C9F48BE394E09783868314C0F80129
:104170008181807F803229F4C601B5010E946B20C5
:1041800004C0C601B5010E94131E2B813C81F701BA
:104190003383228301C080E02A960FB6F894DEBFF5
:1041A0000FBECDBFCF91DF911F910F91FF90EF9088
:1041B000DF90CF90BF90AF9008956F927F928F92D3
:1041C0009F92AF92BF92CF92DF92EF92FF920F93A6
:1041D000DF93CF93CDB7DEB728970FB6F894DEBF45
:1041E0000FBECDBF7B01BE016F5F7F4F0E94371BAB
:1041F0008823B9F169807A808B809C80AD80BE80F5
:10420000CF80D884C301817090700097C1F0930172
:10421000A401B501C60101E00E9479012095F701D2
:104220002083309531834095428350955383609528
:104230006483709575838095868390950FC09301F4
:10424000A401B501C60101E00E947901F7012083B4
:10425000318342835383648375838683978381E0AC
:1042600001C080E028960FB6F894DEBF0FBECDBF28
:10427000CF91DF910F91FF90EF90DF90CF90BF90A3
:10428000AF909F908F907F906F900895CF92DF9224
:10429000EF92FF920F931F93DF93CF93CDB7DEB7CB
:1042A00028970FB6F894DEBF0FBECDBF7C016B011F
:1042B0008A01BE016F5F7F4F0E94DD20F60194816D
:1042C000943019F09830E9F40AC029813A814B8181
:1042D0005C81F80120833183428353831CC0998120
:1042E000F80190839A8191839B8192839C8193832F
:1042F0009D8194839E8195839F81968398859783E2
:104300000AC0F70186819781009721F486EB93E03C
:104310009783868380E028960FB6F894DEBF0FBEA1
:10432000CDBFCF91DF911F910F91FF90EF90DF9064
:10433000CF90089544E050E00E949A1A0895BA017F
:104340000E949A21089548E050E00E949A1A089528
:10435000BA010E94A321089584E361E00E941D2612
:1043600083E361E00E941D2685E361E00E941D2633
:1043700084E360E00E94412683E360E00E944126DE
:1043800085E361E00E9441268CB580618CBD8CB5CF
:1043900080648CBD0895882319F48CB5806202C0B6
:1043A0008CB58F7D8CBD08959CB5937F982B9CBD5B
:1043B00008952CB5982F93702C7F922B9CBD2DB512
:1043C00090E0959587959595879581702E7F822BA6
:1043D0008DBD08952091DB0F30E08091DA0F281B0E
:1043E0003109C90108958091DA0F9091DB0F891787
:1043F00050F4E82FF0E0E654F04F208130E08F5F7A
:104400008093DA0F02C02FEF3FEFC9010895E091CA
:10441000DA0F8091DB0FE81730F4F0E0E654F04F4C
:10442000208130E002C02FEF3FEFC90108950895C9
:10443000CF93DF939C01CB01E0910110F09102102A
:104440003097D9F05091DA0F4091DB0F5417A8F054
:1044500060E009C0DA01A654B04F420F531FEA01D1
:1044600048814C936F5F462F50E04817590794F3EB
:104470001092DA0F8093DB0F1995DF91CF91089599
:10448000E091FF0FF0910010309729F01092FC0F8F
:104490001092FD0F19950895CF92DF92EF92FF923F
:1044A0000F931F93CF93DF936C01CB01EA0120910F
:1044B000FE0F2223B1F0E62EF92E00E010E00DC031
:1044C000D7016D917D01D601ED91FC910190F081B4
:1044D000E02DC60119950F5F1F4F0C171D0780F3C4
:1044E00003C0642F0E940E23CE01DF91CF911F9154
:1044F0000F91FF90EF90DF90CF900895DF93CF93CF
:104500000F92CDB7DEB769832091FE0F2223D1F041
:104510002091FD0F203240F021E030E0FC01338398
:10452000228320E030E015C08091FC0FE82FF0E0FE
:10453000E452F04F998190838F5F8093FC0F8093BA
:10454000FD0F05C0CE01019661E00E940E2321E01F
:1045500030E0C9010F90CF91DF9108951092DA0FEA
:104560001092DB0F1092FC0F1092FD0F0E94F122AF
:104570000895CF93DF93EC01862F0E940A2380E4F5
:1045800092E20E942D2388E192E20E942823CE012C
:104590000E94AE22DF91CF9108950E94B922089522
:1045A000709302106093011008957093001060934F
:1045B000FF0F0895109206101092051088EE93E0F8
:1045C000A0E0B0E08093071090930810A09309102A
:1045D000B0930A108DE598E0909304108093031037
:1045E00008951092331084E161E00E94412685E134
:1045F00061E00E944126E9EBF0E080818E7F8083BC
:1046000080818D7F808388E48093B80085E48093E7
:10461000BC000895880F8093BA0008956132A0F419
:1046200020913310243091F460935810DC01EBE5B5
:10463000F0E170E06E0F7F1F02C08D918193E6174D
:10464000F707D9F780E0089581E0089582E00895A2
:104650009093561080935510089590935A1080931C
:1046600059100895882311F085EC01C085E88093E6
:10467000BC00089585ED8093BC008091BC0084FD52
:10468000FCCF10923310089585EC8093BC001092FB
:10469000331008951F920F920FB60F920BB60F9220
:1046A00011242F933F934F935F936F937F938F9337
:1046B0009F93AF93BF93EF93FF938091B90090E0E6
:1046C000887F90708036910509F4C2C081369105CB
:1046D000E4F58832910509F47EC089329105C4F46D
:1046E0008031910509F472C08131910544F400973D
:1046F00009F413C18830910509F013C167C08831EE
:10470000910509F468C08032910509F00AC178C0AA
:104710008034910509F48AC0813491054CF48033CA
:10472000910509F46FC08833910509F0FAC06EC095
:104730008035910509F46EC08835910509F47BC078
:104740008834910509F0EDC0EAC08839910509F473
:10475000DAC089399105ECF48837910509F478C0FD
:10476000893791054CF48836910509F471C080377A
:10477000910509F0D6C06CC08838910509F4C3C012
:104780008039910509F46AC08038910509F0C9C0E3
:1047900065C0803B910509F48EC0813B91054CF4C6
:1047A000803A910509F46CC0883A910509F0B9C0C6
:1047B00082C0803C910509F4AAC0883C910509F4A7
:1047C000A6C0883B910509F0ACC08AC080910F104B
:1047D0008093BB0013C09091101080911110981716
:1047E00008F09DC080911010E82FF0E0EE5EFF4EC3
:1047F00090819093BB008F5F8093101081E084C004
:1048000080E201C080E38093321089C088E3809306
:1048100032104EC0809110109091BB00E82FF0E054
:10482000EE5EFF4E90838F5F80931010909110107A
:104830008091111065C0809110109091BB00E82FFD
:10484000F0E0EE5EFF4E90838F5F8093101067C0A4
:1048500083E08093331010923410D0CF80913410C5
:10486000803208F050C0809134109091BB00E82F46
:10487000F0E0EB5CFF4E90838F5F80933410BECFEF
:1048800080913410803230F4E0913410F0E0EB5C31
:10489000FF4E10820E943A2360913410E09155102F
:1048A000F091561085E390E170E019951092341064
:1048B0000E94442336C084E0809333101092571036
:1048C00010925810E0915910F0915A10199580915A
:1048D0005810882329F481E08093581010925B10BF
:1048E00080915710E82FF0E0E55AFF4E90819093A9
:1048F000BB008F5F80935710909157108091581094
:10490000981708F47BCF80E00E9432230AC081E030
:104910000E9432231092331004C0109232100E9471
:104920003A23FF91EF91BF91AF919F918F917F912A
:104930006F915F914F913F912F910F900BBE0F9010
:104940000FBE0F901F9018951F920F920FB60F92E7
:1049500011242F933F938F939F93AF93BF93809195
:104960007F1090918010A0918110B09182103091B1
:1049700083100196A11DB11D232F2D5F2D3720F02F
:104980002D570196A11DB11D2093831080937F1098
:1049900090938010A0938110B093821080917B102F
:1049A00090917C10A0917D10B0917E100196A11D78
:1049B000B11D80937B1090937C10A0937D10B093D9
:1049C0007E10BF91AF919F918F913F912F910F904A
:1049D0000FBE0F901F9018958FB7F89420917F10FD
:1049E0003091801040918110509182108FBFB90199
:1049F000CA0108959FB7F89420917B1030917C10E4
:104A000040917D1050917E1086B5A89B06C08F3FC7
:104A100021F02F5F3F4F4F4F5F4F9FBF542F432FCA
:104A2000322F2227280F311D411D511D82E0220FF8
:104A3000331F441F551F8A95D1F7B901CA01089544
:104A4000EF92FF920F931F93CF93DF937B018C0123
:104A50000E94FA24EB010FC00E94FA246C1B7D0B0C
:104A600083E0683E780738F00894E108F10801090E
:104A70001109C851DC4FE114F1040105110561F77A
:104A8000DF91CF911F910F91FF90EF90089578944F
:104A900084B5826084BD84B5816084BD85B5826043
:104AA00085BD85B5816085BDEEE6F0E080818160E1
:104AB0008083E1E8F0E010828081826080838081E1
:104AC00081608083E0E8F0E0808181608083E1EBB9
:104AD000F0E0808184608083E0EBF0E080818160A1
:104AE0008083E1E9F0E08081826080838081816061
:104AF0008083E0E9F0E0808181608083E1EAF0E09A
:104B0000808182608083808181608083E0EAF0E040
:104B1000808181608083E1E2F1E080818260808336
:104B2000808181608083E0E2F1E080818160808328
:104B3000EAE7F0E080818460808380818260808306
:104B40008081816080838081806880831092C10031
:104B50000895893009F449C08A30A0F4843051F1B5
:104B6000853040F4823079F1833000F5813009F0EE
:104B700063C026C0873079F1883098F5863009F017
:104B80005BC025C08D3009F442C08E3028F48B30D4
:104B9000B1F18C30C0F52DC0803109F442C08131B3
:104BA00009F445C08F3009F047C037C080918000BC
:104BB0008F7703C0809180008F7D8093800008955F
:104BC00084B58F7702C084B58F7D84BD08958091B0
:104BD000B0008F7703C08091B0008F7D8093B000CC
:104BE0000895809190008F7707C0809190008F7D0D
:104BF00003C080919000877F8093900008958091FA
:104C0000A0008F7707C08091A0008F7D03C08091A6
:104C1000A000877F8093A0000895809120018F7766
:104C200003C0809120018F7D8093200108958091A1
:104C30002001877F80932001089590E0FC01E650D9
:104C4000FE4F2491FC01EC54FE4FE491EE23C1F0A1
:104C5000F0E0EE0FFF1FEA59FE4F85919491DC01C1
:104C6000662341F49FB7F8948C91209582238C930E
:104C70009FBF08959FB7F8948C91822B8C939FBF10
:104C800008950F931F93DF93CF930F92CDB7DEB7A5
:104C9000282F30E0F901E05CFD4F8491F901E650E6
:104CA000FE4F14912C543E4FF90104910023D9F08A
:104CB000882321F069830E94A9256981E02FF0E013
:104CC000EE0FFF1FE058FE4F85919491DC019FB7D6
:104CD000F894662321F48C911095812302C08C9165
:104CE000812B8C939FBF0F90CF91DF911F910F91DC
:104CF00008950F931F93282F30E0F901E05CFD4FDA
:104D00008491F901E650FE4F04912C543E4FF90175
:104D10001491112391F0882311F00E94A925E12F0D
:104D2000F0E0EE0FFF1FE656FE4F85919491DC01F7
:104D30008C91802321E030E011F420E030E0C901C3
:104D40001F910F910895863308F0865390917B0050
:104D5000282F26952695269530E02170307043E067
:104D6000220F331F4A95E1F7977F922B90937B0098
:104D70008770909154049295990F990F907C982B7D
:104D800090937C0080917A00806480937A00809177
:104D90007A0086FDFCCF2091780030917900932F26
:104DA00080E030E0282B392BC90108951F93CF9361
:104DB000DF93182FEB0161E00E941D26209709F474
:104DC000C5C0CF3FD10509F4C4C0E12FF0E0E05CDD
:104DD000FD4FE491E93009F466C0EA30B0F4E43004
:104DE000F1F1E53040F4E23059F1E33070F5E130B3
:104DF00009F0A9C020C0E73009F443C0E83008F04A
:104E000048C0E63009F09FC034C0ED3009F473C0EB
:104E1000EE3038F4EB3009F45AC0EC3008F061C0E1
:104E20004CC0E03109F47BC0E13109F482C0EF30BD
:104E300009F089C06AC084B5806884BDC7BD8DC0D3
:104E400084B5806284BDC8BD88C0809180008068C0
:104E500080938000D0938900C09388007EC08091A9
:104E60008000806280938000D0938B00C0938A0082
:104E700074C08091B00080688093B000C093B3008C
:104E80006CC08091B00080628093B000C093B40089
:104E900064C080919000806880939000D0939900C6
:104EA000C09398005AC080919000806280939000D7
:104EB000D0939B00C0939A0050C08091900088606E
:104EC00080939000D0939D00C0939C0046C0809139
:104ED000A00080688093A000D093A900C093A80090
:104EE0003CC08091A00080628093A000D093AB0072
:104EF000C093AA0032C08091A00088608093A00077
:104F0000D093AD00C093AC0028C080912001806890
:104F100080932001D0932901C09328011EC0809165
:104F20002001806280932001D0932B01C0932A013D
:104F300014C080912001886080932001D0932D01BE
:104F4000C0932C010AC0C038D1051CF4812F60E049
:104F500002C0812F61E00E944126DF91CF911F9115
:104F60000895CF92DF92EF92FF920F931F93CF930A
:104F7000DF936C017B018A01C0E0D0E00FC0D70154
:104F80006D917D01D601ED91FC910190F081E02DB4
:104F9000C6011995C80FD91F015010400115110500
:104FA00071F7CE01DF91CF911F910F91FF90EF909C
:104FB000DF90CF900895DB010D900020E9F7AD015F
:104FC00041505040461B570BDC01ED91FC91028093
:104FD000F381E02D199508950E94DB270895DC01E7
:104FE000ED91FC910190F081E02D199508950F93BA
:104FF0001F93CF93DF93EC016DE00E94EF278C01AC
:10500000CE016AE00E94EF27080F191FC801DF9147
:10501000CF911F910F9108950F931F93CF93DF931B
:10502000EC010E94DB278C01CE010E94F727080FBC
:10503000191FC801DF91CF911F910F910895CF9350
:10504000DF930E9447250E944B0CCAE9D9E20E94D7
:1050500048112097E1F30E949A29F9CFFC01848539
:105060009585FC01E05CFF4F208131818E5B9F4F75
:10507000FC0180819181281B390B2F733070C9018D
:105080000895FC0184859585FC01E05CFF4F40811B
:105090005181FC01EE5BFF4F2081318142175307A4
:1050A00041F00190F081E02DE80FF91F208130E000
:1050B00002C02FEF3FEFC9010895FC01848595855B
:1050C000FC01E05CFF4F40815181FC01EE5BFF4F32
:1050D000208131814217530771F0A081B181A80F5F
:1050E000B91F2C918081918101968F73907091836B
:1050F000808330E002C02FEF3FEFC9010895DC014B
:105100001E968D919C911F97FC01E05CFF4F8E5B7A
:105110009F4F40815181DC012D913C9111974217A5
:105120005307B9F708951F93FC01162F268537857D
:10513000D901A05CBF4F8D919C91019660E470E015
:105140000E943D2FD901AE5BBF4F4D915C911197ED
:1051500084179507D1F3D901A05CBF4F0D90BC9186
:10516000A02DA20FB31F1C93A685B785A05CBF4FCF
:1051700011969C938E93A689B7892C9181E090E03B
:10518000058C02C0880F991F0A94E2F7282B2C93F4
:1051900081E090E01F910895FB01E05CFF4F2081CA
:1051A00031812F5F3F4F2F733070DB01AE5BBF4FFC
:1051B0004D915C9111972417350739F0A081B18189
:1051C000A60FB71F8C9331832083089508951F92F3
:1051D0000F920FB60F920BB60F9211242F933F939D
:1051E0004F935F936F937F938F939F93AF93BF93EF
:1051F000EF93FF938091C60064E870E10E94CC2891
:10520000FF91EF91BF91AF919F918F917F916F919E
:105210005F914F913F912F910F900BBE0F900FBE5A
:105220000F901F90189508951F920F920FB60F922E
:105230000BB60F9211242F933F934F935F936F936D
:105240007F938F939F93AF93BF93EF93FF9380913F
:10525000CE006CE071E10E94CC28FF91EF91BF91EC
:10526000AF919F918F917F916F915F914F913F91FE
:105270002F910F900BBE0F900FBE0F901F9018959F
:1052800008951F920F920FB60F920BB60F92112432
:105290002F933F934F935F936F937F938F939F933E
:1052A000AF93BF93EF93FF938091D60064E971E1D0
:1052B0000E94CC28FF91EF91BF91AF919F918F9168
:1052C0007F916F915F914F913F912F910F900BBE06
:1052D0000F900FBE0F901F90189508951F920F9278
:1052E0000FB60F920BB60F9211242F933F934F934B
:1052F0005F936F937F938F939F93AF93BF93EF933E
:10530000FF93809136016CE172E10E94CC28FF91FD
:10531000EF91BF91AF919F918F917F916F915F912D
:105320004F913F912F910F900BBE0F900FBE0F909A
:105330001F90189584EA92E10E942E28009711F0A0
:105340000E94E62883EC92E10E942E28009711F03B
:105350000E94132982EE92E10E942E28009711F0FC
:105360000E94402981E093E10E942E28009711F0CD
:105370000E946D2908951F920F920FB60F920BB6DF
:105380000F9211242F933F935F936F937F938F938B
:105390009F93AF93BF93EF93FF93209108113091A8
:1053A000091180910A1190910B112817390731F4D6
:1053B0008091C1008F7D8093C10016C0E0910A11D9
:1053C000F0910B11E853FF4E208180910A119091CA
:1053D0000B11019660E470E00E943D2F90930B1139
:1053E00080930A112093C600FF91EF91BF91AF9176
:1053F0009F918F917F916F915F913F912F910F902E
:105400000BBE0F900FBE0F901F9018951F920F921A
:105410000FB60F920BB60F9211242F933F935F9309
:105420006F937F938F939F93AF93BF93EF93FF936C
:10543000209190113091911180919211909193113E
:105440002817390731F48091C9008F7D8093C900F6
:1054500016C0E0919211F0919311E05BFE4E208115
:105460008091921190919311019660E470E00E94F6
:105470003D2F90939311809392112093CE00FF9132
:10548000EF91BF91AF919F918F917F916F915F91BC
:105490003F912F910F900BBE0F900FBE0F901F905A
:1054A00018951F920F920FB60F920BB60F92112400
:1054B0002F933F935F936F937F938F939F93AF93BC
:1054C000BF93EF93FF93209118123091191280919E
:1054D0001A1290911B122817390731F48091D100CC
:1054E0008F7D8093D10016C0E0911A12F0911B12AB
:1054F000E852FE4E208180911A1290911B12019663
:1055000060E470E00E943D2F90931B1280931A126A
:105510002093D600FF91EF91BF91AF919F918F9112
:105520007F916F915F913F912F910F900BBE0F90E4
:105530000FBE0F901F9018951F920F920FB60F92EB
:105540000BB60F9211242F933F935F936F937F932A
:105550008F939F93AF93BF93EF93FF932091A012EC
:105560003091A1128091A2129091A31228173907AD
:1055700031F4809131018F7D8093310116C0E0912B
:10558000A212F091A312E05AFD4E20818091A21246
:105590009091A312019660E470E00E943D2F9093D9
:1055A000A3128093A21220933601FF91EF91BF9135
:1055B000AF919F918F917F916F915F913F912F91CB
:1055C0000F900BBE0F900FBE0F901F9018951F935A
:1055D000CF93DF931092A7121092A61288EE93E059
:1055E000A0E0B0E08093A8129093A912A093AA1211
:1055F000B093AB12E6EAF2E12DE638E03293229363
:1056000044E850E15587448748EC50E15787468786
:1056100045EC50E0518B408B44EC50E0538B428B77
:1056200040EC50E0558B448B41EC50E0578B468B5F
:1056300046EC50E0518F408F14E0128F73E0738F6F
:1056400067E0648F55E0558F41E0468F1092C61297
:105650001092C5128093C7129093C812A093C912DA
:10566000B093CA12E5ECF2E132932293CCE0D1E19F
:10567000D587C487C0E5D1E1D787C687CDECD0E018
:10568000D18BC08BCCECD0E0D38BC28BC8ECD0E0FC
:10569000D58BC48BC9ECD0E0D78BC68BCEECD0E0D9
:1056A000D18FC08F128F738F648F558F468F10925A
:1056B000E5121092E4128093E6129093E712A09301
:1056C000E812B093E912E4EEF2E132932293C4E9D6
:1056D000D1E1D587C487C8EDD1E1D787C687C5EDAD
:1056E000D0E0D18BC08BC4EDD0E0D38BC28BC0EDAA
:1056F000D0E0D58BC48BC1EDD0E0D78BC68BC6ED87
:10570000D0E0D18FC08F128F738F648F558F468FEB
:1057100010920413109203138093051390930613B1
:10572000A0930713B0930813E3E0F3E132932293BD
:105730008CE192E19587848780E692E1978786875E
:1057400085E391E0918B808B84E391E0938B828B56
:1057500080E391E0958B848B81E391E0978B868B3E
:1057600086E391E0918F808F128F738F648F558FB6
:10577000468FDF91CF911F9108955058BB27AA27DC
:105780000ED0CBC1BCD130F0C1D120F031F49F3F5D
:1057900011F41EF48CC10EF4E095E7FB82C1E92FF1
:1057A000CDD180F3BA17620773078407950718F005
:1057B00071F49EF5E5C10EF4E0950B2EBA2FA02DE5
:1057C0000B01B90190010C01CA01A0011124FF27AE
:1057D000591B99F0593F50F4503E68F11A16F040A9
:1057E000A22F232F342F4427585FF3CF46953795A8
:1057F0002795A795F0405395C9F77EF41F16BA0B6D
:10580000620B730B840BBAF09150A1F0FF0FBB1F1A
:10581000661F771F881FC2F70EC0BA0F621F731F63
:10582000841F48F4879577956795B795F7959E3FC0
:1058300008F0B3CF9395880F08F09927EE0F97954E
:10584000879508950AD108F481E008950CD065C1C8
:105850005DD140F054D130F021F45F3F19F021C107
:1058600051118FC124C16AD198F39923C9F35523EB
:10587000B1F3951B550BBB27AA2762177307840743
:1058800038F09F5F5F4F220F331F441FAA1FA9F3F9
:1058900033D00E2E3AF0E0E830D091505040E695EB
:1058A000001CCAF729D0FE2F27D0660F771F881F4C
:1058B000BB1F261737074807AB07B0E809F0BB0B3B
:1058C000802DBF01FF2793585F4F2AF09E3F51055F
:1058D00068F0E7C056C15F3FECF3983EDCF3869575
:1058E00077956795B795F7959F5FC9F7880F911DD5
:1058F0009695879597F90895E1E0660F771F881FC1
:10590000BB1F621773078407BA0720F0621B730B73
:10591000840BBA0BEE1F88F7E095089519F40EF08A
:10592000C0C02EC1C4C012D1C8F39638C0F707F862
:105930000F92E8942BE33AEA48EB5FE7EFD10F923E
:105940000F920F924DB75EB70F92A7D1E4EEF0E041
:10595000B1D04F915F91EF91FF91E595EE1FFF1F41
:1059600049F0FE57E0684427EE0F441FFA95E1F72F
:105970004195550B19D10F9007FE0DC1089504D024
:105980006894B111FEC00895E1D088F09F5790F05F
:10599000B92F9927B751A0F0D1F0660F771F881F54
:1059A000991F1AF0BA95C9F712C0B13081F0E8D04A
:1059B000B1E00895E5C0672F782F8827B85F39F0E8
:1059C000B93FCCF3869577956795B395D9F73EF4B3
:1059D00090958095709561957F4F8F4F9F4F08955B
:1059E000E89409C097FB3EF4909580957095619579
:1059F0007F4F8F4F9F4F9923A9F0F92F96E9BB272F
:105A00009395F695879577956795B795F111F8CFAA
:105A1000FAF4BB0F11F460FF1BC06F5F7F4F8F4F15
:105A20009F4F16C0882311F096E911C0772321F00B
:105A30009EE8872F762F05C0662371F096E8862FA3
:105A400070E060E02AF09A95660F771F881FDAF7FA
:105A5000880F9695879597F90895990F0008550F27
:105A6000AA0BE0E8FEEF16161706E807F907C0F0E4
:105A700012161306E407F50798F0621B730B840BEC
:105A8000950B39F40A2661F0232B242B252B21F4C6
:105A900008950A2609F4A140A6958FEF811D811D66
:105AA000089597F99F6780E870E060E008959FEFA0
:105AB00080EC0895DF93CF931F930F93FF92EF92A3
:105AC000DF927B018C01689405C0DA2EEF0124D1AE
:105AD000FE01E894A5912591359145915591AEF33C
