:100000000C9404010C9435010C9435010C943501C9
:100010000C9435010C9435010C9435010C94350188
:100020000C9435010C9435010C9435010C94350178
:100030000C9435010C9435010C9435010C94350168
:100040000C9435010C9435010C9435010C94350158
:100050000C9435010C9435010C9435010C94FD156C
:100060000C9435010C9482190C94561A0C94350199
:100070000C9435010C9435010C9435010C94350128
:100080000C9435010C9435010C9435010C94350118
:100090000C94AF190C94A11A0C9435010C94A31470
:1000A0000C9435010C9435010C9435010C943501F8
:1000B0000C9435010C9435010C9435010C943501E8
:1000C0000C9435010C9435010C9435010C94DC1919
:1000D0000C94EC1A0C9435010C94091A0C94371BEF
:1000E0000C94350100002100240027002A002D0077
:1000F0003000330001010000040107010A01000083
:100100002200250028002B002E00310034000201BF
:100110000000050108010B0100002000230026005B
:1001200029002C002F00320000010000030106010D
:10013000090105050505070508080808020202026D
:100140000A0A080804040404010101010101010173
:100150000303030303030303040707070C0C0C0C3E
:100160000C0C0C0C02020202060606060606060627
:100170000B0B0B0B0B0B0B0B0102102020080810B4
:100180002040102040800201020108040201010207
:1001900004081020408080402010080402018004E0
:1001A000020180402010080402010804020101023B
:1001B0000408102040800102040810204080000044
:1001C000090A02080B0C0D070603040100000000D9
:1001D000000000000000000000000000000000001F
:1001E0000000000000000000000011100F000000DF
:1001F00000000000000000000000000000000000FF
:1002000000000000CB13001C11241FBECFEFD1E271
:10021000DEBFCDBF00E00CBF17E0A0E0B2E0E4E736
:10022000FDE300E00BBF02C007900D92AE39B107AD
:10023000D9F71EE0AEE9B7E001C01D92A530B107C5
:10024000E1F712E0C8E0D2E000E006C02297010921
:10025000FE010BBF0E94A41EC430D10780E0080736
:10026000A9F70E94BA180C94B81E0C9400000F93C2
:10027000DF93CF93CDB7DEB760970FB6F894DEBFAC
:100280000FBECDBF002309F459C029833A834B83A5
:100290005C836D837E838F839887E0E2E01B2D81F2
:1002A0003E814F8158851E16BCF01D861E861F8616
:1002B000188A8E2F992787FD9095909581959F4F4D
:1002C00004C056954795379527958A95D2F7298783
:1002D0003A874B875C872AC0CA01B901002E04C047
:1002E00096958795779567950A94D2F76D877E875F
:1002F0008F87988BDA01C90104C0880F991FAA1F44
:10030000BB1FEA95D2F729813A814B815C8104C0F9
:1003100056954795379527950A95D2F7822B932BBB
:10032000A42BB52B89879A87AB87BC8729853A850B
:100330004B855C856D857E858F85988960960FB627
:10034000F894DEBF0FBECDBFCF91DF910F9108951E
:100350000F93DF93CF93CDB7DEB760970FB6F894C6
:10036000DEBF0FBECDBF002309F459C029833A83F5
:100370004B835C836D837E838F839887E0E2E01BF1
:1003800029813A814B815C811E16BCF019861A8640
:100390001B861C868E2F992787FD909590958195B9
:1003A0009F4F04C0220F331F441F551F8A95D2F759
:1003B0002D873E874F87588B2AC0CA01B901002E6E
:1003C00004C0660F771F881F991F0A94D2F76987A8
:1003D0007A878B879C87DA01C90104C0B695A795F7
:1003E00097958795EA95D2F72D813E814F81588563
:1003F00004C0220F331F441F551F0A95D2F7822BCA
:10040000932BA42BB52B8D879E87AF87B88B29851F
:100410003A854B855C856D857E858F85988960964C
:100420000FB6F894DEBF0FBECDBFCF91DF910F9115
:100430000895EF92FF921F93DF93CF930F920F9245
:10044000CDB7DEB7282F162F88EEE82E8AE0F82EDB
:10045000C701622F4A8359830E94AE13612F660F32
:100460006865C7010E9466135981652F6058C701EE
:100470000E946613C7014A81642F0E946613C70158
:100480000E94BB1364E670E080E090E00E946B166F
:100490000F900F90CF91DF911F91FF90EF900895F3
:1004A00081E660E04CE154E00E94190281E661E0DF
:1004B0004CE154E00E94190281E662E04FEF5FE0F8
:1004C0000E94190283E660E04FEF54E00E94190297
:1004D00083E661E04FEF54E00E94190208951F93F4
:1004E000CF93DF93182FC8EEDAE0CE016FE270E011
:1004F0000E94B813CE0160E00E946613612F6095E0
:10050000CE010E946613CE010E94BB13DF91CF91F2
:100510001F9108950F931F93CF93DF9320E030E056
:1005200040EA50E40E94D61C20E030EF4FE755E44B
:100530000E94F81D0E943E1D8B01C8EEDAE0CE013C
:1005400060E670E00E94B813CE0160E60E94661378
:10055000B80194E0769567959A95E1F7CE010E94EF
:100560006613602F6295607FCE010E946613CE01F4
:100570000E94BB13DF91CF911F910F9108950E94AC
:100580006A1D20E030E048EC51E40E94D61C0E9435
:100590008A02089588EE9AE00E9496130E94500203
:1005A00089E89DE040E052EC61E070E00E94821B2F
:1005B00060E070E0CB010E948A0280E00E946F023E
:1005C00008950F931F93DF93CF93CDB7DEB7609756
:1005D0000FB6F894DEBF0FBECDBF8C018EED97E055
:1005E00020E4FC0111922A95E9F760E470E00E9492
:1005F000CE0629873A874B875C876D877E878F87F2
:10060000988BDE011196FE01399688E001900D92DB
:100610008150E1F7CE0101966AE773E0A8010E94DC
:100620009F08882349F04F81588589E89DE06EED49
:1006300077E00E94D31706C089E89DE060E072E091
:100640000E942B1860960FB6F894DEBF0FBECDBF88
:10065000CF91DF911F910F9108950F931F93DF9317
:10066000CF93CDB7DEB760970FB6F894DEBF0FBE5D
:10067000CDBF8A010E94720C29873A874B875C871D
:100680006D877E878F87988BDE011196FE013996E4
:1006900088E001900D928150E1F7CE0101966AE762
:1006A00073E0A8010E94C51160960FB6F894DEBFF2
:1006B0000FBECDBFCF91DF911F910F910895AF92E3
:1006C000BF92CF92DF92EF92FF920F931F93DF932F
:1006D000CF93CDB7DEB760970FB6F894DEBF0FBEED
:1006E000CDBFC82E7B015A018EEB97E020E2FC01C2
:1006F00011922A95E9F760E270E00E94CE06298700
:100700003A874B875C876D877E878F87988BDE0162
:100710001196FE01399688E001900D928150E1F723
:10072000CE0101966AE773E0A7010E949F08882323
:1007300009F45FC088EE9AE06C2D0E94AE134F81E1
:10074000588588EE9AE06EEB77E00E94341388EECD
:100750009AE00E94BB1365E070E080E090E00E94A8
:100760006B1688EE9AE06C2D42E40E94A11365E0BE
:1007700070E080E090E00E946B162EE9C22E27E028
:10078000D22EEE24FF24870188EE9AE00E94061301
:10079000009799F0F1E2EF16F1040105110521F13E
:1007A00088EE9AE00E940F13F60181936F0108947E
:1007B000E11CF11C011D111DE7CFF1E2EF16F10460
:1007C0000105110588F4F701E256F84F10828EE911
:1007D00097E0B701A5010E942D03882381F489E8E1
:1007E0009DE069E172E009C089E89DE061E372E0A3
:1007F00004C089E89DE061E672E00E942B186096D3
:100800000FB6F894DEBF0FBECDBFCF91DF911F9121
:100810000F91FF90EF90DF90CF90BF90AF90089531
:10082000CF93DF93DC01FB01BA018D919C9111976D
:100830008130910509F0DBC012968C9112978823C4
:1008400009F4D5C013968D919C911497853091052C
:1008500009F48CC086309105A4F48230910539F1F9
:10086000833091052CF48130910509F0BEC018C089
:100870008330910509F443C08430910509F0B5C077
:100880006EC08730910549F187309105CCF08930F1
:10089000910509F497C08A30910509F0A6C026C0D9
:1008A00022E0EA01288321E0268B218F06C022E086
:1008B000EA01288321E0268B268F908F878B8FC0BB
:1008C00082E0EA01888321E0268BCF01885A9F4F7E
:1008D000EC01288386E090E07FC022E0EA012883D3
:1008E00041E0468B9F012B593F4F74C022E0EA0143
:1008F000288341E0468B9F0127563F4F6BC021E084
:10090000268B23A7908F878B15968C91159788231C
:1009100009F46FC016968D919C91179781309105BF
:10092000B9F495A784A783E090E0A0E0B0E086A7A3
:1009300097A7A0ABB1AB85E090E0A0E0B0E082ABC0
:1009400093ABA4ABB5AB16AA17AA10AE11AE51C0AB
:10095000EA018883BD01AF010E945F034AC023E022
:10096000EA01288321E0268B22AFA7CF21E0268B46
:10097000EF01CD5ADF4F2883908F878B1F968C9184
:100980001F978823B1F152968D919D910D90BC9146
:10099000A02DEF01CC5ADF4F80319105A105B105A3
:1009A00060F48A5C0E94A017AA2797FDA095BA2F31
:1009B00088839983AA83BB831CC0188219821A82F8
:1009C0001B8217C022E0EA01288341E0468B9F0189
:1009D0002C563F4FE9014883908F878BEB0188812C
:1009E000BD01AF010E945F0305C0FB01108280E0E2
:1009F00001C081E0DF91CF9108958F929F92AF92D5
:100A0000BF92CF92DF92EF92FF920F931F93DF93EB
:100A1000CF930F92CDB7DEB78C017B011982FC0119
:100A20008081918152EAC52ED12CC60ED71E43EA91
:100A3000A42EB12CA60EB71E35EA832E912C860E5D
:100A4000971E88309105A1F189309105BCF485305D
:100A5000910561F1863091054CF48130910509F4DE
:100A600045C08430910509F074C020C086309105DE
:100A7000E9F08730910509F06CC018C08B30910502
:100A800031F18C30910544F489309105F1F08A30D0
:100A9000910509F05EC019C08D30910501F18D30CE
:100AA000910524F08131910509F053C082E010C016
:100AB00082E08983F801E153FF4F60817181828177
:100AC00093810E94BF02898104C083E001C084E059
:100AD0008983B801A7010E945F0390E00EC0F8016E
:100AE000ED5FFE4F80810E946F0221C0C801AE0100
:100AF0004F5F5F4F0E94100491E0882351F19923CA
:100B0000B1F022E030E0F70131832083EE55FF4F52
:100B100091E09083F701ED55FF4F21E030E0318304
:100B20002083F701EB55FF4F3183208325C081E0FF
:100B3000F601808383E090E0F7019183808381E078
:100B400090E0F50191838083F4019183808381E0BB
:100B500013C081E0F601808383E090E0F701918388
:100B6000808382E090E0F5019183808384E090E0CF
:100B7000F4019183808380E00F90CF91DF911F91EA
:100B80000F91FF90EF90DF90CF90BF90AF909F902C
:100B90008F9008956F927F928F929F92AF92BF92A3
:100BA000CF92DF92EF92FF920F931F93CF93DF9339
:100BB000EC013B0149015A0180E4DE011D928A9556
:100BC000E9F789E89DE00E94C9180097D1F36E010A
:100BD000EE24FF24870189E89DE00E94C9181816B9
:100BE0001906F4F4BFE3EB16F10401051105C1F099
:100BF000E814F9040A051B0598F489E89DE00E94B1
:100C0000F818F60181936F010894E11CF11C011D95
:100C1000111D65E070E080E090E00E946B16DBCF74
:100C2000CE0DDF1D1882D301ED92FD920D931C9322
:100C30001397DF91CF911F910F91FF90EF90DF906D
:100C4000CF90BF90AF909F908F907F906F900895BE
:100C5000EF92FF920F931F93DF93CF93CDB7DEB741
:100C6000C454D0400FB6F894DEBF0FBECDBF7C0198
:100C700019821A821B821C828E010B5F1F4FC801D2
:100C8000BE016F5F7F4F20E430E040E050E00E9403
:100C9000CA0529813A814B815C81DA01C90101973A
:100CA000A109B10980349105A105B10588F089E851
:100CB0009DE06EE672E00E942B1849815A816B819B
:100CC0007C8189E89DE02AE030E00E94A71811C0ED
:100CD000203431054105510531F0C801B901A701A2
:100CE0000E942D0307C089E89DE067E872E00E943A
:100CF0002B1880E0CC5BDF4F0FB6F894DEBF0FBE41
:100D0000CDBFCF91DF911F910F91FF90EF9008958C
:100D10000F931F93CF93DF9300E619E082E491E0F5
:100D2000F8019C01119221503040E1F7CEE1D8E06A
:100D3000FE019C01119221503040E1F7C8010E9450
:100D40002806882339F0C801BE010E94FD04CE01A7
:100D50000E94E102DF91CF911F910F910895CF92F0
:100D6000DF92EF92FF920F931F93CF93DF937C015B
:100D70008A01FC01C281D381CE010E94A81EC00F4E
:100D8000D11FF701D383C28381E0DF91CF911F91FF
:100D90000F91FF90EF90DF90CF900895DF93CF9366
:100DA000CDB7DEB728970FB6F894DEBF0FBECDBF24
:100DB0002FEA36E03A8329838B839C836D837E837D
:100DC00018861F823A81AC0180E0988528960FB67C
:100DD000F894DEBF0FBECDBFCF91DF9108950F9382
:100DE0001F93CF93DF93EC018A01E881F98130975B
:100DF00069F08E819F81840F951F2C813D8128177A
:100E0000390760F0CE011995882341F08E819F81CA
:100E1000800F911F9F838E8381E001C080E0DF916E
:100E2000CF911F910F910895AF92BF92CF92DF9211
:100E3000EF92FF920F931F93DF93CF93CDB7DEB75F
:100E400062970FB6F894DEBF0FBECDBF6C01E02FE6
:100E50000B87F12F1C87A22F2D87B32F3E87E42EFF
:100E60004F87A52E588B862F698B972F7A8B9F01E2
:100E7000AD016E2D7A2DE32BE42BE52BEE29EA292B
:100E8000E82BE92B39F05E010894A11CB11CEE247B
:100E9000FF2412C0C601BE01655F7F4F41E050E0F4
:100EA00027C0E22FE068D501ED935D0107E00E94C5
:100EB00037010894E11CF11CE22FE32BE42BE52B16
:100EC000E62BE72BE82BE92B61F72B873C874D8737
:100ED0005E876F87788B898B9A8BFE01EE0DFF1DE5
:100EE00080818F778083C601BE016F5F7F4FA7012E
:100EF0000E94EF0662960FB6F894DEBF0FBECDBF1C
:100F0000CF91DF911F910F91FF90EF90DF90CF90E5
:100F1000BF90AF9008958F929F92AF92BF92CF9261
:100F2000DF92EF92FF920F931F93FA01DB01149669
:100F30002C911497223069F0233018F4213029F5D0
:100F400005C0243071F0283001F510C0808099244C
:100F500002C080809180AA24BB24CC24DD247601A9
:100F60000DC080809180A280B380F7CF8080918077
:100F7000A280B380C480D580E680F780840195018B
:100F8000A601B7010E94140701C080E01F910F91D4
:100F9000FF90EF90DF90CF90BF90AF909F908F9099
:100FA00008950F931F93CF93DF93EC01B22FA32FDC
:100FB000F42FE52FCB0197FD0BC098014B2F5A2F33
:100FC0006F2F7E2F01E00E94A801F82FE92F12C099
:100FD00098014B2F5A2F6F2F7E2F01E00E94A801FE
:100FE000209530954095509560957095F82FF09527
:100FF000E92FE095CE0189019A01AB016F2F7E2F79
:101000000E941407DF91CF911F910F910895EF92E5
:10101000FF920F931F93FA01DB0114962C91149702
:10102000243019F0283001F512C0408151816281CD
:101030007381B42FA52F9B017A018B01110FEE084C
:10104000FE2C87014E2D5E2D6E2D7E2D08C0B081A9
:10105000A1812281338144815581668177810B2F63
:101060001A2F0E94D10701C080E01F910F91FF90BD
:10107000EF90089544E050E00E94EF060895BA0111
:101080000E943A08089548E050E00E94EF06089553
:10109000BA010E94430808958F929F92AF92BF9227
:1010A000CF92DF92EF92FF920F931F93E3E0220F14
:1010B000331F441F551FEA95D1F74B01AA24BB24C7
:1010C000282939294A295B2949015A0189019501B1
:1010D00040E050E060E070E00E9414071F910F9123
:1010E000FF90EF90DF90CF90BF90AF909F908F9048
:1010F0000895FB01218130E02F70307022303105DE
:1011000099F0233031053CF02330310539F0273098
:1011100031059CF406C060E070E008C061E070E05A
:1011200005C062E070E002C065E070E0208130E060
:1011300040E050E00E944C08089580E008952F920E
:101140003F924F925F926F927F928F929F92AF9257
:10115000BF92CF92DF92EF92FF920F931F93DF9394
:10116000CF93CDB7DEB762970FB6F894DEBF0FBE50
:10117000CDBF2C01242E352E662E772E1E861D8681
:101180009E012F5F3F4F3A8B298B34C1D3011196BB
:101190008C91119790E0AC014F705070FA01EE0FF6
:1011A000FF1FEE59F84F608171817C876B87129623
:1011B0003C9112976D857E85630F711D260E371E3B
:1011C0001396EC911397FF27E7FDF095E20DF31DC1
:1011D00014963C91A32FB0E0BE87AD87807F9070BE
:1011E0008032910581F4D30115968C9190E0AD8504
:1011F000BE85A89FB001A99F700DB89F700D1124E6
:101200007E876D8731C080319105D9F0813191059C
:101210001CF4009749F0EAC08032910529F180332F
:10122000910509F0E3C0D3C0C201B3010E9479085F
:10123000882309F4E6C0C201B301A101EB85FC8556
:10124000D2C08081882309F4D1C0C201B3010E94B9
:101250007908882309F4D5C0C201B301A1012B8507
:101260003C85F9011995C0C0608171817A876987D1
:101270006115710509F4BAC04430510524F04101EB
:1012800000E010E09EC030E040E050E0C20162E0CB
:1012900070E00E944C08882309F4B3C0D301119672
:1012A0008C91119790E08F7090708230910549F485
:1012B000E985FA85EE0FFF1FEE0FFF1FF88BEF8712
:1012C00031C08330910541F429853A85F3E0220F3E
:1012D000331FFA95E1F724C0A989BA89E8E01D9285
:1012E000EA95E9F7410100E010E013C0CE01019654
:1012F000B301A4012B853C85F9011995882309F4D4
:1013000080C0D30114968C911497880E911C0F5FA6
:101310001F4FE985FA850E171F0740F32F81388587
:10132000388B2F876F857889C2018B0120E030E0F0
:1013300040E050E060E070E00E941407882309F468
:1013400060C0D2018D919C911197009721F04101CD
:1013500000E010E019C0C20160E070E04F855889DC
:101360000E94EF0641C0C201B301A401EB85FC85D8
:101370001995882309F445C0D30114968C911497CC
:10138000880E911C0F5F1F4FE985FA850E171F0706
:1013900050F32CC0C201B3010E947908882389F15F
:1013A000C201B301A4012B853C85F901199588235D
:1013B00041F1D30114968C911497880E911C0F5F04
:1013C0001F4FE985FA850E171F0720F30FC0D101C3
:1013D000ED91FC911197309749F012964D915C91E7
:1013E0001397C201B3011995882359F0E8E0F0E0A2
:1013F0006E0E7F1ED3012C91222309F0C7CE81E00F
:1014000001C080E062960FB6F894DEBF0FBECDBF7C
:10141000CF91DF911F910F91FF90EF90DF90CF90D0
:10142000BF90AF909F908F907F906F905F904F9004
:101430003F902F9008954F925F926F927F928F927C
:101440009F92AF92BF92CF92DF92EF92FF920F9353
:101450001F93CF93DF93EC012B013A018A0120E027
:1014600030E040E050E060E070E00E941407882324
:1014700031F0CE01B201A3010E94EF0601C080E06D
:10148000DF91CF911F910F91FF90EF90DF90CF9060
:10149000BF90AF909F908F907F906F905F904F9094
:1014A0000895FA0101900020E9F73197E41BF50B4C
:1014B000BA01AF010E941B0A0895FA01BA016E5FDA
:1014C0007F4F408151810E941B0A08952F923F92C5
:1014D0004F925F926F927F928F929F92AF92BF9244
:1014E000CF92DF92EF92FF920F931F93DF93CF93F0
:1014F000CDB7DEB72C970FB6F894DEBF0FBECDBFC9
:101500003C017A8769875C874B871E010894211C00
:10151000311C88E0F10111928A95E9F7C1016985D2
:101520007A854B855C850E949F08882309F446C014
:101530004F805884C301820120E030E040E050E059
:1015400060E070E00E9414078823C1F1F30120815C
:1015500031812115310539F4C30160E070E0A20149
:101560000E94EF062CC0F30186819781840D951DA2
:10157000448155814817590708F13A8329838281AC
:1015800093819C838B835E824D8218861F82C1016A
:1015900069857A854B855C850E949F084F815885B7
:1015A000F30126813781240F351F378326832B8152
:1015B0003C81338322834415550509F080E02C9645
:1015C0000FB6F894DEBF0FBECDBFCF91DF911F9154
:1015D0000F91FF90EF90DF90CF90BF90AF909F90D2
:1015E0008F907F906F905F904F903F902F900895D5
:1015F000FB01668177816115710519F00E94660A09
:10160000089580E00895FC01A281B38114962C9185
:10161000149730E011968C91119790E0807F907034
:101620008032910569F415968C91159790E0A90187
:10163000489F9001499F300D589F300D112407C0DD
:10164000009729F486819781019697838683CD013F
:101650000896938382838481958101969583848300
:1016600018968C911897882381F4808191819383B7
:1016700082831582148217821682808591859387D2
:10168000828720E030E080E001C081E0A281B38168
:1016900012969C911297A901490F511D22853385FD
:1016A000240F351F3387228713964C9113975527A4
:1016B00047FD5095420F531F558744870895CF9299
:1016C000DF92EF92FF920F931F93CF93DF937C01F2
:1016D0008A01FC01C281D3816115710521F0CB0122
:1016E000BE010E94A81EC00FD11FF701D383C28381
:1016F00081E0DF91CF911F910F91FF90EF90DF90EC
:10170000CF9008950F931F93DF93CF93CDB7DEB79C
:101710002E970FB6F894DEBF0FBECDBFFC019C83A1
:101720008B839A8389831E821D8218861F82828101
:101730009B01280F311D3C872B878381992787FDCB
:101740009095820F931F9E878D877A8769878E0178
:101750000F5F1F4FEB81FC8180818823A9F12181DC
:1017600030E0C901807F90708031910521F4AD8512
:10177000BE851C920BC08032910529F4ED85FE8553
:101780001182108221C080339105F1F0C9018F7060
:101790009070268137818630910531F46B857C8588
:1017A000C9010E94820B10C08B859C854481211544
:1017B000310529F0B90150E00E94A81E05C060E083
:1017C00070E050E00E94B11EC8010E94030B882304
:1017D00009F62E960FB6F894DEBF0FBECDBFCF919F
:1017E000DF911F910F910895CF92DF92EF92FF92B8
:1017F0000F931F93DF93CF93CDB7DEB760970FB6EC
:10180000F894DEBF0FBECDBF8C017A016115710562
:1018100029F5DC018D919C911197BBE08F359B07D9
:1018200079F41CC0C801B60140E150E00E94F40BFD
:10183000882309F447C0E0EFFFEFEE0EFF1E04C05F
:101840006E010894C11CD11CF1E1EF16F10450F7B0
:10185000C801B601A7010E94F40B35C0D801149647
:101860008D919C9115978E159F0568F416968D9114
:101870009C911797009731F585E992E017969C9314
:101880008E9316971FC0D801ED91FC91C801A70156
:101890001995882351F4F80186819781009791F476
:1018A00083EA92E0978386830DC0D80114968D91C8
:1018B0009C9115978E199F0915969C938E9314975A
:1018C00081E001C080E060960FB6F894DEBF0FBEE5
:1018D000CDBFCF91DF911F910F91FF90EF90DF90DF
:1018E000CF900895DF93CF93CDB7DEB728970FB68B
:1018F000F894DEBF0FBECDBF2FE53BE03A832983CE
:101900008B839C836D837E833A81AC018F81988524
:1019100028960FB6F894DEBF0FBECDBFCF91DF91F2
:1019200008958F929F92AF92BF92CF92DF92EF92E3
:10193000FF920F931F93DF93CF930F92CDB7DEB734
:101940005C017B01DB011C9211961C92119712968F
:101950001C92129713961C92139714961C9214972C
:1019600015961C92159716961C92169717961C9210
:101970001797CC24DD244E010894811C911C4CC087
:101980001981212F2F7730E040E050E060E070E0D7
:1019900080E090E00C2D0E94A801D701EC91E22B91
:1019A000EC9311962C911197232B11962C93119750
:1019B00012962C911297242B12962C931297139611
:1019C0002C911397252B13962C93139714962C91E7
:1019D0001497262B14962C93149715962C911597E3
:1019E000272B15962C93159716962C911697282B26
:1019F00016962C93169717968C911797892B1796F6
:101A00008C93179717FF1FC0E7E0F0E0CE0EDF1EA4
:101A1000F6E4CF16D10449F0C501B40141E050E02D
:101A20000E94F40B882309F0ABCFD50116968D9157
:101A30009C911797009749F48CEA92E017969C9333
:101A40008E93169702C081E001C080E00F90CF9185
:101A5000DF911F910F91FF90EF90DF90CF90BF909B
:101A6000AF909F908F9008950F931F93DF93CF9324
:101A7000CDB7DEB728970FB6F894DEBF0FBECDBF47
:101A80008B01BE016F5F7F4F0E94910C29813A81CB
:101A90004B815C81F80120833183428353832896F4
:101AA0000FB6F894DEBF0FBECDBFCF91DF911F916F
:101AB0000F9108958F929F92AF92BF92CF92DF9233
:101AC000EF92FF920F931F93DF93CF9300D00F926B
:101AD000CDB7DEB78C017B014A01BE016F5F7F4F3E
:101AE0000E94340D882349F1A980BA80CB80DC8024
:101AF000A60195012F5F3F4F4F4F5F4FF701848144
:101B000090E0A0E0B0E082179307A407B50750F477
:101B1000F80186819781009781F48CEB92E097839E
:101B200086830BC0C801B401A5010E94F40BE981B2
:101B3000FA81E80DF91D108201C080E00F900F902E
:101B40000F900F90CF91DF911F910F91FF90EF9029
:101B5000DF90CF90BF90AF909F908F900895EF92BD
:101B6000FF920F931F93DF93CF9300D000D0CDB798
:101B7000DEB78C017B01BE016F5F7F4F4D835E83BB
:101B80000E94340D4D815E818823E9F0BA014981BC
:101B90005A81FB0151834083F701848190E00297D1
:101BA0008417950750F4F80186819781009759F4BE
:101BB0008CEC92E09783868306C06E5F7F4FC801EE
:101BC0000E94F40B01C080E026960FB6F894DEBFA9
:101BD0000FBECDBFCF91DF911F910F91FF90EF907E
:101BE0000895CF92DF92EF92FF920F931F93DF93AE
:101BF000CF93CDB7DEB728970FB6F894DEBF0FBEF0
:101C0000CDBF7C016B018A01BE016F5F7F4F0E94D7
:101C1000910CF6019481923071F0933018F4913068
:101C200061F505C0943069F0983039F514C0998198
:101C3000F80190832CC029813A81F80131832083F7
:101C400026C029813A814B815C81F8012083318350
:101C5000428353831CC09981F80190839A819183B8
:101C60009B8192839C8193839D8194839E819583A4
:101C70009F819683988597830AC0F7018681978113
:101C8000009721F48BED92E09783868380E028967D
:101C90000FB6F894DEBF0FBECDBFCF91DF911F917D
:101CA0000F91FF90EF90DF90CF900895EF92FF9209
:101CB0000F931F93DF93CF930F92CDB7DEB77C01C5
:101CC0008E010F5F1F4FC701B80141E050E00E9435
:101CD000F40B882329F0898187FDF5CF81E001C0CD
:101CE00080E00F90CF91DF911F910F91FF90EF90C7
:101CF00008950F931F93DF93CF9300D00F92CDB72A
:101D0000DEB78C01BE016F5F7F4F0E94340D8823C8
:101D100041F049815A81C80160E070E00E94F40BF3
:101D200001C080E00F900F900F900F90CF91DF9146
:101D30001F910F910895AF92BF92CF92DF92EF92D1
:101D4000FF920F931F93DF93CF9300D00F92CDB7E5
:101D5000DEB76C015B017A018901F9011082FB0198
:101D600011821082FA011082118212821382BE0146
:101D70006F5F7F4F0E94340D882331F4F601848118
:101D80009581009711F508C089819A81AB81BC814A
:101D90000097A105B10521F481E0F801808315C009
:101DA0009C01AD0163E056954795379527956A9557
:101DB000D1F7F7012083318342835383877090707A
:101DC000F5019183808381E001C080E00F900F9046
:101DD0000F900F90CF91DF911F910F91FF90EF9097
:101DE000DF90CF90BF90AF9008956130710569F09A
:101DF0006130710538F06230710561F06530710550
:101E000099F40BC00E94560E089560E070E048E01F
:101E100050E007C00E94790E089560E070E044E051
:101E200050E00E94F40B0895FC01268137812115B2
:101E3000310531F42DEE32E03783268380E00895BA
:101E400080E00895EF92FF920F931F93DF93CF935B
:101E500000D00F92CDB7DEB78C017B01BE016F5F62
:101E60007F4F0E94340D882361F1D701F80188E08B
:101E700001900D928150E1F789819A81AB81BC81FB
:101E8000F7012481358140E050E0281739074A07DF
:101E90005B0750F4F80186819781009791F48FEFEA
:101EA00092E0978386830DC09C01F701958384831C
:101EB000F80184819581821B930B9583848381E053
:101EC00001C080E00F900F900F900F90CF91DF91A5
:101ED0001F910F91FF90EF9008952F923F924F9294
:101EE0005F926F927F928F929F92AF92BF92CF92AA
:101EF000DF92EF92FF920F931F93DF93CF93CDB7B3
:101F0000DEB7AF970FB6F894DEBF0FBECDBF8C0122
:101F10001A01FE01389688E0DF011D928A95E9F7E3
:101F20007DA36CA37BA36AA31FA21EA219A618A659
:101F3000DB0112968C9112979A01280F311D3DA753
:101F40002CA713968C911397992787FD9095820F54
:101F5000931F9FA78EA75BA74AA790E1692E712CBC
:101F60006C0E7D1E88E1482E512C4C0E5D1E4B01DF
:101F70008EC1C801BE016E5F7F4FAE014C5F5F4FE7
:101F80009E012F5F3F4F0E949B0E882331F4640116
:101F90008981882309F084C1D9C1CC80DD80EE809D
:101FA000FF80AEA0BFA06CA17DA1FB01808190E06D
:101FB000A0E0B0E08C159D05AE05BF0551F0CE0147
:101FC00082960E94030B8EA19FA18A159B0559F74B
:101FD000D6C1DB0111964C91119750E0CA01807F68
:101FE00090700097F1F428A539A520343105CCF480
:101FF000F901B3E0F595E795BA95E1F7A8E0B0E00F
:10200000AC0FBD1FEA0FFB1FD901A770B07021E014
:1020100030E002C0220F331FAA95E2F7A081A22B65
:10202000A0832A813B814F705070FA01EE0FFF1F91
:10203000E059F84FC080D1808031910571F0813135
:1020400091051CF4009769F014C18032910561F08C
:102050008033910509F00DC17EC0EEA5FFA5B1E06A
:10206000B0834CA55DA573C02230310509F046C090
:10207000443051050CF042C0EEA4FFA4C801B301E6
:102080000E94220F8823E9F460C1FB01248130E023
:10209000829FF001839FF00D929FF00D11244CA5BB
:1020A0005DA54E0F5F1FC301F6011995882309F442
:1020B0004CC1D7018D919C911197019611969C93DB
:1020C0008E932C893D892115310569F0F7018081B6
:1020D00091816CA17DA1DB0115964C91159750E083
:1020E0008417950790F281E02115310509F080E011
:1020F0002A893B89F80133832283C6C0EEA5FFA558
:10210000ECA4FDA4DB0114962C911497808191819D
:1021100015964C91159750E08417950748F0F801F3
:1021200086819781009709F010C187E193E0A9C0EB
:10213000AC014F5F5F4F5183408330E0829FA0012D
:10214000839F500D929F500D11244E0D5F1DC801AD
:10215000F601199599C0CCA4DDA4D6018D919C916E
:102160001197009719F4C801B9010CC1223031054B
:1021700041F5C801B3010E94220F8823C1F4E5C0D4
:102180006CA17DA1F601428153810190F081E02D87
:10219000C3011995882359F4D80116968D919C9105
:1021A0001797009709F0D1C086E293E0C2C08C89EE
:1021B0009D89009729F78A899B89F80193838283F7
:1021C00066C02130310509F12130310520F025307C
:1021D000310579F524C05201EE24FF240894E11C56
:1021E000F11CFBE0EF16F10409F4AFC0C801B50122
:1021F00041E050E00E94F40B882309F4A6C0D50109
:102200008D915D0187FDEACF20C0C801B20148E091
:1022100050E00E94F40BB8E0EB2EF12C13C0C80183
:10222000B20144E050E00E94F40BA4E0EA2EF12C4D
:1022300009C0F80186819781009709F086C08DEE6C
:1022400092E01FC0882309F480C08FE59BE0998B42
:10225000888B5B8A4A8AFD8AEC8A6CA17DA1D601B3
:1022600012964D915C911397ED91FC91C3011995D4
:102270000BC0F80186819781009709F066C086E35C
:1022800093E09783868361C0882309F45EC0D801F8
:1022900014968D919C911597009709F06ACE640170
:1022A000DDA2CCA2DBA2CAA21FA21EA219A618A65A
:1022B000F60182819101280F311D3DA72CA7838152
:1022C000992787FD9095820F931F9FA78EA73BA606
:1022D0002AA6F8E0EF2EF12CEC0EFD1EE2E2CE2E47
:1022E000D12CCC0EDD1EECA1FDA18181807F31F5CA
:1022F00028A539A5203431050CF5F90173E0F595D1
:10230000E7957A95E1F7EE0DFF1D808190E027704B
:10231000307002C0959587952A95E2F780FD0EC032
:10232000D80116968D919C911797009771F489E4C6
:1023300093E017969C938E93169707C0C6010E9450
:10234000030B882381F681E001C080E0AF960FB6D1
:10235000F894DEBF0FBECDBFCF91DF911F910F91DB
:10236000FF90EF90DF90CF90BF90AF909F908F90B5
:102370007F906F905F904F903F902F9008956A816B
:102380007B81C8010E94F50E7FCFEF92FF920F93E1
:102390001F93CF93DF937C018B01EA01CB01BA013C
:1023A0000E94820BC701B801AE010E946D0FDF9140
:1023B000CF911F910F91FF90EF900895AF92BF9230
:1023C000CF92DF92EF92FF920F931F93DF93CF9301
:1023D000CDB7DEB72A970FB6F894DEBF0FBECDBFDC
:1023E0007C018B01FB01A680B7806E010894C11CA3
:1023F000D11CB60149875A870E94220F49855A8508
:10240000882319F1F80186819781009751F4F7012B
:10241000868197810097C9F480E693E0978386834D
:1024200014C0F8018181807F803229F4C601B50192
:102430000E94C51104C0C601B5010E946D0F2B8119
:102440003C81F7013383228301C080E02A960FB6D6
:10245000F894DEBF0FBECDBFCF91DF911F910F91DA
:10246000FF90EF90DF90CF90BF90AF9008956F9264
:102470007F928F929F92AF92BF92CF92DF92EF9214
:10248000FF920F93DF93CF93CDB7DEB728970FB6A8
:10249000F894DEBF0FBECDBF7B01BE016F5F7F4FE3
:1024A0000E94910C8823B9F169807A808B809C808E
:1024B000AD80BE80CF80D884C301817090700097BA
:1024C000C1F09301A401B501C60101E00E943701EA
:1024D0002095F701208330953183409542835095B4
:1024E00053836095648370957583809586839095FA
:1024F0000FC09301A401B501C60101E00E9437019C
:10250000F7012083318342835383648375838683F9
:10251000978381E001C080E028960FB6F894DEBF73
:102520000FBECDBFCF91DF910F91FF90EF90DF9065
:10253000CF90BF90AF909F908F907F906F900895B5
:10254000CF92DF92EF92FF920F931F93DF93CF937F
:10255000CDB7DEB728970FB6F894DEBF0FBECDBF5C
:102560007C016B018A01BE016F5F7F4F0E943712B1
:10257000F6019481943019F09830E9F40AC0298169
:102580003A814B815C81F8012083318342835383FC
:102590001CC09981F80190839A8191839B819283D9
:1025A0009C8193839D8194839E8195839F81968353
:1025B000988597830AC0F70186819781009721F457
:1025C0008BED92E09783868380E028960FB6F8948F
:1025D000DEBF0FBECDBFCF91DF911F910F91FF9056
:1025E000EF90DF90CF90089544E050E00E94F40B0C
:1025F0000895BA010E94F412089548E050E00E9444
:10260000F40B0895BA010E94FD1208952091C30AA7
:1026100030E08091C20A281B3109C90108958091D8
:10262000C20A9091C30A891750F4E82FF0E0EE55E2
:10263000F54F208130E08F5F8093C20A02C02FEFF8
:102640003FEFC9010895E091C20A8091C30AE817DB
:1026500030F4F0E0EE55F54F208130E002C02FEF6E
:102660003FEFC90108950895CF92DF92EF92FF9254
:102670000F931F93CF93DF936C01CB01EA0120915D
:10268000E70A2223B1F0E62EF92E00E010E00DC09B
:10269000D7016D917D01D601ED91FC910190F08102
:1026A000E02DC60119950F5F1F4F0C171D0780F312
:1026B00003C0642F0E947114CE01DF91CF911F914E
:1026C0000F91FF90EF90DF90CF900895DF93CF931D
:1026D0000F92CDB7DEB769832091E70A2223D1F0AC
:1026E0002091E60A203240F021E030E0FC01338303
:1026F000228320E030E015C08091E50AE82FF0E069
:10270000EB53F54F998190838F5F8093E50A809317
:10271000E60A05C0CE01019661E00E94711421E035
:1027200030E0C9010F90CF91DF9108951092C20A55
:102730001092C30A1092E50A1092E60A0E94E21370
:102740000895862F413208F040E262EA7AE00E9462
:10275000FB131092C20A8093C30A089581E080930C
:10276000E70A6093C40A1092E50A1092E60A0895F7
:102770000E94AE1308958091C40A65EC7AE04091FE
:10278000E60A21E00E9431141092E50A1092E60A4E
:102790001092E70A08951092EB0A1092EA0A88EE66
:1027A00093E0A0E0B0E08093EC0A9093ED0AA09350
:1027B000EE0AB093EF0A82E897E09093E90A8093DB
:1027C000E80A08951092180B84E161E00E946817EE
:1027D00085E161E00E946817E9EBF0E080818E7F7F
:1027E000808380818D7F808388E48093B80085E436
:1027F0008093BC000895413288F59091180B99237D
:10280000E1F791E09093180B9FEF9093170B1092C4
:10281000F50A942F91509093F60A880F8160809367
:10282000F40A85EE8093BC008091180B8130E1F3AF
:102830008091F50A841710F44091F50AE7EFFAE069
:10284000262F372FD901242F30E02E0F3F1F02C033
:1028500081918D93E217F307D9F701C040E0842FEF
:1028600008954132B0F59091180B9923E1F792E069
:102870009093180B9FEF9093170B1092F50A4093CB
:10288000F60ADB01E7EFFAE050E04E0F5F1F02C0EF
:102890009D919193E417F507D9F790E0880F991F60
:1028A0008093F40A85EE8093BC00222321F080916E
:1028B000180B8230E1F38091170B8F3F61F080910C
:1028C000170B803251F08091170B803341F483E075
:1028D000089581E0089580E0089582E0089584E0FD
:1028E00008956132A0F42091180B243091F4609384
:1028F0003D0BDC01E0E4FBE070E06E0F7F1F02C0E7
:102900008D918193E617F707D9F780E0089581E06C
:10291000089582E00895882311F085EC01C085E8D0
:102920008093BC00089585ED8093BC008091BC002D
:1029300084FDFCCF1092180B089585EC8093BC00A9
:102940001092180B08951F920F920FB60F920BB6AC
:102950000F9211242F933F934F935F936F937F9325
:102960008F939F93AF93BF93EF93FF938091B900A1
:1029700090E0887F90708036910509F4C2C081365E
:102980009105E4F58832910509F47EC089329105FC
:10299000C4F48031910509F472C08131910544F489
:1029A000009709F413C18830910509F013C167C07D
:1029B0008831910509F468C08032910509F00AC197
:1029C00078C08034910509F48AC0813491054CF4B3
:1029D0008033910509F46FC08833910509F0FAC07E
:1029E0006EC08035910509F46EC08835910509F4F3
:1029F0007BC08834910509F0EDC0EAC088399105A3
:102A000009F4DAC089399105ECF48837910509F4A5
:102A100078C0893791054CF48836910509F471C066
:102A20008037910509F0D6C06CC08838910509F44B
:102A3000C3C08039910509F46AC08038910509F056
:102A4000C9C065C0803B910509F48EC0813B9105EA
:102A50004CF4803A910509F46CC0883A910509F06C
:102A6000B9C082C0803C910509F4AAC0883C910598
:102A700009F4A6C0883B910509F0ACC08AC08091DA
:102A8000F40A8093BB0013C09091F50A8091F60A76
:102A9000981708F09DC08091F50AE82FF0E0E95002
:102AA000F54F90819093BB008F5F8093F50A81E092
:102AB00084C080E201C080E38093170B89C088E363
:102AC0008093170B4EC08091F50A9091BB00E82FC0
:102AD000F0E0E950F54F90838F5F8093F50A909175
:102AE000F50A8091F60A65C08091F50A9091BB00C5
:102AF000E82FF0E0E950F54F90838F5F8093F50A5F
:102B000067C083E08093180B1092190BD0CF80918F
:102B1000190B803208F050C08091190B9091BB00C6
:102B2000E82FF0E0E65EF44F90838F5F8093190BFF
:102B3000BECF8091190B803230F4E091190BF0E098
:102B4000E65EF44F10820E9493146091190BE0919D
:102B50003A0BF0913B0B8AE19BE070E019951092E3
:102B6000190B0E949D1436C084E08093180B1092BC
:102B70003C0B10923D0BE0913E0BF0913F0B1995F1
:102B800080913D0B882329F481E080933D0B1092C6
:102B9000400B80913C0BE82FF0E0E05CF44F90811B
:102BA0009093BB008F5F80933C0B90913C0B809186
:102BB0003D0B981708F47BCF80E00E948B140AC06D
:102BC00081E00E948B141092180B04C01092170B16
:102BD0000E949314FF91EF91BF91AF919F918F91BC
:102BE0007F916F915F914F913F912F910F900BBE0D
:102BF0000F900FBE0F901F9018951F920F920FB657
:102C00000F9211242F933F938F939F93AF93BF9372
:102C10008091640B9091650BA091660BB091670B4E
:102C20003091680B0196A11DB11D232F2D5F2D370B
:102C300020F02D570196A11DB11D2093680B8093A4
:102C4000640B9093650BA093660BB093670B809118
:102C5000600B9091610BA091620BB091630B019698
:102C6000A11DB11D8093600B9093610BA093620B2B
:102C7000B093630BBF91AF919F918F913F912F9133
:102C80000F900FBE0F901F9018959FB7F89420914A
:102C9000600B3091610B4091620B5091630B86B5D4
:102CA000A89B06C08F3F21F02F5F3F4F4F4F5F4FD4
:102CB0009FBF542F432F322F2227280F311D411D34
:102CC000511D82E0220F331F441F551F8A95D1F7F3
:102CD000B901CA010895EF92FF920F931F93CF930A
:102CE000DF937B018C010E944516EB010FC00E940F
:102CF00045166C1B7D0B83E0683E780738F008941E
:102D0000E108F10801091109C851DC4FE114F1048F
:102D10000105110561F7DF91CF911F910F91FF9090
:102D2000EF900895789484B5826084BD84B5816005
:102D300084BD85B5826085BD85B5816085BDEEE6C3
:102D4000F0E0808181608083E1E8F0E010828081A2
:102D500082608083808181608083E0E8F0E0808110
:102D600081608083E1EBF0E0808184608083E0EB30
:102D7000F0E0808181608083E1E9F0E08081826021
:102D80008083808181608083E0E9F0E080818160E0
:102D90008083E1EAF0E080818260808380818160CD
:102DA0008083E0EAF0E0808181608083E1E2F1E00D
:102DB000808182608083808181608083E0E2F1E0B5
:102DC000808181608083EAE7F0E080818460808395
:102DD000808182608083808181608083808180683F
:102DE00080831092C1000895893009F449C08A3067
:102DF000A0F4843051F1853040F4823079F1833091
:102E000000F5813009F063C026C0873079F1883041
:102E100098F5863009F05BC025C08D3009F442C0BA
:102E20008E3028F48B30B1F18C30C0F52DC080315C
:102E300009F442C0813109F445C08F3009F047C020
:102E400037C0809180008F7703C0809180008F7D94
:102E500080938000089584B58F7702C084B58F7DFC
:102E600084BD08958091B0008F7703C08091B00039
:102E70008F7D8093B0000895809190008F7707C078
:102E8000809190008F7D03C080919000877F809318
:102E9000900008958091A0008F7707C08091A000D6
:102EA0008F7D03C08091A000877F8093A00008954C
:102EB000809120018F7703C0809120018F7D8093C6
:102EC0002001089580912001877F8093200108953B
:102ED0000F931F93DF93CF930F92CDB7DEB7282FB9
:102EE00030E0F901E254FE4F8491F901E858FE4FB9
:102EF00014912E5C3E4FF90104910023D9F08823F0
:102F000021F069830E94F4166981E02FF0E0EE0F52
:102F1000FF1FE250FF4F85919491DC019FB7F89419
:102F2000662321F48C911095812302C08C91812B12
:102F30008C939FBF0F90CF91DF911F910F910895B8
:102F4000863308F0865390917B00282F269526958E
:102F5000269530E02170307043E0220F331F4A95F0
:102F6000E1F7977F922B90937B0087709091790384
:102F70009295990F990F907C982B90937C0080915B
:102F80007A00806480937A0080917A0086FDFCCF7D
:102F90002091780030917900932F80E030E0282B49
:102FA000392BC9010895CF92DF92EF92FF920F93D0
:102FB0001F93CF93DF936C017B018A01C0E0D0E0C7
:102FC0000FC0D7016D917D01D601ED91FC9101906B
:102FD000F081E02DC6011995C80FD91F015010408E
:102FE0000115110571F7CE01DF91CF911F910F915E
:102FF000FF90EF90DF90CF900895DB010D900020BF
:10300000E9F7AD0141505040461B570BDC01ED91F3
:10301000FC910280F381E02D19950895DC01ED917A
:10302000FC910190F081E02D199508950F931F9365
:10303000CF93DF93EC016DE00E940E188C01CE015E
:103040006AE00E940E18080F191FC801DF91CF9186
:103050001F910F9108950F931F93CF93DF93EC016E
:103060000E94FD178C01CE010E941618080F191F2F
:10307000C801DF91CF911F910F9108958F929F9278
:10308000AF92BF92CF92DF92EF92FF920F931F9376
:10309000DF93CF93CDB7DEB7A1970FB6F894DEBF1D
:1030A0000FBECDBF6C01042FE52FCB01122F19A24B
:1030B000223008F41AE021E2E22EF12CEC0EFD1E83
:1030C000812E9924AA24BB2403C0022FE32FCA0116
:1030D000602F7E2FA50194010E946E1E129F802DED
:1030E0001124081B0894E108F1080A3014F4005D6B
:1030F00001C0095CF7010083211531054105510527
:1031000021F7C601B7010E94FD17A1960FB6F894EA
:10311000DEBF0FBECDBFCF91DF911F910F91FF900A
:10312000EF90DF90CF90BF90AF909F908F900895D9
:103130002115310549F4DC01ED91FC910190F081FC
:10314000E02D642F199508950E943E1808950F935D
:103150001F93CF93DF93EC010E9498188C01CE014E
:103160000E941618080F191FC801DF91CF911F91F7
:103170000F910895CF93DF930E9492160E94CA0286
:10318000C5E3DAE10E9488062097E1F30E94351A30
:10319000F9CFFC0184859585FC01E05CFF4F20811F
:1031A00031818E5B9F4FFC0180819181281B390BFF
:1031B0002F733070C9010895FC0184859585FC0149
:1031C000E05CFF4F40815181FC01EE5BFF4F2081AD
:1031D00031814217530741F00190F081E02DE80F53
:1031E000F91F208130E002C02FEF3FEFC9010895A1
:1031F000FC0184859585FC01E05CFF4F4081518195
:10320000FC01EE5BFF4F208131814217530771F0C3
:10321000A081B181A80FB91F2C9180819181019665
:103220008F7390709183808330E002C02FEF3FEF67
:10323000C9010895DC011E968D919C911F97FC0198
:10324000E05CFF4F8E5B9F4F40815181DC012D91EF
:103250003C91119742175307B9F708951F93FC014A
:10326000162F26853785D901A05CBF4F8D919C9183
:10327000019660E470E00E945B1ED901AE5BBF4F17
:103280004D915C91119784179507D1F3D901A05CFA
:10329000BF4F0D90BC91A02DA20FB31F1C93A6850C
:1032A000B785A05CBF4F11969C938E93A689B78972
:1032B0002C9181E090E0058C02C0880F991F0A9440
:1032C000E2F7282B2C9381E090E01F910895FB01F9
:1032D000E05CFF4F208131812F5F3F4F2F733070B3
:1032E000DB01AE5BBF4F4D915C9111972417350701
:1032F00039F0A081B181A60FB71F8C933183208351
:10330000089508951F920F920FB60F920BB60F9269
:1033100011242F933F934F935F936F937F938F93DA
:103320009F93AF93BF93EF93FF938091C60069E69D
:103330007BE00E946719FF91EF91BF91AF919F9140
:103340008F917F916F915F914F913F912F910F904E
:103350000BBE0F900FBE0F901F90189508951F92EF
:103360000F920FB60F920BB60F9211242F933F932B
:103370004F935F936F937F938F939F93AF93BF937D
:10338000EF93FF938091CE0061EF7BE00E9467197D
:10339000FF91EF91BF91AF919F918F917F916F912D
:1033A0005F914F913F912F910F900BBE0F900FBEE9
:1033B0000F901F90189508951F920F920FB60F92BD
:1033C0000BB60F9211242F933F934F935F936F93FC
:1033D0007F938F939F93AF93BF93EF93FF938091CE
:1033E000D60069E77CE00E946719FF91EF91BF91D9
:1033F000AF919F918F917F916F915F914F913F918D
:103400002F910F900BBE0F900FBE0F901F9018952D
:1034100008951F920F920FB60F920BB60F921124C0
:103420002F933F934F935F936F937F938F939F93CC
:10343000AF93BF93EF93FF938091360161E07DE0FE
:103440000E946719FF91EF91BF91AF919F918F916A
:103450007F916F915F914F913F912F910F900BBE94
:103460000F900FBE0F901F90189589E89DE00E9465
:10347000C918009711F00E94811988EA9DE00E9406
:10348000C918009711F00E94AE1987EC9DE00E94C8
:10349000C918009711F00E94DB1986EE9DE00E948A
:1034A000C918009711F00E94081A08951F920F92F0
:1034B0000FB60F920BB60F9211242F933F935F9389
:1034C0006F937F938F939F93AF93BF93EF93FF93EC
:1034D0002091ED0B3091EE0B8091EF0B9091F00B62
:1034E0002817390731F48091C1008F7D8093C10086
:1034F00016C0E091EF0BF091F00BE355F44F2081F3
:103500008091EF0B9091F00B019660E470E00E94C7
:103510005B1E9093F00B8093EF0B2093C600FF91FE
:10352000EF91BF91AF919F918F917F916F915F913B
:103530003F912F910F900BBE0F900FBE0F901F90D9
:1035400018951F920F920FB60F920BB60F9211247F
:103550002F933F935F936F937F938F939F93AF933B
:10356000BF93EF93FF932091750C3091760C80916F
:10357000770C9091780C2817390731F48091C900A5
:103580008F7D8093C90016C0E091770CF091780C84
:10359000EB5CF34F20818091770C9091780C019631
:1035A00060E470E00E945B1E9093780C8093770C2F
:1035B0002093CE00FF91EF91BF91AF919F918F919A
:1035C0007F916F915F913F912F910F900BBE0F9064
:1035D0000FBE0F901F9018951F920F920FB60F926B
:1035E0000BB60F9211242F933F935F936F937F93AA
:1035F0008F939F93AF93BF93EF93FF932091FD0C15
:103600003091FE0C8091FF0C9091000D2817390726
:1036100031F48091D1008F7D8093D10016C0E0916C
:10362000FF0CF091000DE354F34F20818091FF0CCB
:103630009091000D019660E470E00E945B1E9093F3
:10364000000D8093FF0C2093D600FF91EF91BF9166
:10365000AF919F918F917F916F915F913F912F914A
:103660000F900BBE0F900FBE0F901F9018951F92DA
:103670000F920FB60F920BB60F9211242F933F9318
:103680005F936F937F938F939F93AF93BF93EF93CA
:10369000FF932091850D3091860D8091870D90913B
:1036A000880D2817390731F4809131018F7D80937F
:1036B000310116C0E091870DF091880DEB5BF24F60
:1036C00020818091870D9091880D019660E470E0D3
:1036D0000E945B1E9093880D8093870D2093360186
:1036E000FF91EF91BF91AF919F918F917F916F91DA
:1036F0005F913F912F910F900BBE0F900FBE0F90D7
:103700001F901895DF92EF92FF920F931F93CF9324
:10371000DF93EC017A018B01DD24D394403081EEFC
:10372000580780E0680780E0780749F4DD24EC89D9
:10373000FD89108260E874E88EE190E00FC0EC89AA
:10374000FD8981E090E00E8C02C0880F991F0A94D9
:10375000E2F7808360E079E08DE390E0A8019701D3
:103760000E946E1E21503040404050405695479573
:103770003795279580E12030380710F0DD20B1F62D
:10378000E889F9893083EA89FB892083EE89FF89FA
:10379000408181E090E09C010A8C02C0220F331F1F
:1037A0000A94E2F7422B4083EE89FF8940819C0115
:1037B0000B8C02C0220F331F0A94E2F7422B408386
:1037C000EE89FF8940819C010C8C02C0220F331FBF
:1037D0000A94E2F7422B4083EE89FF8920810D8C09
:1037E00002C0880F991F0A94E2F780958223808394
:1037F000DF91CF911F910F91FF90EF90DF9008958F
:103800001F93CF93DF9310928C0D10928B0D88EE47
:1038100093E0A0E0B0E080938D0D90938E0DA09387
:103820008F0DB093900DEBE8FDE022E937E0329385
:10383000229349E65BE0558744874DEA5BE0578772
:10384000468745EC50E0518B408B44EC50E0538B65
:10385000428B40EC50E0558B448B41EC50E0578B51
:10386000468B46EC50E0518F408F14E0128F73E08E
:10387000738F67E0648F55E0558F41E0468F10925B
:10388000AB0D1092AA0D8093AC0D9093AD0DA0934B
:10389000AE0DB093AF0DEAEAFDE032932293C1EF93
:1038A000DBE0D587C487C5E3DCE0D787C687CDECEE
:1038B000D0E0D18BC08BCCECD0E0D38BC28BC8ECEA
:1038C000D0E0D58BC48BC9ECD0E0D78BC68BCEECC7
:1038D000D0E0D18FC08F128F738F648F558F468F3A
:1038E0001092CA0D1092C90D8093CB0D9093CC0D00
:1038F000A093CD0DB093CE0DE9ECFDE03293229371
:10390000C9E7DCE0D587C487CDEBDCE0D787C68785
:10391000C5EDD0E0D18BC08BC4EDD0E0D38BC28B92
:10392000C0EDD0E0D58BC48BC1EDD0E0D78BC68B7A
:10393000C6EDD0E0D18FC08F128F738F648F558FFB
:10394000468F1092E90D1092E80D8093EA0D909346
:10395000EB0DA093EC0DB093ED0DE8EEFDE032938E
:10396000229381E09DE09587848785E49DE0978799
:10397000868785E391E0918B808B84E391E0938B44
:10398000828B80E391E0958B848B81E391E0978B30
:10399000868B86E391E0918F808F128F738F648F77
:1039A000558F468FDF91CF911F9108950CD0E6C0BF
:1039B000DED040F0D5D030F021F45F3F19F0C7C021
:1039C000511110C1CAC0EBD098F39923C9F3552304
:1039D000B1F3951B550BBB27AA2762177307840702
:1039E00038F09F5F5F4F220F331F441FAA1FA9F3B8
:1039F00033D00E2E3AF0E0E830D091505040E695AA
:103A0000001CCAF729D0FE2F27D0660F771F881F0A
:103A1000BB1F261737074807AB07B0E809F0BB0BF9
:103A2000802DBF01FF2793585F4F2AF09E3F51051D
:103A300068F08DC0D7C05F3FECF3983EDCF386950D
:103A400077956795B795F7959F5FC9F7880F911D93
:103A50009695879597F90895E1E0660F771F881F7F
:103A6000BB1F621773078407BA0720F0621B730B32
:103A7000840BBA0BEE1F88F7E095089598D088F074
:103A80009F5790F0B92F9927B751A0F0D1F0660F4A
:103A9000771F881F991F1AF0BA95C9F712C0B13065
:103AA00081F09FD0B1E008959CC0672F782F8827C0
:103AB000B85F39F0B93FCCF3869577956795B395A4
:103AC000D9F73EF490958095709561957F4F8F4F13
:103AD0009F4F0895E89409C097FB3EF49095809518
:103AE000709561957F4F8F4F9F4F9923A9F0F92FC4
:103AF00096E9BB279395F695879577956795B79542
:103B0000F111F8CFFAF4BB0F11F460FF1BC06F5F27
:103B10007F4F8F4F9F4F16C0882311F096E911C039
:103B2000772321F09EE8872F762F05C0662371F05A
:103B300096E8862F70E060E02AF09A95660F771F6E
:103B4000881FDAF7880F9695879597F9089597F962
:103B50009F6780E870E060E008959FEF80EC089533
:103B600000240A941616170618060906089500245C
:103B70000A9412161306140605060895092E0394D6
:103B8000000C11F4882352F0BB0F40F4BF2B11F44A
:103B900060FF04C06F5F7F4F8F4F9F4F089557FDA9
:103BA0009058440F551F59F05F3F71F04795880FAB
:103BB00097FB991F61F09F3F79F087950895121642
:103BC00013061406551FF2CF4695F1DF08C01616EE
:103BD00017061806991FF1CF86957105610508949F
:103BE0000895E894BB2766277727CB0197F90895B6
:103BF0000BD0C4CFB5DF28F0BADF18F0952309F059
:103C0000A6CFABCF1124EECFCADFA0F3959FD1F39F
:103C1000950F50E0551F629FF001729FBB27F00D7A
:103C2000B11D639FAA27F00DB11DAA1F649F6627CF
:103C3000B00DA11D661F829F2227B00DA11D621F1E
:103C4000739FB00DA11D621F839FA00D611D221FD8
:103C5000749F3327A00D611D231F849F600D211DBC
:103C6000822F762F6A2F11249F5750408AF0E1F05F
:103C700088234AF0EE0FFF1FBB1F661F771F881FA8
:103C800091505040A9F79E3F510570F060CFAACFE8
:103C90005F3FECF3983EDCF3869577956795B79593
:103CA000F795E7959F5FC1F7FE2B880F911D9695BD
:103CB000879597F9089597FB092E07260AD077FD77
:103CC00004D02ED006D000201AF4709561957F4F55
:103CD0000895F6F7909581959F4F0895A1E21A2EC9
:103CE000AA1BBB1BFD010DC0AA1FBB1FEE1FFF1FA0
:103CF000A217B307E407F50720F0A21BB30BE40BF0
:103D0000F50B661F771F881F991F1A9469F7609536
:103D10007095809590959B01AC01BD01CF010895F0
:103D2000AA1BBB1B51E107C0AA1FBB1FA617B707E1
:103D300010F0A61BB70B881F991F5A95A9F78095FD
:103D40009095BC01CD0108950790F691E02D19944E
:103D5000FB01DC0102C001900D9241505040D8F7A8
:103D60000895DC0101C06D9341505040E0F7089583
:043D7000F894FFCFF5
:103D7400474253656E645265706C7920456E636F7B
:103D84006465204552524F520052657175657374D3
:103D940049324320556E5061636B204552524F5255
:103DA4000052657175657374493243204552524F10
:103DB400523A205265636569766564204D41582006
:103DC4006E756D626572206F662062797465732EFC
:103DD40000456E636F6465204552524F5200526530
:103DE4006164204552524F52202D20636D64206C33
:103DF400656E6774683A00556E6B6E6F776E20451A
:103E040052524F5200656E642D6F662D7374726545
:103E1400616D00696F206572726F720076617269FC
:103E24006E74206F766572666C6F77007374726956
:103E34006E67206F766572666C6F77006279746561
:103E440073206F766572666C6F7700696E76616C4D
:103E5400696420646174615F73697A6500696E7670
:103E6400616C696420776972655F7479706500704C
:103E74006172656E742073747265616D20746F6F06
:103E84002073686F7274006172726179206F766555
:103E940072666C6F770063616C6C6261636B206641
:103EA40061696C656400696E76616C696420666939
:103EB400656C642074797065006D697373696E67ED
:103EC400207265717569726564206669656C640049
:103ED400696E76616C6964206669656C64206465EA
:103EE4007363726970746F72000101000000020054
:103EF4000000021601FF13006A05031601FF8B0080
:103F0400C205041601FF04004A07051601FF0D004F
:103F14000A04061601FF06003A04071601FF04000E
:103F24005204081601FF08006204091601FF080084
:103F34007A040A1601FF090092040B1601FF160009
:103F4400B2040C1601FF0A00EA040D1601FF020078
:103F54000A050E1601FF04001A050F1601FF0800DA
:103F64002A05101601FF28004205111601FF08005A
:103F740052050000000000000000010000000200E3
:103F84000000020000000200000003000000040022
:103F9400000004000000040000000500000001000F
:103FA400000000000000000000000100000002000A
:103FB40000000200000004000000000000000000F7
:103FC40000000100000004000000000000000000E8
:103FD40000000100000004000000020000000400D2
:103FE40000000000000000000000010000000400C8
:103FF40000000200000004000000000000000000B7
:1040040000000100000001000000020000000400A4
:104014000000030000000400000000000000000095
:104024000000010000000100000002000000020086
:1040340000000300000004000000041001FF04005D
:104044000000051001FF04000000061001FF040039
:104054000000000000000000000001000000040057
:104064000000020000000200000003000000040041
:104074000000000000000000000001000000020039
:104084000000000000000000000001000000040027
:104094000000000000000000000001000000040017
:1040A4000000020000000400000000000000000006
:1040B40000000105000028000000000000000000CE
:1040C40000000100000004000000020000000400E1
:1040D40000000000000000000000010000000200D9
:1040E4000000021601FF09008A05031601FF0600FD
:1040F400AA0500000000000000000100000002000A
:104104000000021001FF01000000031001FF040081
:104114000000000000000000000001000000020098
:104124000000020000000400000000000000000085
:1041340000000100000002000000021601FF04005C
:104144002206031601FF0C004A06041601FF0E00A6
:104154006A06051601FF18009206061601FF040000
:10416400CA06081601FF0C00DA06091601FF010051
:10417400FA060A1601FF2C000A070B1601FF0400B9
:1041840022070C1601FF08003206000000000000A0
:104194000000010000000400000000000000000016
:1041A4000000010000000400000002000000040000
:1041B40000000000000000000000010000000400F6
:1041C40000000200000004000000030000000400DE
:1041D40000000000000000000000010000000200D8
:1041E40000000200000004000000030000000400BE
:1041F40000000400000004000000000000000000B3
:10420400000001000000040000000200000004009F
:10421400000003000000040000000400000004008B
:104224000000050000000400000006000000040077
:104234000000000000000000000001000000040075
:104244000000000000000000000001000000040065
:10425400000002000000040000000300000004004D
:104264000000000000000000000001000000010048
:10427400000000000000000000000105000028000C
:104284000000020000000400000000000000000024
:104294000000010000000100000002000000010015
:1042A4000000030000000100000004000000010001
:1042B40000000000000000000000010000000200F7
:1042C40000000200000002000000000000000000E6
:1042D40000008B0707083F0848085D0A510AF80ADE
:1042E400F10DA012F9120213AF0D5A0DDE110000E8
:1042F40000006613341306130F1323133313000043
:0E43040000002E19D317C918F818DC181A1962
:00000001FF
