:100000000C9405010C9436010C9436010C943601C5
:100010000C9436010C9436010C9436010C94360184
:100020000C9436010C9436010C9436010C94360174
:100030000C9436010C9436010C9436010C94360164
:100040000C9436010C9436010C9436010C94360154
:100050000C9436010C9436010C9436010C948A1DD4
:100060000C9436010C94A2210C9476220C94360147
:100070000C9436010C9436010C9436010C94360124
:100080000C9436010C9436010C9436010C94360114
:100090000C94CF210C94C1220C9436010C94301C8A
:1000A0000C9436010C9436010C9436010C943601F4
:1000B0000C9436010C9436010C9436010C943601E4
:1000C0000C9436010C9436010C9436010C94FC21EE
:1000D0000C940C230C9436010C9429220C94572375
:1000E0000C94360100002100240027002A002D0076
:1000F0003000330001010000040107010A01000083
:100100002200250028002B002E00310034000201BF
:100110000000050108010B0100002000230026005B
:1001200029002C002F00320000010000030106010D
:10013000090105050505070508080808020202026D
:100140000A0A080804040404010101010101010173
:100150000303030303030303040707070C0C0C0C3E
:100160000C0C0C0C02020202060606060606060627
:100170000B0B0B0B0B0B0B0B0102102020080810B4
:100180002040102040800201020108040201010207
:1001900004081020408080402010080402018004E0
:1001A000020180402010080402010804020101023B
:1001B0000408102040800102040810204080000044
:1001C000090A02080B0C0D070603040100000000D9
:1001D000000000000000000000000000000000001F
:1001E0000000000000000000000011100F000000DF
:1001F00000000000000000000000000000000000FF
:1002000000000000240DC01BA22311241FBECFEF4D
:10021000D1E2DEBFCDBF00E00CBF19E0A0E0B2E04C
:10022000EAEFFFE400E00BBF02C007900D92A03898
:10023000B107D9F710E1A0E8B9E001C01D92A137DC
:10024000B107E1F712E0CAE0D2E000E006C0229771
:100250000109FE010BBF0E94C124C430D10780E018
:100260000807A9F70E94DA200C94FB270C940000E1
:100270000F93DF93CF93CDB7DEB760970FB6F894A7
:10028000DEBF0FBECDBF002309F459C029833A83D6
:100290004B835C836D837E838F839887E0E2E01BD2
:1002A0002D813E814F8158851E16BCF01D861E860D
:1002B0001F86188A8E2F992787FD90959095819596
:1002C0009F4F04C056954795379527958A95D2F745
:1002D00029873A874B875C872AC0CA01B901002E5B
:1002E00004C096958795779567950A94D2F76D87A0
:1002F0007E878F87988BDA01C90104C0880F991F08
:10030000AA1FBB1FEA95D2F729813A814B815C81F4
:1003100004C056954795379527950A95D2F7822BB5
:10032000932BA42BB52B89879A87AB87BC8729850C
:100330003A854B855C856D857E858F85988960962D
:100340000FB6F894DEBF0FBECDBFCF91DF910F91F6
:1003500008950F93DF93CF93CDB7DEB760970FB6B5
:10036000F894DEBF0FBECDBF002309F459C0298326
:100370003A834B835C836D837E838F839887E0E22F
:10038000E01B29813A814B815C811E16BCF01986E5
:100390001A861B861C868E2F992787FD909590952F
:1003A00081959F4F04C0220F331F441F551F8A950C
:1003B000D2F72D873E874F87588B2AC0CA01B901D3
:1003C000002E04C0660F771F881F991F0A94D2F76A
:1003D00069877A878B879C87DA01C90104C0B69543
:1003E000A79597958795EA95D2F72D813E814F8104
:1003F000588504C0220F331F441F551F0A95D2F79A
:10040000822B932BA42BB52B8D879E87AF87B88B20
:1004100029853A854B855C856D857E858F85988994
:1004200060960FB6F894DEBF0FBECDBFCF91DF91BF
:100430000F9108950F931F93CF93DF93EC018B01DE
:1004400077FF04C088859985080F191F00D000D058
:10045000EDB7FEB7319683E090E0ADB7BEB7129628
:100460009C938E93119780E092E09383828315830F
:100470000483E0915005F091510519958DB79EB711
:1004800006960FB6F8949EBF0FBE8DBF01301105C2
:1004900089F00230110524F40115110541F01CC04A
:1004A0000230110571F003301105B1F40DC08881DF
:1004B00060E002C0888161E00E94271F8A8160E0BD
:1004C00009C0888161E002C0888160E00E94271F26
:1004D0008A8161E00E94271F61E070E080E090E087
:1004E0000E94061EDF91CF911F910F910895CF9327
:1004F000DF93EC018E8560E00E94271F888960E011
:100500000E94271FDF91CF910895CF93DF93EC01D5
:100510008E8561E00E94271F888961E00E94271F65
:10052000DF91CF9108956F927F928F929F92AF92B9
:10053000BF92CF92DF92EF92FF920F931F93DF93C0
:10054000CF93CDB7DEB73C01862FF3016083718373
:1005500053834283358324831783068324E030E06A
:1005600031872087F386E286D586C486B786A6863D
:10057000918A808A22E330E0338B228B158A148A99
:10058000178A168A118E108E91E0928F138E148E18
:10059000158E168E61E00E94031FF301828161E0D7
:1005A0000E94031FF301848161E00E94031FF30195
:1005B000868161E00E94031FF301828560E00E9452
:1005C000031FF301848560E00E94031FF301868509
:1005D00061E00E94031FF301808961E00E94031F14
:1005E000F301808160E00E94271FF301828160E0B7
:1005F0000E94271FF301848160E00E94271FF301FE
:10060000868160E00E94271FC3010E948502CF916E
:10061000DF911F910F91FF90EF90DF90CF90BF90EF
:10062000AF909F908F907F906F9008958F929F9240
:10063000AF92BF92CF92DF92EF92FF920F931F93F0
:10064000DF93CF93CDB7DEB70E949302CF91DF91B6
:100650001F910F91FF90EF90DF90CF90BF90AF90E0
:100660009F908F900895DF93CF93CDB7DEB76097BB
:100670000FB6F894DEBF0FBECDBF85EA9BE020E247
:10068000FC0111922A95E9F760E270E00E94980E51
:1006900029873A874B875C876D877E878F87988B02
:1006A000DE011196FE01399688E001900D9281508D
:1006B000E1F7CE0101966BE575E043E65AE00E9452
:1006C0006910882349F084E59DE065EA7BE040E21B
:1006D00050E00E94321B13C000D00F92EDB7FEB75E
:1006E0001282118286E192E094838383E091500527
:1006F000F091510519950F900F900F900F90609603
:100700000FB6F894DEBF0FBECDBFCF91DF91089535
:10071000CF93DF9310923D0A10923C0A80E2EBE106
:10072000FAE0DF011D928A95E9F784E59DE00E94D9
:10073000D01A0097B9F1C0913C0AD0913D0AC1325C
:10074000D10584F584E59DE00E94D91AFE01E55E9D
:10075000F54F80832196D0933D0AC0933C0AE5CFA4
:1007600021E020933B0A855E954FFC01108222C058
:1007700010923B0A00D00F92ADB7BEB712961C92F2
:100780001E92119782E392E014969C938E93139796
:10079000E0915005F091510519950F900F900F9031
:1007A0000F9008C080913C0A90913D0A81329105DA
:1007B000BCF2DECFDF91CF9108958131910529F010
:1007C0000E945F1F21E0009709F020E0822F08952A
:1007D0008DE00E945F1F21E08130910509F020E04B
:1007E000822F08958DE060E00E94031F08958FE33B
:1007F00061E00E94031F8FE361E00E94271F0895BC
:10080000CF93DF93EC0180E46C2F0E94271F209789
:1008100019F48FE361E002C08FE360E00E94271FBC
:10082000DF91CF910895CF93DF93C4E5DDE0CE0152
:1008300062E070E00E94B31BCE0163E373E00E94AC
:10084000BB1BCE0168E873E00E94B61B10923E0A03
:1008500010923B0A8EE360E00E94031F8BE060E091
:100860000E94031F81E460E00E94031F82E460E0B5
:100870000E94031F0E94F2031092570A1092580A16
:100880001092590A10925A0A1092400A10923F0A86
:100890008EE591E09093420A8093410A80E991E0CD
:1008A0009093440A8093430A1092530A1092540A78
:1008B0001092550A1092560A10925C0A10925B0A26
:1008C00010925E0A10925D0A10925F0A1092600AFE
:1008D0001092610A1092620A83E461E00E94031F91
:1008E00084E461E00E94031F87E361E00E94031F2C
:1008F00087E360E00E94271F8BE061E00E94031FF6
:100900008BE061E00E94271F80E461E00E94031FEA
:1009100080E460E00E94271F0E94F7038AE360E002
:100920000E94031F8DE361E00E94031F86E361E0E4
:100930000E94031F86E361E00E94271F0E94D21DD0
:100940006093470A7093480A8093490A90934A0A31
:100950000E94D21D685873418040904060934B0ABA
:1009600070934C0A80934D0A90934E0A1092450A58
:10097000DF91CF9108950E94D21D20915F0A30919E
:10098000600A4091610A5091620A621B730B840BEA
:10099000950B693E23E0720720E0820720E0920772
:1009A000A8F010925C0A10925B0A8BE30E94891FE8
:1009B00090935E0A80935D0A0E94D21D60935F0A45
:1009C0007093600A8093610A9093620A08950E946E
:1009D000D21D9B01AC0180914F0A9091500AA091C9
:1009E000510AB091520A0097A105B10569F420930C
:1009F0004F0A3093500A4093510A5093520A84E4AC
:100A000061E00E94271F0895281B390B4A0B5B0BDE
:100A10008091530A9091540AA091550AB091560AB8
:100A2000281739074A075B0770F084E460E00E94EA
:100A3000271F10924F0A1092500A1092510A1092DA
:100A4000520A1092460A0895EF92FF920F931F9355
:100A500085E40E94891F9093400A80933F0A209169
:100A6000410A3091420A281739070CF46CC00E94E1
:100A7000D21D7B018C018091450A882341F1809130
:100A8000470A9091480AA091490AB0914A0AA801E0
:100A90009701281B390B4A0B5B0BDA01C901893C12
:100AA0003FEA930730E0A30730E0B30708F44BC0F8
:100AB000E0924B0AF0924C0A00934D0A10934E0AB2
:100AC00083E460E00E94271F1092450A3CC0809199
:100AD0004B0A90914C0AA0914D0AB0914E0AA80180
:100AE0009701281B390B4A0B5B0BDA01C9018938C6
:100AF00033E1930730E0A30730E0B30720F100D0E3
:100B00000F9283E090E0EDB7FEB7928381838FE58B
:100B100092E094838383E0915005F09151051995FB
:100B20000F900F900F900F9083E461E00E94271FB9
:100B3000E092470AF092480A0093490A10934A0A41
:100B400081E08093450A20913F0A3091400A8091CC
:100B5000430A9091440A8217930734F483E460E0D7
:100B60000E94271F1092450A1F910F91FF90EF904E
:100B70000895CF93DF938EE30E945F1FEC018BE01B
:100B80000E945F1F81E0C130D10509F080E08093B1
:100B9000570A81E0209709F080E08093580A82E4A8
:100BA0000E945F1F21E0009709F420E02093590A7A
:100BB00082E40E945F1F21E0009709F420E0209367
:100BC0005A0ADF91CF91089589E30E94891F9C0101
:100BD000442737FD4095542FB901CA01089588E391
:100BE0000E94891F9C01442737FD4095542FB9016D
:100BF000CA0108950F931F93DF93CF93CDB7DEB74C
:100C000060970FB6F894DEBF0FBECDBF8A010E9479
:100C10003C1429873A874B875C876D877E878F874F
:100C2000988BDE011196FE01399688E001900D92B5
:100C30008150E1F7CE0101966BE575E0A8010E94B5
:100C40008F1960960FB6F894DEBF0FBECDBFCF915F
:100C5000DF911F910F910895CF93DF93EC0100D0A6
:100C60000F9283E090E0EDB7FEB7928381838DE62B
:100C700092E094838383E0915005F091510519959A
:100C80001D8A1C8A198E188E0F900F900F900F904E
:100C9000CE010E948502DF91CF910895CF93DF931B
:100CA000EC018C850E945F1F41E0009709F040E055
:100CB0002A853B852131310511F481E04827842FB5
:100CC000DF91CF9108958F929F92AF92BF92CF9272
:100CD000DF92EF92FF920F931F93CF93DF937C01EC
:100CE000EB01DC01CD90DC901197B1E0CB16D10483
:100CF00009F0B8C200D00F9203E010E0EDB7FEB7E4
:100D00001283018382E892E094838383E09150050B
:100D1000F091510519950F900F900F900F90D701FA
:100D200012968C911297882309F49CC200D000D0AF
:100D3000EDB7FEB73196ADB7BEB712961C930E93C2
:100D400011978BE992E093838283D70113968D915B
:100D50009C91149795838483E0915005F0915105FF
:100D60001995EDB7FEB736960FB6F894FEBF0FBED5
:100D7000EDBFD7011396ED90FC901497B6E0EB16FB
:100D8000F10409F4D0C0E7E0EE16F1047CF4F2E0DF
:100D9000EF16F10409F46EC083E0E816F104B1F037
:100DA00091E0E916F10409F05DC22EC0A9E0EA164F
:100DB000F10409F40FC2BAE0EB16F10409F480C0A3
:100DC000E7E0EE16F10409F04DC230C281E08E8BEF
:100DD0008BA7F88EEF8A82E090E09DA78CA783E036
:100DE00090E0A0E0B0E08EA79FA7A8ABB9AB85E0EC
:100DF00090E0A0E0B0E08AAB9BABACABBDAB1EAA71
:100E00001FAA18AE19AE2CC200D00F92ADB7BEB754
:100E100012961C930E93119784EA92E014969C9379
:100E20008E931397E0915005F0915105199582E04A
:100E300090E099838883FE01EE55FF4F81E0808327
:100E4000FE01ED55FF4FF182E0828E8B898FF88E87
:100E5000EF8A80913F0A9091400AAA2797FDA095BA
:100E6000BA2F8A8F9B8FAC8FBD8F0F900F900F90F2
:100E70000F90F6C1F982E882FE01EE55FF4F81E046
:100E80008083FE01ED55FF4FD182C0828E8B8E8F05
:100E9000F88EEF8A80913E0A90E0A0E0B0E08F8F5C
:100EA00098A3A9A3BAA30E94E4056BA37CA38DA376
:100EB0009EA30E94EF056FA378A789A79AA7D0C128
:100EC00082E090E099838883FE01EE55FF4F81E038
:100ED0008083FE01ED55FF4FD182C0828E8BFE01D3
:100EE000E756FF4F8083F88EEF8AFE01E656FF4FEC
:100EF00080915B0A90915C0AAA2797FDA095BA2F72
:100F000080839183A283B383C256DF4F80915D0AB1
:100F100090915E0AAA2797FDA095BA2F888399839E
:100F2000AA83BB839DC182E090E099838883FE0100
:100F3000EE55FF4F81E08083FE01ED55FF4FD182DA
:100F4000C0828E8BFE01E85AFF4F8083F88EEF8AB5
:100F500079E5C72ED12CCC0EDD1EF6011082118250
:100F60001282138280918A0990918B090E94DD037D
:100F7000882E9924AA24BB24D6018D929D92AD92ED
:100F8000BC9213978091A9099091AA090E94DD0350
:100F900090E0880F991F7C010027F7FC0095102F27
:100FA000E828F9280A291B29F601E082F182028348
:100FB00013838091C8099091C9090E94DD0390E0D4
:100FC000880F991F880F991FAA2797FDA095BA2F00
:100FD0008E299F29A02BB12BF60180839183A283B8
:100FE000B3834DE5C42ED12CCC0EDD1ED6011D924F
:100FF0001D921D921C92139780E899E00E944E0664
:10100000882E9924AA24BB24F60180829182A28290
:10101000B3828FE999E00E944E0690E0880F991FF5
:101020007C010027F7FC0095102FE828F9280A29F1
:101030001B29D601ED92FD920D931C9313978EEB15
:1010400099E00E944E0690E0880F991F880F991F23
:101050004C01AA2497FCA094BA2C8E289F28A02A81
:10106000B12AF60180829182A282B382FE01EF59F9
:10107000FF4F21E030E08091B3099091B409181638
:10108000190614F020E030E0220F331F442737FD0B
:101090004095542F81E090E06091D2097091D3097E
:1010A0001616170614F080E090E0880F991F880F3D
:1010B000991FAA2797FDA095BA2F822B932BA42BBB
:1010C000B52B21E030E040E050E060919409709150
:1010D0009509161617061CF020E030E0A901822BB6
:1010E000932BA42BB52B80839183A283B3838DEDA7
:1010F00099E00E944E0690E0A3E0880F991FAA9500
:10110000E1F77C010027F7FC0095102FE828F9286B
:101110000A291B29FDE5CF2ED12CCC0EDD1ED601D0
:10112000ED92FD920D931C9313978CEF99E00E9422
:101130004E0690E0E4E0880F991FEA95E1F7AA27B0
:1011400097FDA095BA2F8E299F29A02BB12BF601D0
:1011500080839183A283B383FE01EF59FF4F21E087
:1011600030E08091F1099091F2091816190614F0F7
:1011700020E030E073E0220F331F7A95E1F7442737
:1011800037FD4095542F81E090E06091100A7091F6
:10119000110A1616170614F080E090E064E0880F3C
:1011A000991F6A95E1F7AA2797FDA095BA2F822B80
:1011B000932BA42BB52BCF59DF4F288139814A813E
:1011C0005B81822B932BA42BB52B80839183A283ED
:1011D000B38346C082E090E099838883FE01EE5598
:1011E000FF4F81E08083FE01ED55FF4FD182C08229
:1011F0008E8BFE01EC56FF4F8083F88EEF8AFE0146
:10120000EB56FF4F8091570A8083FE01EA56FF4F4D
:101210008091580A8083FE01E956FF4F8091590A58
:101220008083C856DF4F80915A0A19C082E090E04F
:1012300099838883FE01EE55FF4F81E08083FE0194
:10124000ED55FF4FD182C0828E8BFE01EB59FF4FCF
:101250008083F88EEF8A0E94E803CA59DF4F8883A3
:1012600081E001C080E0DF91CF911F910F91FF904D
:10127000EF90DF90CF90BF90AF909F908F900895A8
:10128000CF93DF93EC018A859B850E94DD03882341
:10129000A1F18A8D882389F5888D998D009769F54C
:1012A00000D00F9283E090E0EDB7FEB79283818388
:1012B00086EB92E011C08A8D8823D9F0888D998DB4
:1012C0000097B9F400D00F9283E090E0EDB7FEB73D
:1012D0009283818389ED92E094838383E09150052A
:1012E000F091510519950F900F900F900F9080E09D
:1012F00001C081E0DF91CF910895CE010E944E069A
:101300008823C9F6F6CFCF92DF92EF92FF920F9328
:101310001F93CF93DF93EC018C899D8918161906D2
:101320000CF0A0C0CE010E944009882321F4CE0118
:101330000E942C0697C08A859B850E94DD03882326
:10134000F9F08A8D8823E1F4888D998D0097C1F496
:1013500000D00F9283E090E0EDB7FEB792838183D7
:1013600086EB92E094838383E0915005F0915105E0
:1013700019950F900F900F900F90CE010E942C06A0
:10138000CE010E944E068823F9F08A8D8823E1F071
:10139000888D998D0097C1F400D00F9283E090E082
:1013A000EDB7FEB79283818389ED92E094838383C6
:1013B000E0915005F091510519950F900F900F9005
:1013C0000F90CE010E942C060E94D21D2B8D3C8DC9
:1013D0004D8D5E8D7B018C01E21AF30A040B150B17
:1013E0002A893B8940E050E0E216F306040715071E
:1013F000C8F16B8F7C8F8D8F9E8F6E011C2FED2C13
:101400006E897F89CE010E941A02288D398D2F5F47
:101410003F4F398F288F2430310541F42C893D8985
:10142000215030403D8B2C8B198E188E2C893D8994
:10143000121613062CF0812F9E2D0E94850212C0D9
:101440008A8D882319F021E030E002C02FEF3FEFB2
:101450008E899F89820F931F688579850E947824E1
:101460009F8B8E8BDF91CF911F910F91FF90EF900B
:10147000DF90CF900895EF92FF920F931F93CF9339
:10148000DF938C01FC01828D882319F086E495E0BE
:1014900002C08CE395E07C01C0E0D0E0F7016191EF
:1014A00071917F01C8010E941A0262E370E080E03E
:1014B00090E00E94061E2196C530D10579F7DF9194
:1014C000CF911F910F91FF90EF900895CF92DF92EF
:1014D000EF92FF920F931F93CF93DF93EC018B0159
:1014E0007A0100D00F92E3E0CE2ED12CADB7BEB77B
:1014F0001296DC92CE9211978BEF92E014969C9309
:101500008E931397E0915005F0915105199500D0F5
:101510000F92EDB7FEB73196ADB7BEB71296DC921B
:10152000CE92119789E293E093838283158304839B
:10153000F782E682E0915005F09151051995EDB7DB
:10154000FEB738960FB6F894FEBF0FBEEDBF01157B
:10155000110509F445C0C701C297F3E0873B9F0717
:10156000C0F000D00F92ADB7BEB71296DC92CE920B
:1015700011978FE393E014969C938E931397E091C9
:101580005005F091510519950F900F900F900F9005
:101590001CC0FB8AEA8AEA8C81E0101611060CF066
:1015A00080E08A8F17FF03C0109501951F4F1D8B98
:1015B0000C8B1F8A1E8A198E188ECE010E9440093C
:1015C000882329F4CE010E942C0680E00AC0CE01B7
:1015D0000E9477028A8DE81619F0CE010E943B0A1C
:1015E00081E0DF91CF911F910F91FF90EF90DF90FD
:1015F000CF900895CF92DF92EF92FF920F931F93B7
:10160000CF93DF93EC018B0100D000D0EDB7FEB794
:101610003196A3E0EA2EF12CADB7BEB71296FC923C
:10162000EE92119786E593E0938382838881998176
:1016300095838483E0915005F09151051995EDB79C
:10164000FEB736960FB6F894FEBF0FBEEDBF888189
:1016500099818630910509F41CC18730910564F4A5
:1016600084309105D1F0853091050CF0F1C08130C6
:10167000910509F038C131C18830910509F4BEC027
:10168000883091050CF417C18C30910509F4D4C051
:101690008131910509F027C1AAC08DB79EB708977F
:1016A0000FB6F8949EBF0FBE8DBFEDB7FEB7319653
:1016B000ADB7BEB71296FC92EE92119789E793E010
:1016C00093838283DE01A455BF4F8D919D910D9030
:1016D000BC91A02D84839583A683B783E0915005A8
:1016E000F09151051995FE01E955FF4F8DB79EB751
:1016F00008960FB6F8949EBF0FBE8DBF80818823D9
:1017000009F42CC180913A0590913B050E942C066A
:10171000FE01E855FF4F8081918183309105B9F03A
:10172000843091053CF48130910559F08230910567
:1017300061F50AC08430910569F08530910529F57D
:101740000CC080E899E00BC08FE999E008C08EEBEF
:1017500099E005C08DED99E002C08CEF99E090937F
:101760003B0580933A05FE01E455FF4FE080F18090
:10177000FE01E055FF4FC080D180C655DF4F888104
:1017800099818130910561F40FC000D00F92ADB7FF
:10179000BEB712961C921E92119784E893E0ADC0DA
:1017A000F094E194F108F39480913A0590913B050F
:1017B000B9E08D3D9B0721F0E9E08C3F9E0769F47D
:1017C00085EF9FE06BE973E00E94172085EF9FE0B3
:1017D000B7014AE050E00E94BF2080913A05909105
:1017E0003B05B701A6010E94660A90E094C0809173
:1017F0003A0590913B050E942C0697C0C553DF4FD8
:1018000088819981AA81BB810097A105B10549F022
:1018100081E080933E0A8BE060E00E94271F87E30F
:1018200013C010923E0A8BE061E00E94271F87E3FD
:1018300060E00E94271F79C0C050DF4F88819981E6
:101840008130910519F48DE361E0F3CF8DE3F0CFA2
:10185000FE01E854FF4F61E070E020813181428158
:101860005381211531054105510511F460E070E007
:10187000CA54DF4F888199818130910511F48DE33D
:10188000D8CF8330910509F050C0CB010E940004ED
:101890004CC0C354DF4F88819981AA81BB8180935A
:1018A000530A9093540AA093550AB093560A81E0C4
:1018B0008093460A3AC0FE01EE53FF4F808191812A
:1018C0009093420A8093410ACA53DF4F88819981DD
:1018D0009093440A8093430A28C0CE01B8010E9425
:1018E000630691E018C000D00F92ADB7BEB7129654
:1018F0001C921E92119782EB93E014969C938E9308
:101900001397E0915005F091510519950F900F90A4
:101910000F900F9023C0882309F1992331F022E022
:1019200030E0F801318320832FC0F801EE55FF4FDE
:1019300081E0808383E090E0D80111969C938E93A0
:10194000F801ED55FF4F81E090E091838083F8012D
:10195000EB55FF4F9183808381E016C0F801EE556F
:10196000FF4F81E0808383E090E0F80191838083E2
:10197000ED55FF4F82E090E091838083F801EB55B5
:10198000FF4F9183808380E0DF91CF911F910F9172
:10199000FF90EF90DF90CF9008950F931F93CF9318
:1019A000DF9380913B0A8823B9F1C5ECDBE082E448
:1019B00091E0FE019C01119221503040E1F703E6D5
:1019C0001AE0F8019C01119221503040E1F760913A
:1019D0003C0A70913D0A8BE19AE0AE010E94FA0543
:1019E000882329F0CE01B8010E94FA0A13C000D062
:1019F0000F92EDB7FEB71282118280ED93E09483CF
:101A00008383E0915005F091510519950F900F9047
:101A10000F900F9010923B0A0E94B9050E94BB04E0
:101A200080913A0590913B050E9483098091460A76
:101A3000882319F00E94E70402C00E942405DF9168
:101A4000CF911F910F9108958F929F92AF92BF9265
:101A5000CF92DF92EF92FF920F931F9380E899E06D
:101A60006CE270E04FE250E02EE030E00FE010E07A
:101A7000F0E3EF2EF12CE1E3CE2ED12CBDE2AB2E24
:101A8000B12CAEE28A2E912C0E9416038FE999E0C8
:101A900066E270E045E250E020E130E001E110E074
:101AA000FAE2EF2EF12CEBE2CE2ED12CB8E2AB2EE7
:101AB000B12CA9E28A2E912C0E9416038EEB99E09C
:101AC00062E270E04FE150E02AE030E00BE010E02D
:101AD000F3E2EF2EF12CE4E2CE2ED12CB0E2AB2ECD
:101AE000B12CA1E28A2E912C0E9416038DED99E073
:101AF00066E170E049E150E021E130E001E110E011
:101B0000F1E1EF2EF12CEAE1CE2ED12CB7E1AB2E94
:101B1000B12CA8E18A2E912C0E9416038CEF99E03B
:101B20006BE170E047E250E021E130E0FEE1CF2ED2
:101B3000D12CECE1AE2EB12CBDE18B2E912C0E946C
:101B400016031F910F91FF90EF90DF90CF90BF9001
:101B5000AF909F908F9008958F929F92AF92BF9277
:101B6000CF92DF92EF92FF920F931F93DF93CF9369
:101B7000CDB7DEB7ADB6BEB69DB68B2CE889F98978
:101B80008091070D9091080D8E179F070CF494C05B
:101B90008DB79EB7805091400FB6F8949EBF0FBE90
:101BA0008DBFEDB6FEB60894E11CF11CDE2CCF2CE7
:101BB000EE0FFF1FEE5AFA4F30812181E32FF22FF3
:101BC000DF010D900020E9F71197AE1BBF0BEDB7B9
:101BD000FEB738970FB6F894FEBF0FBEEDBF4DB7F6
:101BE0005EB74F5F5F4FE182FA01F182B383A28358
:101BF0008BEE93E095838483368327830E94D524DC
:101C0000E80EF91E00E011E0081B190BFE017496A6
:101C10008DB79EB708960FB6F8949EBF0FBE8DBFC6
:101C2000C701B8014A895B899F010E94132580176B
:101C3000910784F000D000D0EDB7FEB73196ADB774
:101C4000BEB71296FC92EE921197028313838EEE2A
:101C500093E011C097FF1BC000D000D0EDB7FEB7D6
:101C60003196ADB7BEB71296FC92EE9211970283F1
:101C700013838FE194E0958384830E94D524EDB78C
:101C8000FEB736960FB6F894FEBF0FBEEDBF80913B
:101C9000090D90910A0D009721F08130910551F4C2
:101CA00003C085EF9FE002C084E190E16D2D7C2DA3
:101CB0000E94F71F940104C0EDB6FEB63DB72F2D6C
:101CC000832F922F0FB6F8949EBF0FBE8DBF0FB615
:101CD000F894BEBE0FBEADBECF91DF911F910F91A4
:101CE000FF90EF90DF90CF90BF90AF909F908F903C
:101CF0000895CF92DF92EF92FF920F931F93CF93AD
:101D0000DF937C018A01FC01C281D381CE010E9454
:101D1000C524C00FD11FF701D383C28381E0DF91B7
:101D2000CF911F910F91FF90EF90DF90CF9008958A
:101D3000DF93CF93CDB7DEB728970FB6F894DEBF09
:101D40000FBECDBF29E73EE03A8329838B839C8376
:101D50006D837E8318861F823A81AC0180E098856E
:101D600028960FB6F894DEBF0FBECDBFCF91DF919E
:101D700008950F931F93CF93DF93EC018A01E881BD
:101D8000F981309769F08E819F81840F951F2C8196
:101D90003D812817390760F0CE011995882341F05D
:101DA0008E819F81800F911F9F838E8381E001C070
:101DB00080E0DF91CF911F910F910895AF92BF9274
:101DC000CF92DF92EF92FF920F931F93DF93CF9307
:101DD000CDB7DEB762970FB6F894DEBF0FBECDBFAA
:101DE0006C01E02F0B87F12F1C87A22F2D87B32FBB
:101DF0003E87E42E4F87A52E588B862F698B972F11
:101E00007A8B9F01AD016E2D7A2DE32BE42BE52B10
:101E1000EE29EA29E82BE92B39F05E010894A11C90
:101E2000B11CEE24FF2412C0C601BE01655F7F4FC6
:101E300041E050E027C0E22FE068D501ED935D015D
:101E400007E00E9438010894E11CF11CE22FE32B0B
:101E5000E42BE52BE62BE72BE82BE92B61F72B870F
:101E60003C874D875E876F87788B898B9A8BFE01C5
:101E7000EE0DFF1D80818F778083C601BE016F5FED
:101E80007F4FA7010E94B90E62960FB6F894DEBF8D
:101E90000FBECDBFCF91DF911F910F91FF90EF90BB
:101EA000DF90CF90BF90AF9008958F929F92AF92A6
:101EB000BF92CF92DF92EF92FF920F931F93FA019E
:101EC000DB0114962C911497223069F0233018F41A
:101ED000213029F505C0243071F0283001F510C0FB
:101EE0008080992402C080809180AA24BB24CC24C5
:101EF000DD2476010DC080809180A280B380F7CF71
:101F000080809180A280B380C480D580E680F780F5
:101F100084019501A601B7010E94DE0E01C080E098
:101F20001F910F91FF90EF90DF90CF90BF90AF90F7
:101F30009F908F9008950F931F93CF93DF93EC01A1
:101F4000B22FA32FF42FE52FCB0197FD0BC09801E3
:101F50004B2F5A2F6F2F7E2F01E00E94A901F82FDF
:101F6000E92F12C098014B2F5A2F6F2F7E2F01E0BF
:101F70000E94A901209530954095509560957095E7
:101F8000F82FF095E92FE095CE0189019A01AB0178
:101F90006F2F7E2F0E94DE0EDF91CF911F910F9148
:101FA0000895EF92FF920F931F93FA01DB011496AD
:101FB0002C911497243019F0283001F512C040817B
:101FC000518162817381B42FA52F9B017A018B010E
:101FD000110FEE08FE2C87014E2D5E2D6E2D7E2DED
:101FE00008C0B081A18122813381448155816681FD
:101FF00077810B2F1A2F0E949B0F01C080E01F9149
:102000000F91FF90EF90089544E050E00E94B90EC8
:102010000895BA010E940410089548E050E00E941B
:10202000B90E0895BA010E940D1008958F929F92E3
:10203000AF92BF92CF92DF92EF92FF920F931F93D6
:10204000E3E0220F331F441F551FEA95D1F74B01E0
:10205000AA24BB24282939294A295B2949015A0184
:102060008901950140E050E060E070E00E94DE0EE2
:102070001F910F91FF90EF90DF90CF90BF90AF90A6
:102080009F908F900895FB01218130E02F70307078
:102090002230310599F0233031053CF023303105F1
:1020A00039F0273031059CF406C060E070E008C0CC
:1020B00061E070E005C062E070E002C065E070E0E1
:1020C000208130E040E050E00E941610089580E04A
:1020D00008952F923F924F925F926F927F928F92CC
:1020E0009F92AF92BF92CF92DF92EF92FF920F93A7
:1020F0001F93DF93CF93CDB7DEB762970FB6F894F7
:10210000DEBF0FBECDBF2C01242E352E662E772EBE
:102110001E861D869E012F5F3F4F3A8B298B34C14F
:10212000D30111968C91119790E0AC014F705070D3
:10213000FA01EE0FFF1FED5BF64F608171817C8726
:102140006B8712963C9112976D857E85630F711D8A
:10215000260E371E1396EC911397FF27E7FDF09597
:10216000E20DF31D14963C91A32FB0E0BE87AD871E
:10217000807F90708032910581F4D30115968C9107
:1021800090E0AD85BE85A89FB001A99F700DB89F56
:10219000700D11247E876D8731C080319105D9F093
:1021A000813191051CF4009749F0EAC08032910515
:1021B00029F18033910509F0E3C0D3C0C201B30116
:1021C0000E944310882309F4E6C0C201B301A101B3
:1021D000EB85FC85D2C08081882309F4D1C0C2017F
:1021E000B3010E944310882309F4D5C0C201B30192
:1021F000A1012B853C85F9011995C0C060817181D1
:102200007A8769876115710509F4BAC044305105B0
:1022100024F0410100E010E09EC030E040E050E0DA
:10222000C20162E070E00E941610882309F4B3C076
:10223000D30111968C91119790E08F70907082303D
:10224000910549F4E985FA85EE0FFF1FEE0FFF1F98
:10225000F88BEF8731C08330910541F429853A85A9
:10226000F3E0220F331FFA95E1F724C0A989BA8958
:10227000E8E01D92EA95E9F7410100E010E013C0A3
:10228000CE010196B301A4012B853C85F901199576
:10229000882309F480C0D30114968C911497880E7A
:1022A000911C0F5F1F4FE985FA850E171F0740F33A
:1022B0002F813885388B2F876F857889C2018B01F4
:1022C00020E030E040E050E060E070E00E94DE0E90
:1022D000882309F460C0D2018D919C9111970097D9
:1022E00021F0410100E010E019C0C20160E070E09F
:1022F0004F8558890E94B90E41C0C201B301A401A3
:10230000EB85FC851995882309F445C0D301149603
:102310008C911497880E911C0F5F1F4FE985FA85E9
:102320000E171F0750F32CC0C201B3010E944310C7
:10233000882389F1C201B301A4012B853C85F901F1
:102340001995882341F1D30114968C911497880E26
:10235000911C0F5F1F4FE985FA850E171F0720F3A9
:102360000FC0D101ED91FC911197309749F0129671
:102370004D915C911397C201B3011995882359F0CF
:10238000E8E0F0E06E0E7F1ED3012C91222309F0CD
:10239000C7CE81E001C080E062960FB6F894DEBF40
:1023A0000FBECDBFCF91DF911F910F91FF90EF90A6
:1023B000DF90CF90BF90AF909F908F907F906F9065
:1023C0005F904F903F902F9008954F925F926F9241
:1023D0007F928F929F92AF92BF92CF92DF92EF92B5
:1023E000FF920F931F93CF93DF93EC012B013A01E0
:1023F0008A0120E030E040E050E060E070E00E94C0
:10240000DE0E882331F0CE01B201A3010E94B90E85
:1024100001C080E0DF91CF911F910F91FF90EF906D
:10242000DF90CF90BF90AF909F908F907F906F90F4
:102430005F904F900895FA0101900020E9F73197DD
:10244000E41BF50BBA01AF010E94E5110895FA01F2
:10245000BA016E5F7F4F408151810E94E51108955E
:102460002F923F924F925F926F927F928F929F92A4
:10247000AF92BF92CF92DF92EF92FF920F931F9392
:10248000DF93CF93CDB7DEB72C970FB6F894DEBFAE
:102490000FBECDBF3C017A8769875C874B871E01E1
:1024A0000894211C311C88E0F10111928A95E9F70A
:1024B000C10169857A854B855C850E9469108823F6
:1024C00009F446C04F805884C301820120E030E007
:1024D00040E050E060E070E00E94DE0E8823C1F131
:1024E000F301208131812115310539F4C30160E008
:1024F00070E0A2010E94B90E2CC0F3018681978181
:10250000840D951D448155814817590708F13A8378
:102510002983828193819C838B835E824D8218867E
:102520001F82C10169857A854B855C850E9469108F
:102530004F815885F30126813781240F351F37835A
:1025400026832B813C81338322834415550509F072
:1025500080E02C960FB6F894DEBF0FBECDBFCF91B2
:10256000DF911F910F91FF90EF90DF90CF90BF9080
:10257000AF909F908F907F906F905F904F903F9023
:102580002F900895FB01668177816115710519F01F
:102590000E943012089580E00895FC01A281B38169
:1025A00014962C91149730E011968C91119790E02D
:1025B000807F90708032910569F415968C91159703
:1025C00090E0A901489F9001499F300D589F300D20
:1025D000112407C0009729F486819781019697837B
:1025E0008683CD01089693838283848195810196A9
:1025F0009583848318968C911897882381F4808121
:10260000918193838283158214821782168280853A
:1026100091859387828720E030E080E001C081E0EF
:10262000A281B38112969C911297A901490F511D65
:1026300022853385240F351F3387228713964C91CB
:102640001397552747FD5095420F531F55874487D1
:102650000895CF92DF92EF92FF920F931F93CF9343
:10266000DF937C018A01FC01C281D3816115710570
:1026700021F0CB01BE010E94C524C00FD11FF7017C
:10268000D383C28381E0DF91CF911F910F91FF909F
:10269000EF90DF90CF9008950F931F93DF93CF9328
:1026A000CDB7DEB72E970FB6F894DEBF0FBECDBF05
:1026B000FC019C838B839A8389831E821D821886EA
:1026C0001F8282819B01280F311D3C872B878381CC
:1026D000992787FD9095820F931F9E878D877A8714
:1026E00069878E010F5F1F4FEB81FC8180818823FA
:1026F000A9F1218130E0C901807F9070803191057E
:1027000021F4AD85BE851C920BC08032910529F461
:10271000ED85FE851182108221C080339105F1F094
:10272000C9018F709070268137818630910531F410
:102730006B857C85C9010E944C1310C08B859C85DC
:1027400044812115310529F0B90150E00E94C524CA
:1027500005C060E070E050E00E94CE24C8010E94F5
:10276000CD12882309F62E960FB6F894DEBF0FBE61
:10277000CDBFCF91DF911F910F910895CF92DF923E
:10278000EF92FF920F931F93DF93CF93CDB7DEB7F6
:1027900060970FB6F894DEBF0FBECDBF8C017A01F3
:1027A0006115710529F5DC018D919C911197B3E1BB
:1027B00089329B0779F41CC0C801B60140E150E0A2
:1027C0000E94BE13882309F447C0E0EFFFEFEE0E2E
:1027D000FF1E04C06E010894C11CD11CF1E1EF166C
:1027E000F10450F7C801B601A7010E94BE1335C01D
:1027F000D80114968D919C9115978E159F0568F4BC
:1028000016968D919C911797009731F586E594E087
:1028100017969C938E9316971FC0D801ED91FC914B
:10282000C801A7011995882351F4F8018681978181
:10283000009791F484E694E0978386830DC0D801D5
:1028400014968D919C9115978E199F0915969C93BE
:102850008E93149781E001C080E060960FB6F894E3
:10286000DEBF0FBECDBFCF91DF911F910F91FF90C3
:10287000EF90DF90CF900895DF93CF93CDB7DEB781
:1028800028970FB6F894DEBF0FBECDBF29E233E123
:102890003A8329838B839C836D837E833A81AC0149
:1028A0008F81988528960FB6F894DEBF0FBECDBFF6
:1028B000CF91DF9108958F929F92AF92BF92CF9266
:1028C000DF92EF92FF920F931F93DF93CF930F92BC
:1028D000CDB7DEB75C017B01DB011C9211961C9227
:1028E000119712961C92129713961C921397149696
:1028F0001C92149715961C92159716961C92169773
:1029000017961C921797CC24DD244E010894811C45
:10291000911C4CC01981212F2F7730E040E050E00E
:1029200060E070E080E090E00C2D0E94A901D701EA
:10293000EC91E22BEC9311962C911197232B11968D
:102940002C93119712962C911297242B12962C935C
:10295000129713962C911397252B13962C9313975C
:1029600014962C911497262B14962C931497159645
:102970002C911597272B15962C93159716962C911D
:102980001697282B16962C93169717968C911797B7
:10299000892B17968C93179717FF1FC0E7E0F0E07D
:1029A000CE0EDF1EF6E4CF16D10449F0C501B40106
:1029B00041E050E00E94BE13882309F0ABCFD5015F
:1029C00016968D919C911797009749F48DE694E0A7
:1029D00017969C938E93169702C081E001C080E009
:1029E0000F90CF91DF911F910F91FF90EF90DF90AB
:1029F000CF90BF90AF909F908F9008950F931F93AB
:102A0000DF93CF93CDB7DEB728970FB6F894DEBF2C
:102A10000FBECDBF8B01BE016F5F7F4F0E945B1465
:102A200029813A814B815C81F80120833183428383
:102A3000538328960FB6F894DEBF0FBECDBFCF915B
:102A4000DF911F910F9108958F929F92AF92BF9245
:102A5000CF92DF92EF92FF920F931F93DF93CF936A
:102A600000D00F92CDB7DEB78C017B014A01BE01C9
:102A70006F5F7F4F0E94FE14882349F1A980BA80BE
:102A8000CB80DC80A60195012F5F3F4F4F4F5F4FFA
:102A9000F701848190E0A0E0B0E082179307A407DB
:102AA000B50750F4F80186819781009781F48DE78E
:102AB00094E0978386830BC0C801B401A5010E94EE
:102AC000BE13E981FA81E80DF91D108201C080E092
:102AD0000F900F900F900F90CF91DF911F910F915A
:102AE000FF90EF90DF90CF90BF90AF909F908F902E
:102AF0000895EF92FF920F931F93DF93CF9300D02F
:102B000000D0CDB7DEB78C017B01BE016F5F7F4F78
:102B10004D835E830E94FE144D815E818823E9F01F
:102B2000BA0149815A81FB0151834083F7018481B5
:102B300090E002978417950750F4F80186819781F9
:102B4000009759F48DE894E09783868306C06E5F02
:102B50007F4FC8010E94BE1301C080E026960FB6C9
:102B6000F894DEBF0FBECDBFCF91DF911F910F91C3
:102B7000FF90EF900895CF92DF92EF92FF920F9324
:102B80001F93DF93CF93CDB7DEB728970FB6F89496
:102B9000DEBF0FBECDBF7C016B018A01BE016F5F3E
:102BA0007F4F0E945B14F6019481923071F0933054
:102BB00018F4913061F505C0943069F0983039F51A
:102BC00014C09981F80190832CC029813A81F801C1
:102BD0003183208326C029813A814B815C81F801B1
:102BE00020833183428353831CC09981F8019083F1
:102BF0009A8191839B8192839C8193839D8194830D
:102C00009E8195839F819683988597830AC0F7015B
:102C100086819781009721F48CE994E097838683DD
:102C200080E028960FB6F894DEBF0FBECDBFCF91DF
:102C3000DF911F910F91FF90EF90DF90CF9008955B
:102C4000EF92FF920F931F93DF93CF930F92CDB725
:102C5000DEB77C018E010F5F1F4FC701B80141E055
:102C600050E00E94BE13882329F0898187FDF5CFAB
:102C700081E001C080E00F90CF91DF911F910F9113
:102C8000FF90EF9008950F931F93DF93CF9300D0A1
:102C90000F92CDB7DEB78C01BE016F5F7F4F0E94F0
:102CA000FE14882341F049815A81C80160E070E038
:102CB0000E94BE1301C080E00F900F900F900F9004
:102CC000CF91DF911F910F910895AF92BF92CF9254
:102CD000DF92EF92FF920F931F93DF93CF9300D079
:102CE0000F92CDB7DEB76C015B017A018901F90162
:102CF0001082FB0111821082FA011082118212826D
:102D00001382BE016F5F7F4F0E94FE14882331F44F
:102D1000F60184819581009711F508C089819A8117
:102D2000AB81BC810097A105B10521F481E0F801D8
:102D3000808315C09C01AD0163E05695479537959A
:102D400027956A95D1F7F701208331834283538316
:102D500087709070F5019183808381E001C080E0ED
:102D60000F900F900F900F90CF91DF911F910F91C7
:102D7000FF90EF90DF90CF90BF90AF9008956130BB
:102D8000710569F06130710538F06230710561F0EC
:102D90006530710599F40BC00E942016089560E01B
:102DA00070E048E050E007C00E944316089560E0DC
:102DB00070E044E050E00E94BE130895FC012681BB
:102DC00037812115310531F42EEA34E0378326832B
:102DD00080E0089580E00895EF92FF920F931F9393
:102DE000DF93CF9300D00F92CDB7DEB78C017B017C
:102DF000BE016F5F7F4F0E94FE14882361F1D701EF
:102E0000F80188E001900D928150E1F789819A8163
:102E1000AB81BC81F7012481358140E050E0281767
:102E200039074A075B0750F4F801868197810097BC
:102E300091F480EC94E0978386830DC09C01F701A8
:102E400095838483F80184819581821B930B9583FC
:102E5000848381E001C080E00F900F900F900F906D
:102E6000CF91DF911F910F91FF90EF9008952F92D6
:102E70003F924F925F926F927F928F929F92AF920A
:102E8000BF92CF92DF92EF92FF920F931F93DF9347
:102E9000CF93CDB7DEB7AF970FB6F894DEBF0FBEB6
:102EA000CDBF8C011A01FE01389688E0DF011D922A
:102EB0008A95E9F77DA36CA37BA36AA31FA21EA238
:102EC00019A618A6DB0112968C9112979A01280F69
:102ED000311D3DA72CA713968C911397992787FD39
:102EE0009095820F931F9FA78EA75BA74AA790E19B
:102EF000692E712C6C0E7D1E88E1482E512C4C0ED3
:102F00005D1E4B018EC1C801BE016E5F7F4FAE01D9
:102F10004C5F5F4F9E012F5F3F4F0E9465168823D5
:102F200031F464018981882309F084C1D9C1CC803E
:102F3000DD80EE80FF80AEA0BFA06CA17DA1FB0173
:102F4000808190E0A0E0B0E08C159D05AE05BF0546
:102F500051F0CE0182960E94CD128EA19FA18A15BA
:102F60009B0559F7D6C1DB0111964C91119750E0A2
:102F7000CA01807F90700097F1F428A539A520340C
:102F80003105CCF4F901B3E0F595E795BA95E1F791
:102F9000A8E0B0E0AC0FBD1FEA0FFB1FD901A7707E
:102FA000B07021E030E002C0220F331FAA95E2F793
:102FB000A081A22BA0832A813B814F705070FA011F
:102FC000EE0FFF1FEF5AF64FC080D1808031910580
:102FD00071F0813191051CF4009769F014C18032C1
:102FE000910561F08033910509F00DC17EC0EEA519
:102FF000FFA5B1E0B0834CA55DA573C022303105BB
:1030000009F046C0443051050CF042C0EEA4FFA4C4
:10301000C801B3010E94EC168823E9F460C1FB01EA
:10302000248130E0829FF001839FF00D929FF00D8C
:1030300011244CA55DA54E0F5F1FC301F601199524
:10304000882309F44CC1D7018D919C911197019669
:1030500011969C938E932C893D892115310569F039
:10306000F701808191816CA17DA1DB0115964C91C6
:10307000159750E08417950790F281E021153105EE
:1030800009F080E02A893B89F80133832283C6C096
:10309000EEA5FFA5ECA4FDA4DB0114962C911497DA
:1030A0008081918115964C91159750E08417950772
:1030B00048F0F80186819781009709F010C188EDEA
:1030C00094E0A9C0AC014F5F5F4F5183408330E073
:1030D000829FA001839F500D929F500D11244E0D91
:1030E0005F1DC801F601199599C0CCA4DDA4D601D5
:1030F0008D919C911197009719F4C801B9010CC1E9
:103100002230310541F5C801B3010E94EC16882335
:10311000C1F4E5C06CA17DA1F6014281538101900B
:10312000F081E02DC3011995882359F4D801169632
:103130008D919C911797009709F0D1C087EE94E08C
:10314000C2C08C899D89009729F78A899B89F801DB
:103150009383828366C02130310509F12130310526
:1031600020F02530310579F524C05201EE24FF24EA
:103170000894E11CF11CFBE0EF16F10409F4AFC068
:10318000C801B50141E050E00E94BE13882309F454
:10319000A6C0D5018D915D0187FDEACF20C0C80191
:1031A000B20148E050E00E94BE13B8E0EB2EF12CD3
:1031B00013C0C801B20144E050E00E94BE13A4E075
:1031C000EA2EF12C09C0F80186819781009709F059
:1031D00086C08EEA94E01FC0882309F480C089E28B
:1031E00093E1998B888B5B8A4A8AFD8AEC8A6CA171
:1031F0007DA1D60112964D915C911397ED91FC91B2
:10320000C30119950BC0F80186819781009709F0D9
:1032100066C087EF94E09783868361C0882309F4B2
:103220005EC0D80114968D919C911597009709F076
:103230006ACE6401DDA2CCA2DBA2CAA21FA21EA29A
:1032400019A618A6F60182819101280F311D3DA70C
:103250002CA78381992787FD9095820F931F9FA7A5
:103260008EA73BA62AA6F8E0EF2EF12CEC0EFD1E51
:10327000E2E2CE2ED12CCC0EDD1EECA1FDA181818F
:10328000807F31F528A539A5203431050CF5F901E9
:1032900073E0F595E7957A95E1F7EE0DFF1D8081D6
:1032A00090E02770307002C0959587952A95E2F7D7
:1032B00080FD0EC0D80116968D919C9117970097AE
:1032C00071F48AE095E017969C938E93169707C049
:1032D000C6010E94CD12882381F681E001C080E002
:1032E000AF960FB6F894DEBF0FBECDBFCF91DF9182
:1032F0001F910F91FF90EF90DF90CF90BF90AF9014
:103300009F908F907F906F905F904F903F902F9005
:1033100008956A817B81C8010E94BF167FCFEF921A
:10332000FF920F931F93CF93DF937C018B01EA01F0
:10333000CB01BA010E944C13C701B801AE010E9433
:103340003717DF91CF911F910F91FF90EF90089564
:10335000AF92BF92CF92DF92EF92FF920F931F93A3
:10336000DF93CF93CDB7DEB72A970FB6F894DEBFC1
:103370000FBECDBF7C018B01FB01A680B7806E0123
:103380000894C11CD11CB60149875A870E94EC16CB
:1033900049855A85882319F1F8018681978100971C
:1033A00051F4F701868197810097C9F481E295E095
:1033B0009783868314C0F8018181807F803229F44D
:1033C000C601B5010E948F1904C0C601B5010E9453
:1033D00037172B813C81F7013383228301C080E0C2
:1033E0002A960FB6F894DEBF0FBECDBFCF91DF9106
:1033F0001F910F91FF90EF90DF90CF90BF90AF9013
:1034000008956F927F928F929F92AF92BF92CF92C8
:10341000DF92EF92FF920F93DF93CF93CDB7DEB79A
:1034200028970FB6F894DEBF0FBECDBF7B01BE015B
:103430006F5F7F4F0E945B148823B9F169807A80A7
:103440008B809C80AD80BE80CF80D884C30181708A
:1034500090700097C1F09301A401B501C60101E08D
:103460000E9438012095F7012083309531834095E3
:1034700042835095538360956483709575838095DE
:10348000868390950FC09301A401B501C60101E0A8
:103490000E943801F7012083318342835383648380
:1034A00075838683978381E001C080E028960FB6FC
:1034B000F894DEBF0FBECDBFCF91DF910F91FF908B
:1034C000EF90DF90CF90BF90AF909F908F907F90C4
:1034D0006F900895CF92DF92EF92FF920F931F9318
:1034E000DF93CF93CDB7DEB728970FB6F894DEBF42
:1034F0000FBECDBF7C016B018A01BE016F5F7F4FA4
:103500000E94011AF6019481943019F09830E9F480
:103510000AC029813A814B815C81F8012083318383
:10352000428353831CC09981F80190839A819183CF
:103530009B8192839C8193839D8194839E819583BB
:103540009F819683988597830AC0F701868197812A
:10355000009721F48CE994E09783868380E0289695
:103560000FB6F894DEBF0FBECDBFCF91DF911F9194
:103570000F91FF90EF90DF90CF90089544E050E0DE
:103580000E94BE130895BA010E94BE1A089548E031
:1035900050E00E94BE130895BA010E94C71A089510
:1035A00020912C0D30E080912B0D281B3109C90191
:1035B000089580912B0D90912C0D891750F4E82FD0
:1035C000F0E0E55FF24F208130E08F5F80932B0DBC
:1035D00002C02FEF3FEFC9010895E0912B0D8091BC
:1035E0002C0DE81730F4F0E0E55FF24F208130E079
:1035F00002C02FEF3FEFC90108950895CF93DF93E5
:103600009C01CB01E091520DF091530D3097D9F010
:1036100050912B0D40912C0D5417A8F060E009C07B
:10362000DA01A55FB24F420F531FEA0148814C9364
:103630006F5F462F50E04817590794F310922B0DF7
:1036400080932C0D1995DF91CF910895E091500D45
:10365000F091510D309729F010924D0D10924E0DB2
:1036600019950895CF92DF92EF92FF920F931F93D7
:10367000CF93DF936C01CB01EA0120914F0D222300
:10368000B1F0E62EF92E00E010E00DC0D7016D91EB
:103690007D01D601ED91FC910190F081E02DC601F4
:1036A00019950F5F1F4F0C171D0780F303C0642F80
:1036B0000E94F41BCE01DF91CF911F910F91FF90DB
:1036C000EF90DF90CF900895DF93CF930F92CDB717
:1036D000DEB7698320914F0D2223D1F020914E0D4A
:1036E000203240F021E030E0FC013383228320E0EF
:1036F00030E015C080914D0DE82FF0E0E35DF24F12
:10370000998190838F5F80934D0D80934E0D05C0FE
:10371000CE01019661E00E94F41B21E030E0C90176
:103720000F90CF91DF91089510922B0D10922C0DD8
:1037300010924D0D10924E0D0E94D71B0895CF93FD
:10374000DF93EC01862F0E94F01B86E29BE10E9432
:10375000131C8EEF9AE10E940E1CCE010E94941B56
:10376000DF91CF9108950E949F1B08957093530D90
:103770006093520D08957093510D6093500D08950C
:103780001092570D1092560D88EE93E0A0E0B0E035
:103790008093580D9093590DA0935A0DB0935B0DE3
:1037A00083E699E09093550D8093540D08951092FF
:1037B000840D84E161E00E94271F85E161E00E94A1
:1037C000271FE9EBF0E080818E7F808380818D7FF1
:1037D000808388E48093B80085E48093BC000895DA
:1037E000880F8093BA0008956132A0F42091840D6F
:1037F000243091F46093A90DDC01ECEAFDE070E067
:103800006E0F7F1F02C08D918193E617F707D9F7DE
:1038100080E0089581E0089582E008959093A70DD7
:103820008093A60D08959093AB0D8093AA0D0895F3
:10383000882311F085EC01C085E88093BC000895D1
:1038400085ED8093BC008091BC0084FDFCCF10927C
:10385000840D089585EC8093BC001092840D08952A
:103860001F920F920FB60F920BB60F9211242F9347
:103870003F934F935F936F937F938F939F93AF93F8
:10388000BF93EF93FF938091B90090E0887F907091
:103890008036910509F4C2C081369105E4F588327D
:1038A000910509F47EC089329105C4F480319105F7
:1038B00009F472C08131910544F4009709F413C1F1
:1038C0008830910509F013C167C08831910509F46A
:1038D00068C08032910509F00AC178C08034910532
:1038E00009F48AC0813491054CF48033910509F4C0
:1038F0006FC08833910509F0FAC06EC0803591051C
:1039000009F46EC08835910509F47BC088349105AF
:1039100009F0EDC0EAC08839910509F4DAC08939A7
:103920009105ECF48837910509F478C08937910541
:103930004CF48836910509F471C08037910509F07F
:10394000D6C06CC08838910509F4C3C08039910590
:1039500009F46AC08038910509F0C9C065C0803B90
:10396000910509F48EC0813B91054CF4803A910594
:1039700009F46CC0883A910509F0B9C082C0803C56
:10398000910509F4AAC0883C910509F4A6C0883BBA
:10399000910509F0ACC08AC08091600D8093BB0096
:1039A00013C09091610D8091620D981708F09DC031
:1039B0008091610DE82FF0E0ED59F24F90819093E6
:1039C000BB008F5F8093610D81E084C080E201C005
:1039D00080E38093830D89C088E38093830D4EC07C
:1039E0008091610D9091BB00E82FF0E0ED59F24F0E
:1039F00090838F5F8093610D9091610D8091620D36
:103A000065C08091610D9091BB00E82FF0E0ED5909
:103A1000F24F90838F5F8093610D67C083E0809346
:103A2000840D1092850DD0CF8091850D803208F0E5
:103A300050C08091850D9091BB00E82FF0E0EA57CF
:103A4000F24F90838F5F8093850DBECF8091850D5F
:103A5000803230F4E091850DF0E0EA57F24F1082A9
:103A60000E94201C6091850DE091A60DF091A70D9C
:103A700086E89DE070E019951092850D0E942A1C41
:103A800036C084E08093840D1092A80D1092A90D89
:103A9000E091AA0DF091AB0D19958091A90D8823A5
:103AA00029F481E08093A90D1092AC0D8091A80DAE
:103AB000E82FF0E0E455F24F90819093BB008F5FC8
:103AC0008093A80D9091A80D8091A90D981708F4E6
:103AD0007BCF80E00E94181C0AC081E00E94181C65
:103AE0001092840D04C01092830D0E94201CFF913F
:103AF000EF91BF91AF919F918F917F916F915F9166
:103B00004F913F912F910F900BBE0F900FBE0F90D2
:103B10001F9018951F920F920FB60F9211242F939A
:103B20003F938F939F93AF93BF938091D00D9091CC
:103B3000D10DA091D20DB091D30D3091D40D01963D
:103B4000A11DB11D232F2D5F2D3720F02D5701967C
:103B5000A11DB11D2093D40D8093D00D9093D10D54
:103B6000A093D20DB093D30D8091CC0D9091CD0D3B
:103B7000A091CE0DB091CF0D0196A11DB11D8093E6
:103B8000CC0D9093CD0DA093CE0DB093CF0DBF91E2
:103B9000AF919F918F913F912F910F900FBE0F90FA
:103BA0001F9018958FB7F8942091D00D3091D10DBA
:103BB0004091D20D5091D30D8FBFB901CA01089524
:103BC0009FB7F8942091CC0D3091CD0D4091CE0D42
:103BD0005091CF0D86B5A89B06C08F3F21F02F5F77
:103BE0003F4F4F4F5F4F9FBF542F432F322F2227FE
:103BF000280F311D411D511D82E0220F331F441F2C
:103C0000551F8A95D1F7B901CA010895EF92FF9225
:103C10000F931F93CF93DF937B018C010E94E01DD4
:103C2000EB010FC00E94E01D6C1B7D0B83E0683E22
:103C3000780738F00894E108F10801091109C85122
:103C4000DC4FE114F1040105110561F7DF91CF911B
:103C50001F910F91FF90EF900895789484B5826042
:103C600084BD84B5816084BD85B5826085BD85B520
:103C7000816085BDEEE6F0E0808181608083E1E8CF
:103C8000F0E0108280818260808380818160808307
:103C9000E0E8F0E0808181608083E1EBF0E080810A
:103CA00084608083E0EBF0E0808181608083E1E9E3
:103CB000F0E0808182608083808181608083E0E9A0
:103CC000F0E0808181608083E1EAF0E080818260C1
:103CD0008083808181608083E0EAF0E08081816080
:103CE0008083E1E2F1E08081826080838081816075
:103CF0008083E0E2F1E0808181608083EAE7F0E0A8
:103D00008081846080838081826080838081816003
:103D100080838081806880831092C10008958930FB
:103D200009F449C08A30A0F4843051F1853040F460
:103D3000823079F1833000F5813009F063C026C00C
:103D4000873079F1883098F5863009F05BC025C05E
:103D50008D3009F442C08E3028F48B30B1F18C30B4
:103D6000C0F52DC0803109F442C0813109F445C04D
:103D70008F3009F047C037C0809180008F7703C033
:103D8000809180008F7D80938000089584B58F7727
:103D900002C084B58F7D84BD08958091B0008F7777
:103DA00003C08091B0008F7D8093B0000895809112
:103DB00090008F7707C0809190008F7D03C0809125
:103DC0009000877F8093900008958091A0008F7766
:103DD00007C08091A0008F7D03C08091A000877FE5
:103DE0008093A0000895809120018F7703C0809177
:103DF00020018F7D80932001089580912001877F8D
:103E000080932001089590E0FC01E858FE4F249132
:103E1000FC01EE5CFE4FE491EE23C1F0F0E0EE0F0A
:103E2000FF1FEC51FF4F85919491DC01662341F413
:103E30009FB7F8948C91209582238C939FBF08950F
:103E40009FB7F8948C91822B8C939FBF08950F930A
:103E50001F93DF93CF930F92CDB7DEB7282F30E0BB
:103E6000F901E254FE4F8491F901E858FE4F149194
:103E70002E5C3E4FF90104910023D9F0882321F0F4
:103E800069830E948F1E6981E02FF0E0EE0FFF1F13
:103E9000E250FF4F85919491DC019FB7F89466231F
:103EA00021F48C911095812302C08C91812B8C93ED
:103EB0009FBF0F90CF91DF911F910F9108950F93A6
:103EC0001F93282F30E0F901E254FE4F8491F9014D
:103ED000E858FE4F04912E5C3E4FF90114911123D6
:103EE00091F0882311F00E948F1EE12FF0E0EE0F79
:103EF000FF1FE85EFE4F85919491DC018C91802339
:103F000021E030E011F420E030E0C9011F910F9171
:103F10000895863308F0865390917B00282F2695CC
:103F20002695269530E02170307043E0220F331F34
:103F30004A95E1F7977F922B90937B008770909141
:103F40005A059295990F990F907C982B90937C002D
:103F500080917A00806480937A0080917A0086FD57
:103F6000FCCF2091780030917900932F80E030E0F1
:103F7000282B392BC9010895CF92DF92EF92FF923F
:103F80000F931F93CF93DF936C017B018A01C0E0F5
:103F9000D0E00FC0D7016D917D01D601ED91FC916C
:103FA0000190F081E02DC6011995C80FD91F01506D
:103FB00010400115110571F7CE01DF91CF911F91CE
:103FC0000F91FF90EF90DF90CF900895DB010D905F
:103FD0000020E9F7AD0141505040461B570BDC0172
:103FE000ED91FC910280F381E02D199508950E94D6
:103FF000E61F0895DC01ED91FC910190F081E02D28
:10400000199508950F931F93CF93DF93EC016DE003
:104010000E94FA1F8C01CE016AE00E94FA1F080F6D
:10402000191FC801DF91CF911F910F9108950F9330
:104030001F93CF93DF93EC010E94E61F8C01CE010A
:104040000E940220080F191FC801DF91CF911F9114
:104050000F9108958F929F92AF92BF92CF92DF926D
:10406000EF92FF920F931F93DF93CF93CDB7DEB7FD
:10407000A1970FB6F894DEBF0FBECDBF6C01042F21
:10408000E52FCB01122F19A2223008F41AE021E209
:10409000E22EF12CEC0EFD1E812E9924AA24BB24C5
:1040A00003C0022FE32FCA01602F7E2FA5019401C8
:1040B0000E948B24129F802D1124081B0894E10874
:1040C000F1080A3014F4005D01C0095CF7010083B7
:1040D000211531054105510521F7C601B7010E949F
:1040E000E61FA1960FB6F894DEBF0FBECDBFCF91ED
:1040F000DF911F910F91FF90EF90DF90CF90BF90D5
:10410000AF909F908F900895CF92DF92EF92FF92A1
:104110000F931F93CF93DF93EC017A018B0121154D
:10412000310541F4E881F9810190F081E02D642F9F
:1041300019951AC02A303105A9F477FF12C06DE233
:104140000E94FA1F6C0144275527BA014E195F09D6
:10415000600B710BCE012AE00E942A20C80ED91EE6
:1041600004C02AE00E942A206C01C601DF91CF9191
:104170001F910F91FF90EF90DF90CF9008950F93D4
:104180001F93CF93DF93EC019A01CB01AC0166271B
:1041900057FD6095762FCE010E9484208C01CE01C0
:1041A0000E940220080F191FC801DF91CF911F91B3
:1041B0000F910895CF93DF930E942D1E0E94130448
:1041C000C5E5D2E20E94CD0C2097E1F30E94552272
:1041D000F9CFFC0184859585FC01E05CFF4F2081CF
:1041E00031818E5B9F4FFC0180819181281B390BAF
:1041F0002F733070C9010895FC0184859585FC01F9
:10420000E05CFF4F40815181FC01EE5BFF4F20815C
:1042100031814217530741F00190F081E02DE80F02
:10422000F91F208130E002C02FEF3FEFC901089550
:10423000FC0184859585FC01E05CFF4F4081518144
:10424000FC01EE5BFF4F208131814217530771F073
:10425000A081B181A80FB91F2C9180819181019615
:104260008F7390709183808330E002C02FEF3FEF17
:10427000C9010895DC011E968D919C911F97FC0148
:10428000E05CFF4F8E5B9F4F40815181DC012D919F
:104290003C91119742175307B9F708951F93FC01FA
:1042A000162F26853785D901A05CBF4F8D919C9133
:1042B000019660E470E00E947824D901AE5BBF4FA4
:1042C0004D915C91119784179507D1F3D901A05CAA
:1042D000BF4F0D90BC91A02DA20FB31F1C93A685BC
:1042E000B785A05CBF4F11969C938E93A689B78922
:1042F0002C9181E090E0058C02C0880F991F0A94F0
:10430000E2F7282B2C9381E090E01F910895FB01A8
:10431000E05CFF4F208131812F5F3F4F2F73307062
:10432000DB01AE5BBF4F4D915C91119724173507B0
:1043300039F0A081B181A60FB71F8C933183208300
:10434000089508951F920F920FB60F920BB60F9219
:1043500011242F933F934F935F936F937F938F938A
:104360009F93AF93BF93EF93FF938091C60065ED4A
:104370007DE00E948721FF91EF91BF91AF919F91C6
:104380008F917F916F915F914F913F912F910F90FE
:104390000BBE0F900FBE0F901F90189508951F929F
:1043A0000F920FB60F920BB60F9211242F933F93DB
:1043B0004F935F936F937F938F939F93AF93BF932D
:1043C000EF93FF938091CE006DE57EE00E94872100
:1043D000FF91EF91BF91AF919F918F917F916F91DD
:1043E0005F914F913F912F910F900BBE0F900FBE99
:1043F0000F901F90189508951F920F920FB60F926D
:104400000BB60F9211242F933F934F935F936F93AB
:104410007F938F939F93AF93BF93EF93FF9380917D
:10442000D60065EE7EE00E948721FF91EF91BF915B
:10443000AF919F918F917F916F915F914F913F913C
:104440002F910F900BBE0F900FBE0F901F901895DD
:1044500008951F920F920FB60F920BB60F92112470
:104460002F933F934F935F936F937F938F939F937C
:10447000AF93BF93EF93FF93809136016DE67FE09A
:104480000E948721FF91EF91BF91AF919F918F91F2
:104490007F916F915F914F913F912F910F900BBE44
:1044A0000F900FBE0F901F90189585EF9FE00E9410
:1044B000E920009711F00E94A12184E190E10E947F
:1044C000E920009711F00E94CE2183E390E10E9441
:1044D000E920009711F00E94FB2182E590E10E9403
:1044E000E920009711F00E94282208951F920F9250
:1044F0000FB60F920BB60F9211242F933F935F9339
:104500006F937F938F939F93AF93BF93EF93FF939B
:104510002091590E30915A0E80915B0E90915C0E55
:104520002817390731F48091C1008F7D8093C10035
:1045300016C0E0915B0EF0915C0EE75EF14F2081BA
:1045400080915B0E90915C0E019660E470E00E9499
:10455000782490935C0E80935B0E2093C600FF91AD
:10456000EF91BF91AF919F918F917F916F915F91EB
:104570003F912F910F900BBE0F900FBE0F901F9089
:1045800018951F920F920FB60F920BB60F9211242F
:104590002F933F935F936F937F938F939F93AF93EB
:1045A000BF93EF93FF932091E10E3091E20E809143
:1045B000E30E9091E40E2817390731F48091C90079
:1045C0008F7D8093C90016C0E091E30EF091E40E58
:1045D000EF55F14F20818091E30E9091E40E01960A
:1045E00060E470E00E9478249093E40E8093E30EE0
:1045F0002093CE00FF91EF91BF91AF919F918F914A
:104600007F916F915F913F912F910F900BBE0F9013
:104610000FBE0F901F9018951F920F920FB60F921A
:104620000BB60F9211242F933F935F936F937F9359
:104630008F939F93AF93BF93EF93FF932091690F55
:1046400030916A0F80916B0F90916C0F281739078A
:1046500031F48091D1008F7D8093D10016C0E0911C
:104660006B0FF0916C0FE75DF04F208180916B0F25
:1046700090916C0F019660E470E00E947824909312
:104680006C0F80936B0F2093D600FF91EF91BF9139
:10469000AF919F918F917F916F915F913F912F91FA
:1046A0000F900BBE0F900FBE0F901F9018951F928A
:1046B0000F920FB60F920BB60F9211242F933F93C8
:1046C0005F936F937F938F939F93AF93BF93EF937A
:1046D000FF932091F10F3091F20F8091F30F9091A1
:1046E000F40F2817390731F4809131018F7D8093C1
:1046F000310116C0E091F30FF091F40FEF54F04F39
:1047000020818091F30F9091F40F019660E470E0A6
:104710000E9478249093F40F8093F30F2093360136
:10472000FF91EF91BF91AF919F918F917F916F9189
:104730005F913F912F910F900BBE0F900FBE0F9086
:104740001F9018951F93CF93DF931092F80F10923C
:10475000F70F88EE93E0A0E0B0E08093F90F90931C
:10476000FA0FA093FB0FB093FC0FE7EFFFE023E7F6
:1047700039E03293229345ED5DE05587448749E166
:104780005EE05787468745EC50E0518B408B44EC08
:1047900050E0538B428B40EC50E0558B448B41EC06
:1047A00050E0578B468B46EC50E0518F408F14E021
:1047B000128F73E0738F67E0648F55E0558F41E08F
:1047C000468F109217101092161080931810909325
:1047D0001910A0931A10B0931B10E6E1F0E1329388
:1047E0002293CDE5DEE0D587C487C1EADEE0D78736
:1047F000C687CDECD0E0D18BC08BCCECD0E0D38B96
:10480000C28BC8ECD0E0D58BC48BC9ECD0E0D78B81
:10481000C68BCEECD0E0D18FC08F128F738F648F98
:10482000558F468F109236101092351080933710A6
:1048300090933810A0933910B0933A10E5E3F0E16B
:1048400032932293C5EEDEE0D587C487C9E2DFE06C
:10485000D787C687C5EDD0E0D18BC08BC4EDD0E043
:10486000D38BC28BC0EDD0E0D58BC48BC1EDD0E033
:10487000D78BC68BC6EDD0E0D18FC08F128F738FD0
:10488000648F558F468F109255101092541080935C
:10489000561090935710A0935810B0935910E4E518
:1048A000F0E1329322938DE69FE09587848781EB38
:1048B0009FE09787868785E391E0918B808B84E3E7
:1048C00091E0938B828B80E391E0958B848B81E3E5
:1048D00091E0978B868B86E391E0918F808F128F8A
:1048E000738F648F558F468FDF91CF911F910895FD
:1048F00097FB092E07260AD077FD04D02ED006D0CC
:1049000000201AF4709561957F4F0895F6F7909501
:1049100081959F4F0895A1E21A2EAA1BBB1BFD0192
:104920000DC0AA1FBB1FEE1FFF1FA217B307E4078E
:10493000F50720F0A21BB30BE40BF50B661F771FE6
:10494000881F991F1A9469F76095709580959095C6
:104950009B01AC01BD01CF010895AA1BBB1B51E116
:1049600007C0AA1FBB1FA617B70710F0A61BB70BDF
:10497000881F991F5A95A9F780959095BC01CD0184
:1049800008950790F691E02D1994FB01DC0102C017
:1049900001900D9241505040D8F70895DC0101C0BC
:1049A0006D9341505040E0F708950F931F93DF93AC
:1049B000CF93CDB7DEB72E970FB6F894DEBF0FBEFC
:1049C000CDBF0E891F89888D998D26E02C831A838F
:1049D000098397FF02C080E090E801979E838D8352
:1049E0009E01245E3F4FCE0101966A8D7B8DA90109
:1049F0000E944B254D815E8157FD0AC02F8138856D
:104A0000421753070CF49A01020F131FF80110828A
:104A10002E960FB6F894DEBF0FBECDBFCF91DF91BB
:104A20001F910F9108950F931F93DF93CF93CDB7ED
:104A3000DEB72E970FB6F894DEBF0FBECDBF8C0148
:104A4000CB01BA0146E04C831A83098397FF02C069
:104A500080E090E801979E838D83CE010196A901A5
:104A60000E944B254D815E8157FD0AC02F813885FC
:104A7000421753070CF49A01020F131FF80110821A
:104A80002E960FB6F894DEBF0FBECDBFCF91DF914B
:104A90001F910F9108952F923F924F925F926F92C4
:104AA0007F928F929F92AF92BF92CF92DF92EF92BE
:104AB000FF920F931F93DF93CF93CDB7DEB72C9761
:104AC0000FB6F894DEBF0FBECDBF6C011B018A018B
:104AD000FC0117821682838181FFD1C12E010894C7
:104AE000411C511CF6019381F10193FD859193FFC7
:104AF00081911F01882309F4BEC1853239F493FDE9
:104B0000859193FF81911F01853229F490E0B601D0
:104B10000E947127E7CFEE24FF2420E02032B0F47A
:104B20008B3269F08C3228F4803251F0833271F488
:104B30000BC08D3239F0803349F421602CC02260E3
:104B4000246029C0286027C0206125C027FD2CC013
:104B5000382F30533A3098F426FF08C08E2D880F36
:104B6000E82EEE0CEE0CE80EE30E15C08F2D880F2C
:104B7000F82EFF0CFF0CF80EF30E20620CC08E32E4
:104B800021F426FD78C1206406C08C3611F420681B
:104B900002C0883649F4F10193FD859193FF81911C
:104BA0001F01882309F0BACF982F9554933018F03D
:104BB0009052933028F40C5F1F4FFFE3F9830DC030
:104BC000833631F0833771F0833509F060C022C03D
:104BD000F801808189830E5F1F4F420171E0A72E8B
:104BE000B12C16C062E0662E712C600E711EF801A9
:104BF0008080918026FF03C06E2D70E002C06FEFB1
:104C00007FEFC4012C870E9466275C0183012C85FD
:104C10002F7717C052E0652E712C600E711EF801BF
:104C20008080918026FF03C06E2D70E002C06FEF80
:104C30007FEFC4012C870E945B275C012C852068D4
:104C4000830123FD20C008C080E290E0B6012C87DC
:104C50000E947127FA942C858F2D90E0A816B90632
:104C600098F311C0F40127FD859127FF81914F0131
:104C700090E0B6012C870E9471272C85F110FA94E0
:104C80000894A108B108A114B10461F7F1C08436F9
:104C900011F0893649F527FF08C0F801608171815C
:104CA000828193810C5F1F4F09C0F801608171817F
:104CB000882777FD8095982F0E5F1F4F4FE6B42E03
:104CC000B22297FF09C090958095709561957F4FAE
:104CD0008F4F9F4FF0E8BF2AA2012AE030E00E94E8
:104CE0009D27782E741845C0853731F43FEEB32EDA
:104CF000B2222AE030E025C099EFB92EB2228F36D9
:104D0000C1F0803720F4883509F0B5C00DC0803778
:104D100021F0883709F0AFC002C020E1B22AB4FE0A
:104D20000BC084E0B82A08C0B4FE09C0E6E0BE2A81
:104D300006C028E030E005C020E130E002C020E1FC
:104D400032E0B7FE08C0F8016081718182819381F1
:104D50000C5F1F4F07C0F8016081718180E090E017
:104D60000E5F1F4FA2010E949D27782E7418FFE747
:104D7000BF22B6FE0BC02EEFB2227E1438F4B4FE72
:104D800007C0B2FC05C08FEEB82202C0A72C01C03C
:104D9000AE2C8B2D90E0B4FE0DC0FE01E70DF11D91
:104DA0002081203319F4E9EEBE2209C0A394B2FE9B
:104DB00006C004C086789070009709F0A3948B2CED
:104DC0009924B3FC14C0B0FE0FC0AF1428F4E72C34
:104DD000EF0CEA18AF2C08C0E72C06C080E290E088
:104DE000B6010E947127A394AF14C0F304C0AF149E
:104DF00010F4FA1801C0FF2484FE0FC080E390E095
:104E0000B6010E94712782FE1FC081FE03C088E5A3
:104E100090E010C088E790E00DC0C40186789070E3
:104E2000009791F081FC02C080E201C08BE2B7FCE8
:104E30008DE290E0B6010E94712706C080E390E009
:104E4000B6010E947127EA947E14C0F37A94F201AD
:104E5000E70DF11D808190E0B6010E947127772057
:104E6000A9F706C080E290E0B6010E947127FA948B
:104E7000FF20C1F737CEF6012681378102C02FEF20
:104E80003FEFC9012C960FB6F894DEBF0FBECDBF21
:104E9000CF91DF911F910F91FF90EF90DF90CF9016
:104EA000BF90AF909F908F907F906F905F904F904A
:104EB0003F902F900895FC010590615070400110C3
:104EC000D8F7809590958E0F9F1F0895FC01615033
:104ED000704001900110D8F7809590958E0F9F1F1C
:104EE00008950F931F93CF93DF938C01EB018B8178
:104EF00081FF1BC082FF0DC02E813F818C819D816F
:104F00002817390764F4E881F9810193F983E8836C
:104F100006C0E885F985802F1995009731F48E81B8
:104F20009F8101969F838E8302C00FEF1FEFC80100
:104F3000DF91CF911F910F910895FA01AA27283090
:104F400051F1203181F1E8946F936E7F6E5F7F4F56
:104F50008F4F9F4FAF4FB1E03ED0B4E03CD0670FD2
:104F6000781F891F9A1FA11D680F791F8A1F911D25
:104F7000A11D6A0F711D811D911DA11D20D009F475
:104F800068943F912AE0269F11243019305D3193B7
:104F9000DEF6CF010895462F4770405D4193B3E0A0
:104FA0000FD0C9F7F6CF462F4F70405D4A3318F047
:104FB000495D31FD4052419302D0A9F7EACFB4E0F8
:104FC000A6959795879577956795BA95C9F70097B0
:104FD0006105710508959B01AC010A2E0694579551
:104FE000479537952795BA95C9F7620F731F841FA8
:0A4FF000951FA01D0895F894FFCF4F
:104FFA00457865637574696E672070686173653A90
:10500A00202564200A0052657175657374457665BA
:10501A006E743A20456E636F6465204552524F5252
:10502A000A005265636569766564204D4158206EB1
:10503A00756D626572206F662062797465732E20C1
:10504A002044726F7020636F6D6D616E640A005444
:10505A0075726E2050756D70204F6E0A0053746F12
:10506A007070696E6720746865206D6F746F722E38
:10507A000A00436F6D6D616E6420747970652069F2
:10508A007320526571756573740A005265713A200E
:10509A0025640A0052657120416972205072657355
:1050AA00737572650A004D6F76696E67206265795D
:1050BA006F6E64204F524947494E206E6F742061CB
:1050CA006C6C6F7765642E0A004D6F76696E672087
:1050DA006265796F6E64204C494D4954206E6F7435
:1050EA0020616C6C6F7765642E0A003D3D3D3D3D45
:1050FA003D3D3D3D3D3D3D3D205374617274696EB9
:10510A0067206D6F76656D656E74203D3D3D3D3D52
:10511A003D3D3D3D3D3D3D0A0053746570733A2067
:10512A0025642044656C61793A202575200A00447B
:10513A00656C6179206E6F74206163636570746158
:10514A00626C652E0A00536C6176652031205265C7
:10515A0063656976656420436F6D6D616E64205482
:10516A007970653A2025640A0073746570733A2071
:10517A0025750A00756E6B6E6F776E207374657095
:10518A00706572206D6F746F720A004D6F76696E6A
:10519A002074686973206D616E7920737465707309
:1051AA003A00526563656976656420556E73757059
:1051BA00706F7274656420436F6D6D616E640A006E
:1051CA00756E7061636B206572726F7220696E20F2
:1051DA006D61696E206C6F6F700A00257300556EE1
:1051EA0061626C6520746F207072696E74206465E8
:1051FA00627567206D657373616765202D20697418
:10520A0020697320746F6F206C6F6E672E0A0045D9
:10521A0072726F72207768696C65206C6F67676954
:10522A006E672E0A004552524F523A200057415299
:10523A004E494E473A2000494E464F3A20004445CF
:10524A004255473A2000656E642D6F662D7374725D
:10525A0065616D00696F206572726F7200766172A6
:10526A00696E74206F766572666C6F7700737472FC
:10527A00696E67206F766572666C6F770062797403
:10528A006573206F766572666C6F7700696E7661FA
:10529A006C696420646174615F73697A6500696E20
:1052AA0076616C696420776972655F7479706500EC
:1052BA00706172656E742073747265616D20746FAB
:1052CA006F2073686F7274006172726179206F76F1
:1052DA006572666C6F770063616C6C6261636B20E8
:1052EA006661696C656400696E76616C69642066E2
:1052FA0069656C642074797065006D697373696E91
:10530A0067207265717569726564206669656C6487
:10531A0000696E76616C6964206669656C642064F4
:10532A00657363726970746F72008009000003000C
:10533A00020001000000000001000200030000005A
:10534A00AC0D35043D0447044E040101000000027F
:10535A00000000021601FF13004B07031601FF8B22
:10536A0000A307041601FF04002B09051601FF0D0F
:10537A0000EB05061601FF06001B06071601FF04CF
:10538A00003306081601FF08004306091601FF0844
:10539A00005B060A1601FF090073060B1601FF16C9
:1053AA000093060C1601FF0A00CB060D1601FF0238
:1053BA0000EB060E1601FF0400FB060F1601FF089C
:1053CA00000B07101601FF28002307111601FF081A
:1053DA000033070000000000000000010000000286
:1053EA0000000002000000020000000300000004A8
:1053FA000000000400000004000000050000000195
:10540A00000000000000000000000001000000028F
:10541A00000000020000000400000000000000007C
:10542A00000000010000000400000000000000006D
:10543A000000000100000004000000020000000457
:10544A00000000000000000000000001000000044D
:10545A00000000020000000400000000000000003C
:10546A00000000010000000100000002000000042A
:10547A00000000030000000400000000000000001B
:10548A00000000010000000100000002000000020C
:10549A000000000300000004000000041001FF04E3
:1054AA00000000051001FF04000000061001FF04BF
:1054BA0000000000000000000000000100000004DD
:1054CA0000000002000000020000000300000004C7
:1054DA0000000000000000000000000100000002BF
:1054EA0000000000000000000000000100000004AD
:1054FA00000000000000000000000001000000049D
:10550A00000000020000000400000000000000008B
:10551A000000000105000028000000000000000053
:10552A000000000100000004000000020000000466
:10553A00000000000000000000000001000000025E
:10554A00000000021601FF09006B07031601FF069F
:10555A00008B0700000000000000000100000002AC
:10556A00000000021001FF01000000031001FF0407
:10557A00000000000000000000000001000000021E
:10558A00000000020000000400000000000000000B
:10559A000000000100000002000000021601FF04E2
:1055AA00000308031601FF0C002B08041601FF0E66
:1055BA00004B08051601FF18007308061601FF04C0
:1055CA0000AB08081601FF0C00BB08091601FF0111
:1055DA0000DB080A1601FF2C00EB080B1601FF047A
:1055EA000003090C1601FF08001308000000000060
:1055FA00000000010000000400000000000000009C
:10560A000000000100000004000000020000000485
:10561A00000000000000000000000001000000047B
:10562A000000000200000004000000030000000463
:10563A00000000000000000000000001000000025D
:10564A000000000200000004000000030000000443
:10565A000000000400000004000000000000000038
:10566A000000000100000004000000020000000425
:10567A000000000300000004000000040000000411
:10568A0000000005000000040000000600000004FD
:10569A0000000000000000000000000100000004FB
:1056AA0000000000000000000000000100000004EB
:1056BA0000000002000000040000000300000004D3
:1056CA0000000000000000000000000100000001CE
:1056DA000000000000000000000000010500002892
:1056EA0000000002000000040000000000000000AA
:1056FA00000000010000000100000002000000019B
:10570A000000000300000001000000040000000186
:10571A00000000000000000000000001000000027C
:10572A00000000020000000200000000000000006B
:10573A00000000550FD10F0910121027121B12C2B8
:10574A0012BB156A1AC31ACC1A79152415A819009E
:10575A00000000641B321BD01AD91AED1AFD1A0078
:10576A000000004E21BC1FE9201821FC203A21002C
:00000001FF
