:100000000C9463000C9480150C94AD150C948B002B
:100010000C948B000C948B000C948B000C948B0034
:100020000C948B000C948B000C948B000C948B0024
:100030000C948B000C948B000C948B000C948B0014
:100040000C94C5140C948B000C9499170C94CA173B
:100050000C948B000C948B000C948B000C948B00F4
:100060000C946F130C948B000000000024002700F8
:100070002A0000000000250028002B0000000000DE
:1000800023002600290004040404040404040202DA
:100090000202020203030303030301020408102007
:1000A0004080010204081020010204081020000012
:1000B0000007000201000003040600000000000029
:1000C0000000FF12111811241FBECFEFD8E0DEBFD1
:1000D000CDBF14E0A0E0B1E0EAE1F1E302C0059099
:1000E0000D92AE31B107D9F716E0AEE1B4E001C030
:1000F0001D92A738B107E1F710E0C6ECD0E004C0CC
:100100002297FE010E947718C23CD107C9F70E94CE
:10011000D1160C948B180C9400000F93DF93CF939F
:10012000CDB7DEB760970FB6F894DEBF0FBECDBF78
:10013000002309F459C029833A834B835C836D8380
:100140007E838F839887E0E2E01B2D813E814F8183
:1001500058851E16BCF01D861E861F86188A8E2F97
:10016000992787FD9095909581959F4F04C056954E
:100170004795379527958A95D2F729873A874B87F0
:100180005C872AC0CA01B901002E04C096958795E4
:10019000779567950A94D2F76D877E878F87988BBE
:1001A000DA01C90104C0880F991FAA1FBB1FEA9575
:1001B000D2F729813A814B815C8104C056954795DD
:1001C000379527950A95D2F7822B932BA42BB52B25
:1001D00089879A87AB87BC8729853A854B855C855B
:1001E0006D857E858F85988960960FB6F894DEBF01
:1001F0000FBECDBFCF91DF910F9108950F93DF9385
:10020000CF93CDB7DEB760970FB6F894DEBF0FBEC1
:10021000CDBF002309F459C029833A834B835C8303
:100220006D837E838F839887E0E2E01B29813A818A
:100230004B815C811E16BCF019861A861B861C86B3
:100240008E2F992787FD9095909581959F4F04C09B
:10025000220F331F441F551F8A95D2F72D873E87E3
:100260004F87588B2AC0CA01B901002E04C0660FFF
:10027000771F881F991F0A94D2F769877A878B871F
:100280009C87DA01C90104C0B695A7959795879513
:10029000EA95D2F72D813E814F81588504C0220F07
:1002A000331F441F551F0A95D2F7822B932BA42B83
:1002B000B52B8D879E87AF87B88B29853A854B856F
:1002C0005C856D857E858F85988960960FB6F894DC
:1002D000DEBF0FBECDBFCF91DF910F910895DF93A9
:1002E000CF93CDB7DEB760970FB6F894DEBF0FBEE1
:1002F000CDBF83EA94E020E2FC0111922A95E9F750
:1003000060E270E00E94D60529873A874B875C87B8
:100310006D877E878F87988BDE011196FE01399657
:1003200088E001900D928150E1F7CE01019661EADB
:1003300072E049E554E00E94A707882349F08BE565
:1003400095E063EA74E040E250E00E94711206C05A
:1003500088E696E060E071E00E94BE1660960FB6F7
:10036000F894DEBF0FBECDBFCF91DF910895CF933C
:10037000DF931092400410923F0480E2EEE1F4E03B
:10038000DF011D928A95E9F78BE595E00E940F1237
:10039000009731F1C0913F04D0914004C132D105A2
:1003A000FCF48BE595E00E941812FE01E25EFB4F23
:1003B00080832196D0934004C0933F04E5CF21E091
:1003C00020933E04825E9B4FFC01108211C010926C
:1003D0003E0488E696E06BE171E00E949E1608C03C
:1003E00080913F04909140048132910544F3EFCF16
:1003F000DF91CF91089580914D0490914E04A0918A
:100400004F04B091500483309105A105B10531F13D
:1004100084309105A105B10538F482309105A1051C
:10042000B10509F0AAC028C084309105A105B10525
:1004300039F085309105A105B10509F09EC03BC09A
:1004400085E061E00E942B1685E090E00E941B157C
:10045000000000000000000085E01BC081E161E0B9
:100460000E942B1685E090E00E941B150000000002
:100470000000000081E10DC080E161E00E942B16C8
:1004800085E090E00E941B150000000000000000C5
:1004900080E160E00E942B168091550490915604F3
:1004A000A0915704B09158040E941B150000000051
:1004B00000000000089585E090E00E941B150000F8
:1004C00000000000000080E161E00E942B1685E042
:1004D00090E00E941B15000000000000000080E179
:1004E00060E00E942B168091550490915604A091D3
:1004F0005704B09158040E941B1500000000000032
:10050000000081E161E00E942B1685E090E00E94EE
:100510001B15000000000000000081E160E00E9467
:100520002B168091550490915604A0915704B091D8
:1005300058040E941B15000000000000000085E028
:1005400061E00E942B1685E090E00E941B150000E0
:1005500000000000000085E060E00E942B16809102
:10056000550490915604A0915704B09158040E94EC
:100570001B15000000000000000008958091410458
:1005800090914204A0914304B091440483309105BA
:10059000A105B10531F184309105A105B10538F40B
:1005A00082309105A105B10509F0AAC028C08430A8
:1005B0009105A105B10539F085309105A105B10579
:1005C00009F09EC03BC08EE061E00E942B1685E0E2
:1005D00090E00E941B1500000000000000008EE06B
:1005E0001BC08AE061E00E942B1685E090E00E942B
:1005F0001B1500000000000000008AE00DC089E02B
:1006000061E00E942B1685E090E00E941B1500001F
:1006100000000000000089E060E00E942B1680913D
:10062000490490914A04A0914B04B0914C040E945B
:100630001B150000000000000000089585E090E018
:100640000E941B15000000000000000089E061E02E
:100650000E942B1685E090E00E941B150000000010
:100660000000000089E060E00E942B1680914904A0
:1006700090914A04A0914B04B0914C040E941B1528
:1006800000000000000000008AE061E00E942B16DC
:1006900085E090E00E941B150000000000000000B3
:1006A0008AE060E00E942B168091490490914A04F0
:1006B000A0914B04B0914C040E941B150000000057
:1006C000000000008EE061E00E942B1685E090E0C3
:1006D0000E941B1500000000000000008EE060E09A
:1006E0000E942B168091490490914A04A0914B04DA
:1006F000B0914C040E941B15000000000000000097
:100700000895CF93DF93CBE5D5E0CE0164E070E0B0
:100710000E94F212CE0167EB71E00E94F512CE0149
:100720006FE671E00E94FA1289E061E00E9407160C
:100730008AE061E00E9407168EE061E00E940716E1
:100740008FE061E00E94071680E161E00E940716D9
:1007500081E161E00E94071685E061E00E940716D2
:1007600086E061E00E94071688E061E00E940716BB
:1007700089E060E00E942B168AE060E00E942B1660
:100780008EE060E00E942B168FE060E00E942B1646
:1007900080E160E00E942B1681E160E00E942B1650
:1007A00085E060E00E942B1686E060E00E942B1638
:1007B00088E060E00E942B1680E06EEB72E043E080
:1007C00050E00E94601581E06BEF71E043E050E083
:1007D0000E94601585E090E0A0E0B0E080934904BD
:1007E00090934A04A0934B04B0934C048093450427
:1007F00090934604A0934704B09348048093410427
:1008000090934204A0934304B0934404809355040E
:1008100090935604A0935704B093580480935104C6
:1008200090935204A0935304B093540480934D04C6
:1008300090934E04A0934F04B0935004DF91CF9156
:1008400008950E940D152091C3043091C404409175
:10085000C5045091C604621B730B840B950B653F56
:1008600021E0720720E0820720E09207D8F0809113
:10087000C704882319F088E060E002C088E061E0E6
:100880000E942B168091C70491E089278093C704AA
:100890000E940D156093C3047093C4048093C50433
:1008A0009093C6040895CF93DF93FC01EB01808100
:1008B00091818130910539F58281882321F18381ED
:1008C000948183309105F9F421E02E8B2BA7988F2A
:1008D0008F8B84E090E09DA78CA783E090E0A0E060
:1008E000B0E08EA79FA7A8ABB9AB85E090E0A0E0F1
:1008F000B0E08AAB9BABACABBDAB1EAA1FAA18AED7
:1009000019AE81E001C080E0DF91CF910895CF93CF
:10091000DF93EB01FC01208131812130310509F4A5
:100920008FC02B30310509F091C027AD222309F487
:1009300082C0E05CFF4F20813181428153812130B0
:10094000310541055105C9F5FC01EC5BFF4F2081E4
:10095000318140E050E020934104309342044093C1
:100960004304509344048A5B9F4FFC018081918132
:10097000A281B3818093490490934A04A0934B04CD
:10098000B0934C048091490490914A04A0914B0487
:10099000B0914C048A309105A105B10508F072C0F0
:1009A0008AE090E0A0E0B0E08093490490934A048C
:1009B000A0934B04B0934C0465C02230310541052F
:1009C000510509F05FC0FC01EC5BFF4F20813181D4
:1009D00040E050E020934D0430934E0440934F0488
:1009E000509350048A5B9F4FFC0180819181A281CA
:1009F000B3818093550490935604A0935704B09309
:100A000058048091550490915604A0915704B091D8
:100A100058048A309105A105B105A0F58AE090E05F
:100A2000A0E0B0E08093550490935604A09357043F
:100A3000B093580427C088E696E06CE571E00AC0E0
:100A400040E00E945304882341F40CC088E696E0FD
:100A50006FE771E00E94BE1605C022E030E03983E6
:100A600028830DC081E08AAF83E090E0998388837A
:100A700082E090E09CAF8BAF9EAF8DAF80E0DF91C6
:100A8000CF91089581E08AAF83E090E099838883D5
:100A900081E090E09CAF8BAF9EAF8DAF81E0EFCF58
:100AA0000F931F93DF93CF93CDB7DEB760970FB649
:100AB000F894DEBF0FBECDBF8A010E947A0B298752
:100AC0003A874B875C876D877E878F87988BDE019F
:100AD0001196FE01399688E001900D928150E1F760
:100AE000CE01019661EA72E0A8010E94CE106096E4
:100AF0000FB6F894DEBF0FBECDBFCF91DF911F912F
:100B00000F9108950F931F93CF93DF930E942104B9
:100B100080913E04882331F1C8ECD4E08AE4FE01E0
:100B2000982F11929A95E9F709E514E0F8011192CE
:100B30008A95E9F760913F04709140048EE194E05A
:100B4000AE010E945005882329F0CE01B8010E9411
:100B5000870406C088E696E06CE971E00E949E1664
:100B600010923E04DF91CF911F910F910895CF9283
:100B7000DF92EF92FF920F931F93CF93DF937C014D
:100B80008A01FC01C281D381CE010E947B18C00F73
:100B9000D11FF701D383C28381E0DF91CF911F91F1
:100BA0000F91FF90EF90DF90CF900895DF93CF9358
:100BB000CDB7DEB728970FB6F894DEBF0FBECDBF16
:100BC00027EB35E03A8329838B839C836D837E8377
:100BD00018861F823A81AC0180E0988528960FB66E
:100BE000F894DEBF0FBECDBFCF91DF9108950F9374
:100BF0001F93CF93DF93EC018A01E881F98130974D
:100C000069F08E819F81840F951F2C813D8128176B
:100C1000390760F0CE010995882341F08E819F81CC
:100C2000800F911F9F838E8381E001C080E0DF9160
:100C3000CF911F910F910895AF92BF92CF92DF9203
:100C4000EF92FF920F931F93DF93CF93CDB7DEB751
:100C500062970FB6F894DEBF0FBECDBF6C01E02FD8
:100C60000B87F12F1C87A22F2D87B32F3E87E42EF1
:100C70004F87A52E588B862F698B972F7A8B9F01D4
:100C8000AD016E2D7A2DE32BE42BE52BEE29EA291D
:100C9000E82BE92B39F05E010894A11CB11CEE246D
:100CA000FF2412C0C601BE01655F7F4F41E050E0E6
:100CB00027C0E22FE068D501ED935D0107E00E94B7
:100CC0008D000894E11CF11CE22FE32BE42BE52BB3
:100CD000E62BE72BE82BE92B61F72B873C874D8729
:100CE0005E876F87788B898B9A8BFE01EE0DFF1DD7
:100CF00080818F778083C601BE016F5F7F4FA70120
:100D00000E94F70562960FB6F894DEBF0FBECDBF06
:100D1000CF91DF911F910F91FF90EF90DF90CF90D7
:100D2000BF90AF9008958F929F92AF92BF92CF9253
:100D3000DF92EF92FF920F931F93FA01DB0114965B
:100D40002C911497223069F0233018F4213029F5C2
:100D500005C0243071F0283001F510C0808099243E
:100D600002C080809180AA24BB24CC24DD2476019B
:100D70000DC080809180A280B380F7CF8080918069
:100D8000A280B380C480D580E680F780840195017D
:100D9000A601B7010E941C0601C080E01F910F91BF
:100DA000FF90EF90DF90CF90BF90AF909F908F908B
:100DB00008950F931F93CF93DF93EC01B22FA32FCE
:100DC000F42FE52FCB0197FD0BC098014B2F5A2F25
:100DD0006F2F7E2F01E00E94FE00F82FE92F12C036
:100DE00098014B2F5A2F6F2F7E2F01E00E94FE009B
:100DF000209530954095509560957095F82FF09519
:100E0000E92FE095CE0189019A01AB016F2F7E2F6A
:100E10000E941C06DF91CF911F910F910895EF92D0
:100E2000FF920F931F93FA01DB0114962C911497F4
:100E3000243019F0283001F512C0408151816281BF
:100E40007381B42FA52F9B017A018B01110FEE083E
:100E5000FE2C87014E2D5E2D6E2D7E2D08C0B0819B
:100E6000A1812281338144815581668177810B2F55
:100E70001A2F0E94D90601C080E01F910F91FF90A8
:100E8000EF90089544E050E00E94F7050895BA01FC
:100E90000E944207089548E050E00E94F705089537
:100EA000BA010E944B0708958F929F92AF92BF9212
:100EB000CF92DF92EF92FF920F931F93E3E0220F06
:100EC000331F441F551FEA95D1F74B01AA24BB24B9
:100ED000282939294A295B2949015A0189019501A3
:100EE00040E050E060E070E00E941C061F910F910E
:100EF000FF90EF90DF90CF90BF90AF909F908F903A
:100F00000895FB01218130E02F70307022303105CF
:100F100099F0233031053CF02330310539F027308A
:100F200031059CF406C060E070E008C061E070E04C
:100F300005C062E070E002C065E070E0208130E052
:100F400040E050E00E945407089580E008952F92F9
:100F50003F924F925F926F927F928F929F92AF9249
:100F6000BF92CF92DF92EF92FF920F931F93DF9386
:100F7000CF93CDB7DEB762970FB6F894DEBF0FBE42
:100F8000CDBF2C01242E352E662E772E1E861D8673
:100F90009E012F5F3F4F3A8B298B34C1D3011196AD
:100FA0008C91119790E0AC014F705070FA01EE0FE8
:100FB000FF1FEF51FC4F608171817C876B87129618
:100FC0003C9112976D857E85630F711D260E371E2D
:100FD0001396EC911397FF27E7FDF095E20DF31DB3
:100FE00014963C91A32FB0E0BE87AD87807F9070B0
:100FF0008032910581F4D30115968C9190E0AD85F6
:10100000BE85A89FB001A99F700DB89F700D1124D7
:101010007E876D8731C080319105D9F0813191058E
:101020001CF4009749F0EAC08032910529F1803321
:10103000910509F0E3C0D3C0C201B3010E9481074A
:10104000882309F4E6C0C201B301A101EB85FC8548
:10105000D2C08081882309F4D1C0C201B3010E94AB
:101060008107882309F4D5C0C201B301A1012B85F2
:101070003C85F9010995C0C0608171817A876987D3
:101080006115710509F4BAC04430510524F04101DD
:1010900000E010E09EC030E040E050E0C20162E0BD
:1010A00070E00E945407882309F4B3C0D30111965D
:1010B0008C91119790E08F7090708230910549F477
:1010C000E985FA85EE0FFF1FEE0FFF1FF88BEF8704
:1010D00031C08330910541F429853A85F3E0220F30
:1010E000331FFA95E1F724C0A989BA89E8E01D9277
:1010F000EA95E9F7410100E010E013C0CE01019646
:10110000B301A4012B853C85F9010995882309F4D5
:1011100080C0D30114968C911497880E911C0F5F98
:101120001F4FE985FA850E171F0740F32F81388579
:10113000388B2F876F857889C2018B0120E030E0E2
:1011400040E050E060E070E00E941C06882309F453
:1011500060C0D2018D919C911197009721F04101BF
:1011600000E010E019C0C20160E070E04F855889CE
:101170000E94F70541C0C201B301A401EB85FC85C3
:101180000995882309F445C0D30114968C911497CE
:10119000880E911C0F5F1F4FE985FA850E171F07F8
:1011A00050F32CC0C201B3010E948107882389F14A
:1011B000C201B301A4012B853C85F901099588235F
:1011C00041F1D30114968C911497880E911C0F5FF6
:1011D0001F4FE985FA850E171F0720F30FC0D101B5
:1011E000ED91FC911197309749F012964D915C91D9
:1011F0001397C201B3010995882359F0E8E0F0E0A4
:101200006E0E7F1ED3012C91222309F0C7CE81E000
:1012100001C080E062960FB6F894DEBF0FBECDBF6E
:10122000CF91DF911F910F91FF90EF90DF90CF90C2
:10123000BF90AF909F908F907F906F905F904F90F6
:101240003F902F9008954F925F926F927F928F926E
:101250009F92AF92BF92CF92DF92EF92FF920F9345
:101260001F93CF93DF93EC012B013A018A0120E019
:1012700030E040E050E060E070E00E941C0688230F
:1012800031F0CE01B201A3010E94F70501C080E058
:10129000DF91CF911F910F91FF90EF90DF90CF9052
:1012A000BF90AF909F908F907F906F905F904F9086
:1012B0000895FA0101900020E9F73197E41BF50B3E
:1012C000BA01AF010E9423090895FA01BA016E5FC5
:1012D0007F4F408151810E94230908952F923F92B0
:1012E0004F925F926F927F928F929F92AF92BF9236
:1012F000CF92DF92EF92FF920F931F93DF93CF93E2
:10130000CDB7DEB72C970FB6F894DEBF0FBECDBFBA
:101310003C017A8769875C874B871E010894211CF2
:10132000311C88E0F10111928A95E9F7C1016985C4
:101330007A854B855C850E94A707882309F446C0FF
:101340004F805884C301820120E030E040E050E04B
:1013500060E070E00E941C068823C1F1F301208147
:1013600031812115310539F4C30160E070E0A2013B
:101370000E94F7052CC0F30186819781840D951D8D
:10138000448155814817590708F13A83298382819E
:1013900093819C838B835E824D8218861F82C1015C
:1013A00069857A854B855C850E94A7074F815885A2
:1013B000F30126813781240F351F378326832B8144
:1013C0003C81338322834415550509F080E02C9637
:1013D0000FB6F894DEBF0FBECDBFCF91DF911F9146
:1013E0000F91FF90EF90DF90CF90BF90AF909F90C4
:1013F0008F907F906F905F904F903F902F900895C7
:10140000FB01668177816115710519F00E946E09F3
:10141000089580E00895FC01A281B38114962C9177
:10142000149730E011968C91119790E0807F907026
:101430008032910569F415968C91159790E0A90179
:10144000489F9001499F300D589F300D112407C0CF
:10145000009729F486819781019697838683CD0131
:1014600008969383828384819581019695838483F2
:1014700018968C911897882381F4808191819383A9
:1014800082831582148217821682808591859387C4
:10149000828720E030E080E001C081E0A281B3815A
:1014A00012969C911297A901490F511D22853385EF
:1014B000240F351F3387228713964C911397552796
:1014C00047FD5095420F531F558744870895CF928B
:1014D000DF92EF92FF920F931F93CF93DF937C01E4
:1014E0008A01FC01C281D3816115710521F0CB0114
:1014F000BE010E947B18C00FD11FF701D383C283A6
:1015000081E0DF91CF911F910F91FF90EF90DF90DD
:10151000CF9008950F931F93DF93CF93CDB7DEB78E
:101520002E970FB6F894DEBF0FBECDBFFC019C8393
:101530008B839A8389831E821D8218861F828281F3
:101540009B01280F311D3C872B878381992787FDBD
:101550009095820F931F9E878D877A8769878E016A
:101560000F5F1F4FEB81FC8180818823A9F12181CE
:1015700030E0C901807F90708031910521F4AD8504
:10158000BE851C920BC08032910529F4ED85FE8545
:101590001182108221C080339105F1F0C9018F7052
:1015A0009070268137818630910531F46B857C857A
:1015B000C9010E948A0A10C08B859C85448121152F
:1015C000310529F0B90150E00E947B1805C060E0A8
:1015D00070E050E00E948418C8010E940B0A882322
:1015E00009F62E960FB6F894DEBF0FBECDBFCF9191
:1015F000DF911F910F910895CF92DF92EF92FF92AA
:101600000F931F93DF93CF93CDB7DEB760970FB6DD
:10161000F894DEBF0FBECDBF8C017A016115710554
:1016200029F5DC018D919C911197BAE087369B07D3
:1016300079F41CC0C801B60140E150E00E94FC0AE8
:10164000882309F447C0E0EFFFEFEE0EFF1E04C051
:101650006E010894C11CD11CF1E1EF16F10450F7A2
:10166000C801B601A7010E94FC0A35C0D801149632
:101670008D919C9115978E159F0568F416968D9106
:101680009C911797009731F58DEB91E017969C93FD
:101690008E9316971FC0D801ED91FC91C801A70148
:1016A0000995882351F4F80186819781009791F478
:1016B0008BEC91E0978386830DC0D80114968D91B1
:1016C0009C9115978E199F0915969C938E9314974C
:1016D00081E001C080E060960FB6F894DEBF0FBED7
:1016E000CDBFCF91DF911F910F91FF90EF90DF90D1
:1016F000CF900895DF93CF93CDB7DEB728970FB67D
:10170000F894DEBF0FBECDBF27E63AE03A832983C7
:101710008B839C836D837E833A81AC018F81988516
:1017200028960FB6F894DEBF0FBECDBFCF91DF91E4
:1017300008958F929F92AF92BF92CF92DF92EF92D5
:10174000FF920F931F93DF93CF930F92CDB7DEB726
:101750005C017B01DB011C9211961C921197129681
:101760001C92129713961C92139714961C9214971E
:1017700015961C92159716961C92169717961C9202
:101780001797CC24DD244E010894811C911C4CC079
:101790001981212F2F7730E040E050E060E070E0C9
:1017A00080E090E00C2D0E94FE00D701EC91E22B2E
:1017B000EC9311962C911197232B11962C93119742
:1017C00012962C911297242B12962C931297139603
:1017D0002C911397252B13962C93139714962C91D9
:1017E0001497262B14962C93149715962C911597D5
:1017F000272B15962C93159716962C911697282B18
:1018000016962C93169717968C911797892B1796E7
:101810008C93179717FF1FC0E7E0F0E0CE0EDF1E96
:10182000F6E4CF16D10449F0C501B40141E050E01F
:101830000E94FC0A882309F0ABCFD50116968D9142
:101840009C911797009749F484ED91E017969C932B
:101850008E93169702C081E001C080E00F90CF9177
:10186000DF911F910F91FF90EF90DF90CF90BF908D
:10187000AF909F908F9008950F931F93DF93CF9316
:10188000CDB7DEB728970FB6F894DEBF0FBECDBF39
:101890008B01BE016F5F7F4F0E94990B29813A81B6
:1018A0004B815C81F80120833183428353832896E6
:1018B0000FB6F894DEBF0FBECDBFCF91DF911F9161
:1018C0000F9108958F929F92AF92BF92CF92DF9225
:1018D000EF92FF920F931F93DF93CF9300D000D02E
:1018E000CDB7DEB78C017B014A01BE016F5F7F4F30
:1018F0000E943C0C882349F1A980BA80CB80DC800F
:10190000A60195012F5F3F4F4F4F5F4FF701848135
:1019100090E0A0E0B0E082179307A407B50750F469
:10192000F80186819781009781F484EE91E0978396
:1019300086830BC0C801B401A5010E94FC0AE9819D
:10194000FA81E80DF91D108201C080E00F900F9020
:101950000F900F90CF91DF911F910F91FF90EF901B
:10196000DF90CF90BF90AF909F908F900895EF92AF
:10197000FF920F931F93DF93CF9300D000D000D03E
:10198000CDB7DEB78C017B01BE016F5F7F4F4D830A
:101990005E830E943C0C4D815E818823E9F0BA0190
:1019A00049815A81FB0151834083F701848190E092
:1019B00002978417950750F4F80186819781009764
:1019C00059F484EF91E09783868306C06E5F7F4F62
:1019D000C8010E94FC0A01C080E026960FB6F89468
:1019E000DEBF0FBECDBFCF91DF911F910F91FF9052
:1019F000EF900895CF92DF92EF92FF920F931F9393
:101A0000DF93CF93CDB7DEB728970FB6F894DEBF3C
:101A10000FBECDBF7C016B018A01BE016F5F7F4F9E
:101A20000E94990BF6019481923071F0933018F472
:101A3000913061F505C0943069F0983039F514C0E3
:101A40009981F80190832CC029813A81F801318372
:101A5000208326C029813A814B815C81F801208353
:101A60003183428353831CC09981F80190839A810A
:101A700091839B8192839C8193839D8194839E819A
:101A800095839F819683988597830AC0F701868105
:101A90009781009721F483E092E09783868380E02A
:101AA00028960FB6F894DEBF0FBECDBFCF91DF9161
:101AB0001F910F91FF90EF90DF90CF900895EF92DC
:101AC000FF920F931F93DF93CF930F92CDB7DEB7A3
:101AD0007C018E010F5F1F4FC701B80141E050E04C
:101AE0000E94FC0A882329F0898187FDF5CF81E0D7
:101AF00001C080E00F90CF91DF911F910F91FF9077
:101B0000EF9008950F931F93DF93CF9300D000D0F1
:101B1000CDB7DEB78C01BE016F5F7F4F0E943C0CDA
:101B2000882341F049815A81C80160E070E00E9439
:101B3000FC0A01C080E00F900F900F900F90CF91A2
:101B4000DF911F910F910895AF92BF92CF92DF92D4
:101B5000EF92FF920F931F93DF93CF9300D000D0AB
:101B6000CDB7DEB76C015B017A018901F901108202
:101B7000FB0111821082FA011082118212821382FB
:101B8000BE016F5F7F4F0E943C0C882331F4F60149
:101B900084819581009711F508C089819A81AB8174
:101BA000BC810097A105B10521F481E0F801808393
:101BB00015C09C01AD0163E0569547953795279573
:101BC0006A95D1F7F701208331834283538387706D
:101BD0009070F5019183808381E001C080E00F90D7
:101BE0000F900F900F90CF91DF911F910F91FF9069
:101BF000EF90DF90CF90BF90AF9008956130710566
:101C000069F06130710538F06230710561F065305E
:101C1000710599F40BC00E945F0D089560E070E0BB
:101C200048E050E007C00E94820D089560E070E037
:101C300044E050E00E94FC0A0895FC0126813781AF
:101C40002115310531F425E132E03783268380E028
:101C5000089580E00895EF92FF920F931F93DF9312
:101C6000CF9300D000D0CDB7DEB78C017B01BE0191
:101C70006F5F7F4F0E943C0C882361F1D701F80110
:101C800088E001900D928150E1F789819A81AB81C2
:101C9000BC81F7012481358140E050E028173907E5
:101CA0004A075B0750F4F80186819781009791F409
:101CB00087E292E0978386830DC09C01F7019583AC
:101CC0008483F80184819581821B930B958384839F
:101CD00081E001C080E00F900F900F900F90CF91A6
:101CE000DF911F910F91FF90EF9008952F923F92F7
:101CF0004F925F926F927F928F929F92AF92BF921C
:101D0000CF92DF92EF92FF920F931F93DF93CF93C7
:101D1000CDB7DEB7AF970FB6F894DEBF0FBECDBF1D
:101D20008C011A01FE01389688E0DF011D928A9528
:101D3000E9F77DA36CA37BA36AA31FA21EA219A629
:101D400018A6DB0112968C9112979A01280F311D6B
:101D50003DA72CA713968C911397992787FD9095F3
:101D6000820F931F9FA78EA75BA74AA790E1692EBA
:101D7000712C6C0E7D1E88E1482E512C4C0E5D1E80
:101D80004B018EC1C801BE016E5F7F4FAE014C5F3B
:101D90005F4F9E012F5F3F4F0E94A40D882331F4B7
:101DA00064018981882309F084C1D9C1CC80DD8098
:101DB000EE80FF80AEA0BFA06CA17DA1FB01808161
:101DC00090E0A0E0B0E08C159D05AE05BF0551F098
:101DD000CE0182960E940B0A8EA19FA18A159B05B7
:101DE00059F7D6C1DB0111964C91119750E0CA0109
:101DF000807F90700097F1F428A539A52034310533
:101E0000CCF4F901B3E0F595E795BA95E1F7A8E0D0
:101E1000B0E0AC0FBD1FEA0FFB1FD901A770B07077
:101E200021E030E002C0220F331FAA95E2F7A08123
:101E3000A22BA0832A813B814F705070FA01EE0FD4
:101E4000FF1FE151FC4FC080D1808031910571F0BE
:101E5000813191051CF4009769F014C1803291051D
:101E600061F08033910509F00DC17EC0EEA5FFA59C
:101E7000B1E0B0834CA55DA573C02230310509F0F7
:101E800046C0443051050CF042C0EEA4FFA4C80186
:101E9000B3010E942B0E8823E9F460C1FB01248169
:101EA00030E0829FF001839FF00D929FF00D11248E
:101EB0004CA55DA54E0F5F1FC301F6010995882350
:101EC00009F44CC1D7018D919C91119701961196FF
:101ED0009C938E932C893D892115310569F0F7017A
:101EE000808191816CA17DA1DB0115964C911597A4
:101EF00050E08417950790F281E02115310509F033
:101F000080E02A893B89F80133832283C6C0EEA58D
:101F1000FFA5ECA4FDA4DB0114962C9114978081FD
:101F2000918115964C91159750E08417950748F0CC
:101F3000F80186819781009709F010C18FE392E044
:101F4000A9C0AC014F5F5F4F5183408330E0829F57
:101F5000A001839F500D929F500D11244E0D5F1DC7
:101F6000C801F601099599C0CCA4DDA4D6018D91D4
:101F70009C911197009719F4C801B9010CC1223046
:101F8000310541F5C801B3010E942B0E8823C1F42D
:101F9000E5C06CA17DA1F601428153810190F081E1
:101FA000E02DC3010995882359F4D80116968D9127
:101FB0009C911797009709F0D1C08EE492E0C2C0BF
:101FC0008C899D89009729F78A899B89F8019383D9
:101FD000828366C02130310509F12130310520F0BE
:101FE0002530310579F524C05201EE24FF240894F0
:101FF000E11CF11CFBE0EF16F10409F4AFC0C801CD
:10200000B50141E050E00E94FC0A882309F4A6C013
:10201000D5018D915D0187FDEACF20C0C801B201D5
:1020200048E050E00E94FC0AB8E0EB2EF12C13C00F
:10203000C801B20144E050E00E94FC0AA4E0EA2E8C
:10204000F12C09C0F80186819781009709F086C0BC
:1020500085E192E01FC0882309F480C087E69AE0FA
:10206000998B888B5B8A4A8AFD8AEC8A6CA17DA158
:10207000D60112964D915C911397ED91FC91C3019D
:1020800009950BC0F80186819781009709F066C019
:102090008EE592E09783868361C0882309F45EC051
:1020A000D80114968D919C911597009709F06ACEEE
:1020B0006401DDA2CCA2DBA2CAA21FA21EA219A6A5
:1020C00018A6F60182819101280F311D3DA72CA78A
:1020D0008381992787FD9095820F931F9FA78EA7D5
:1020E0003BA62AA6F8E0EF2EF12CEC0EFD1EE2E254
:1020F000CE2ED12CCC0EDD1EECA1FDA18181807FE6
:1021000031F528A539A5203431050CF5F90173E026
:10211000F595E7957A95E1F7EE0DFF1D808190E04A
:102120002770307002C0959587952A95E2F780FD5B
:102130000EC0D80116968D919C911797009771F457
:1021400081E792E017969C938E93169707C0C6017D
:102150000E940B0A882381F681E001C080E0AF96DF
:102160000FB6F894DEBF0FBECDBFCF91DF911F91A8
:102170000F91FF90EF90DF90CF90BF90AF909F9026
:102180008F907F906F905F904F903F902F90089529
:102190006A817B81C8010E94FE0D7FCFEF92FF9282
:1021A0000F931F93CF93DF937C018B01EA01CB0147
:1021B000BA010E948A0AC701B801AE010E94760ED8
:1021C000DF91CF911F910F91FF90EF900895AF9203
:1021D000BF92CF92DF92EF92FF920F931F93DF9304
:1021E000CF93CDB7DEB72A970FB6F894DEBF0FBEF8
:1021F000CDBF7C018B01FB01A680B7806E010894E6
:10220000C11CD11CB60149875A870E942B0E4985F3
:102210005A85882319F1F80186819781009751F436
:10222000F701868197810097C9F488E892E0978347
:10223000868314C0F8018181807F803229F4C60131
:10224000B5010E94CE1004C0C601B5010E94760EF1
:102250002B813C81F7013383228301C080E02A96E1
:102260000FB6F894DEBF0FBECDBFCF91DF911F91A7
:102270000F91FF90EF90DF90CF90BF90AF900895B7
:102280006F927F928F929F92AF92BF92CF92DF9286
:10229000EF92FF920F93DF93CF93CDB7DEB72897DE
:1022A0000FB6F894DEBF0FBECDBF7B01BE016F5FDE
:1022B0007F4F0E94990B8823B9F169807A808B80C7
:1022C0009C80AD80BE80CF80D884C3018170907027
:1022D0000097C1F09301A401B501C60101E00E947D
:1022E0008D002095F70120833095318340954283FE
:1022F000509553836095648370957583809586832C
:1023000090950FC09301A401B501C60101E00E94A0
:102310008D00F70120833183428353836483758367
:102320008683978381E001C080E028960FB6F894F9
:10233000DEBF0FBECDBFCF91DF910F91FF90EF9029
:10234000DF90CF90BF90AF909F908F907F906F90D5
:102350000895CF92DF92EF92FF920F931F93DF9336
:10236000CF93CDB7DEB728970FB6F894DEBF0FBE78
:10237000CDBF7C016B018A01BE016F5F7F4F0E9460
:102380004011F6019481943019F09830E9F40AC0B4
:1023900029813A814B815C81F8012083318342831A
:1023A00053831CC09981F80190839A8191839B810A
:1023B00092839C8193839D8194839E8195839F8149
:1023C0009683988597830AC0F70186819781009745
:1023D00021F483E092E09783868380E028960FB60D
:1023E000F894DEBF0FBECDBFCF91DF911F910F914B
:1023F000FF90EF90DF90CF90089544E050E00E946E
:10240000FC0A0895BA010E94FD11089548E050E0C9
:102410000E94FC0A0895BA010E94061208952091B4
:10242000330530E080913205281B3109C901089538
:102430008091320590913305891750F4E82FF0E030
:10244000EE5EFA4F208130E08F5F8093320502C04C
:102450002FEF3FEFC9010895E091320580913305D8
:10246000E81730F4F0E0EE5EFA4F208130E002C071
:102470002FEF3FEFC90108950895CF93DF939C019B
:10248000CB01E0915905F0915A053097D9F0509160
:102490003205409133055417A8F060E009C0DA0115
:1024A000AE5EBA4F420F531FEA0148814C936F5FF3
:1024B000462F50E04817590794F310923205809345
:1024C00033050995DF91CF910895E0915705F0917B
:1024D0005805309729F0109254051092550509952A
:1024E0000895CF92DF92EF92FF920F931F93CF93B5
:1024F000DF936C01CB01EA01209156052223B1F054
:10250000E62EF92E00E010E00DC0D7016D917D019F
:10251000D601ED91FC910190F081E02DC601099565
:102520000F5F1F4F0C171D0780F303C0642F0E941D
:102530003313CE01DF91CF911F910F91FF90EF9058
:10254000DF90CF900895DF93CF930F92CDB7DEB792
:102550006983209156052223D1F020915505203220
:1025600040F021E030E0FC013383228320E030E0C2
:1025700015C080915405E82FF0E0EC5CFA4F99818A
:1025800090838F5F809354058093550505C0CE01DD
:10259000019661E00E94331321E030E0C9010F9001
:1025A000CF91DF9108951092320510923305109269
:1025B0005405109255050E9416130895CF93DF938A
:1025C000EC01862F0E942F1385E692E10E945213A0
:1025D0008DE392E10E944D13CE010E94D312DF9150
:1025E000CF9108950E94DE12089570935A0560936A
:1025F00059050895709358056093570508951092F2
:102600005E0510925D0588EE93E0A0E0B0E0809357
:102610005F0590936005A0936105B093620581E02A
:1026200094E090935C0580935B05089510928B0570
:1026300082E161E00E942B1683E161E00E942B168B
:10264000E9EBF0E080818E7F808380818D7F8083C5
:1026500088E48093B80085E48093BC000895880FD7
:102660008093BA0008956132A0F420918B05243044
:1026700091F46093B005DC01E3EBF5E070E06E0FE0
:102680007F1F02C08D918193E617F707D9F780E08D
:10269000089581E0089582E008959093AE058093B7
:1026A000AD0508959093B2058093B10508958823F0
:1026B00011F085EC01C085E88093BC00089585ED9C
:1026C0008093BC008091BC0084FDFCCF10928B05F0
:1026D000089585EC8093BC0010928B0508951F929D
:1026E0000F920FB60F9211242F933F934F935F9346
:1026F0006F937F938F939F93AF93BF93EF93FF93CA
:102700008091B90090E0887F90708036910509F43F
:10271000C2C081369105E4F58832910509F47EC086
:1027200089329105C4F48031910509F472C0813178
:10273000910544F4009709F413C18830910509F01C
:1027400013C167C08831910509F468C080329105D2
:1027500009F00AC178C08034910509F48AC0813437
:1027600091054CF48033910509F46FC088339105CD
:1027700009F0FAC06EC08035910509F46EC0883545
:10278000910509F47BC08834910509F0EDC0EAC0D9
:102790008839910509F4DAC089399105ECF4883754
:1027A000910509F478C0893791054CF48836910574
:1027B00009F471C08037910509F0D6C06CC0883823
:1027C000910509F4C3C08039910509F46AC08038C5
:1027D000910509F0C9C065C0803B910509F48EC020
:1027E000813B91054CF4803A910509F46CC0883A1C
:1027F000910509F0B9C082C0803C910509F4AAC0D6
:10280000883C910509F4A6C0883B910509F0ACC04D
:102810008AC0809167058093BB0013C090916805C2
:1028200080916905981708F09DC080916805E82F90
:10283000F0E0E659FA4F90819093BB008F5F809350
:10284000680581E084C080E201C080E380938A054E
:1028500089C088E380938A054EC080916805909175
:10286000BB00E82FF0E0E659FA4F90838F5F80932A
:102870006805909168058091690565C0809168053B
:102880009091BB00E82FF0E0E659FA4F90838F5FFC
:102890008093680567C083E080938B0510928C0558
:1028A000D0CF80918C05803208F050C080918C058B
:1028B0009091BB00E82FF0E0E357FA4F90838F5FD1
:1028C00080938C05BECF80918C05803230F4E091EE
:1028D0008C05F0E0E357FA4F10820E945F1360917D
:1028E0008C05E091AD05F091AE058DE895E070E0C6
:1028F000099510928C050E94691336C084E080937C
:102900008B051092AF051092B005E091B105F091E2
:10291000B20509958091B005882329F481E0809360
:10292000B0051092B3058091AF05E82FF0E0ED54AB
:10293000FA4F90819093BB008F5F8093AF05909189
:10294000AF058091B005981708F47BCF80E00E9416
:1029500057130AC081E00E94571310928B0504C0E0
:1029600010928A050E945F13FF91EF91BF91AF9182
:102970009F918F917F916F915F914F913F912F9197
:102980000F900FBE0F901F9018951F920F920FB6C9
:102990000F9211242F933F938F939F93AF93BF93E5
:1029A0008091D7059091D805A091D905B091DA050D
:1029B0003091DB050196A11DB11D232F2D5F2D3711
:1029C00020F02D570196A11DB11D2093DB058093AA
:1029D000D7059093D805A093D905B093DA058091D7
:1029E000D3059091D405A091D505B091D605019657
:1029F000A11DB11D8093D3059093D405A093D50557
:102A0000B093D605BF91AF919F918F913F912F9138
:102A10000F900FBE0F901F9018958FB7F8942091CC
:102A2000D7053091D8054091D9055091DA058FBF6F
:102A3000B901CA010895019739F0880F991F880FCD
:102A4000991F02970197F1F70895789484B58260F1
:102A500084BD84B5816084BD85B5826085BD85B542
:102A6000816085BDEEE6F0E0808181608083E1E8F1
:102A7000F0E0108280818260808380818160808329
:102A8000E0E8F0E0808181608083E1EBF0E080812C
:102A900084608083E0EBF0E0808181608083EAE7FE
:102AA000F0E0808184608083808182608083808187
:102AB000816080838081806880831092C100089546
:102AC0008230E8F4E82FF0E0EE0FFF1FE452FA4FF7
:102AD00071836083813041F0809169008C7F842B09
:102AE00080936900E89A089580916900440F551F0A
:102AF000440F551F837F842B80936900E99A0895C2
:102B00001F920F920FB60F9211242F933F934F9362
:102B10005F936F937F938F939F93AF93BF93EF9345
:102B2000FF938091DC059091DD05009729F0E091FD
:102B3000DC05F091DD050995FF91EF91BF91AF9113
:102B40009F918F917F916F915F914F913F912F91C5
:102B50000F900FBE0F901F9018951F920F920FB6F7
:102B60000F9211242F933F934F935F936F937F9313
:102B70008F939F93AF93BF93EF93FF938091DE0565
:102B80009091DF05009729F0E091DE05F091DF05D7
:102B90000995FF91EF91BF91AF919F918F917F9197
:102BA0006F915F914F913F912F910F900FBE0F90BA
:102BB0001F901895833071F0843028F48130A1F093
:102BC000823021F514C08630B1F08730D1F08430E6
:102BD000E9F404C0809180008F7703C08091800069
:102BE0008F7D80938000089584B58F7702C084B56F
:102BF0008F7D84BD08958091B0008F778093B00061
:102C000008958091B0008F7D8093B000089590E08A
:102C1000FC01E656FF4F2491FC01EA57FF4FE49177
:102C2000EE23C1F0F0E0EE0FFF1FE859FF4F859152
:102C30009491DC01662341F49FB7F8948C91209520
:102C400082238C939FBF08959FB7F8948C91822B19
:102C50008C939FBF08950F931F93DF93CF930F9291
:102C6000CDB7DEB7282F30E0F901E255FF4F849150
:102C7000F901E656FF4F14912A573F4FF90104918D
:102C80000023D9F0882321F069830E94DA15698135
:102C9000E02FF0E0EE0FFF1FEE58FF4F859194916B
:102CA000DC019FB7F894662321F48C911095812361
:102CB00002C08C91812B8C939FBF0F90CF91DF919D
:102CC0001F910F910895CF92DF92EF92FF920F9391
:102CD0001F93CF93DF936C017B018A01C0E0D0E0AA
:102CE0000FC0D7016D917D01D601ED91FC9101904E
:102CF000F081E02DC6010995C80FD91F0150104081
:102D00000115110571F7CE01DF91CF911F910F9140
:102D1000FF90EF90DF90CF900895DB010D900020A1
:102D2000E9F7AD0141505040461B570BDC01ED91D6
:102D3000FC910280F381E02D099508950E948D1683
:102D40000895DC01ED91FC910190F081E02D099551
:102D500008950F931F93CF93DF93EC016DE00E94D2
:102D6000A1168C01CE016AE00E94A116080F191F5E
:102D7000C801DF91CF911F910F9108950F931F9379
:102D8000CF93DF93EC010E948D168C01CE010E943F
:102D9000A916080F191FC801DF91CF911F910F913C
:102DA0000895CF93DF930E9425150E948103C1EC03
:102DB000D7E10E9482052097E1F30E94C117F9CF65
:102DC000FC0184859585FC01E05CFF4F2081318109
:102DD0008E5B9F4FFC0180819181281B390B2F73E3
:102DE0003070C9010895FC0184859585FC01E05C83
:102DF000FF4F40815181FC01EE5BFF4F208131810B
:102E00004217530741F00190F081E02DE80FF91FC0
:102E1000208130E002C02FEF3FEFC9010895FC018F
:102E200084859585FC01E05CFF4F40815181FC0168
:102E3000EE5BFF4F208131814217530771F0A08173
:102E4000B181A80FB91F2C918081918101968F7358
:102E500090709183808330E002C02FEF3FEFC90173
:102E60000895DC011E968D919C911F97FC01E05CFA
:102E7000FF4F8E5B9F4F40815181DC012D913C9132
:102E8000119742175307B9F708951F93FC01162FA6
:102E900026853785D901A05CBF4F8D919C91019605
:102EA00060E470E00E944E18D901AE5BBF4F4D91B7
:102EB0005C91119784179507D1F3D901A05CBF4F9E
:102EC0000D90BC91A02DA20FB31F1C93A685B785B2
:102ED000A05CBF4F11969C938E93A689B7892C91C5
:102EE00081E090E0058C02C0880F991F0A94E2F7F8
:102EF000282B2C9381E090E01F910895FB01E05C6A
:102F0000FF4F208131812F5F3F4F2F733070DB01E6
:102F1000AE5BBF4F4D915C9111972417350739F087
:102F2000A081B181A60FB71F8C93318320830895B0
:102F300008951F920F920FB60F9211242F933F9373
:102F40004F935F936F937F938F939F93AF93BF93B1
:102F5000EF93FF938091C60060EE75E00E947E17AC
:102F6000FF91EF91BF91AF919F918F917F916F9161
:102F70005F914F913F912F910F900FBE0F901F9037
:102F8000189588E696E00E94E016009711F00E94DE
:102F9000981708951F920F920FB60F9211242F9336
:102FA0003F935F936F937F938F939F93AF93BF9361
:102FB000EF93FF9320916406309165068091660639
:102FC000909167062817390731F48091C1008F7DF1
:102FD0008093C10016C0E0916606F0916706EC5D33
:102FE000F94F20818091660690916706019660E412
:102FF00070E00E944E1890936706809366062093B7
:10300000C600FF91EF91BF91AF919F918F917F91FA
:103010006F915F913F912F910F900FBE0F901F9076
:10302000189510926B0610926A0688EE93E0A0E065
:10303000B0E080936C0690936D06A0936E06B093FB
:103040006F06EAE6F6E081E194E09293829380EEE7
:1030500095E09587848784E296E09787868785EC5C
:1030600090E0918B808B84EC90E0938B828B80EC52
:1030700090E0958B848B81EC90E0978B868B86EC2F
:1030800090E0918F808F84E0828F83E0838F87E050
:10309000848F85E0858F81E0868F089597FB092EC8
:1030A00007260AD077FD04D00CD006D000201AF4F1
:1030B000709561957F4F0895F6F7909581959F4F94
:1030C0000895AA1BBB1B51E107C0AA1FBB1FA6176F
:1030D000B70710F0A61BB70B881F991F5A95A9F7C1
:1030E00080959095BC01CD010895EE0FFF1F0590CE
:1030F000F491E02D0994FB01DC0102C001900D92D6
:1031000041505040D8F70895DC0101C06D93415003
:0A3110005040E0F70895F894FFCF57
:10311A00526571756573744576656E743A20456EAD
:10312A00636F6465204552524F5200526563656968
:10313A007665204576656E74204552524F523A2084
:10314A005265636569766564204D4158206E756DD8
:10315A00626572206F662062797465732E2020443E
:10316A00726F7020636F6D6D616E64004572726F6D
:10317A00723A20526563656976656420456D70749C
:10318A0079204C454420436F6D6D616E6420005276
:10319A006563656976656420556E737570706F72C4
:1031AA0074656420436F6D6D616E64004552524FC1
:1031BA00523A20756E7061636B206572726F72206D
:1031CA00696E206D61696E206C6F6F7000656E6448
:1031DA002D6F662D73747265616D00696F2065725B
:1031EA00726F7200766172696E74206F76657266AC
:1031FA006C6F7700737472696E67206F766572669A
:10320A006C6F77006279746573206F766572666C8D
:10321A006F7700696E76616C696420646174615FBE
:10322A0073697A6500696E76616C69642077697280
:10323A00655F7479706500706172656E742073746D
:10324A007265616D20746F6F2073686F72740061AC
:10325A0072726179206F766572666C6F770063614E
:10326A006C6C6261636B206661696C656400696E8F
:10327A0076616C6964206669656C6420747970652E
:10328A00006D697373696E6720726571756972651D
:10329A0064206669656C6400696E76616C69642095
:1032AA006669656C642064657363726970746F72B1
:1032BA00000100000002000000021601FF1300F1E5
:1032CA0002031601FF23004903041601FF0400C983
:1032DA00030C1601FF0A00D10200000000000000E2
:1032EA0000010000000400000002000000020000CB
:1032FA0000030000000400000000000000000000BD
:10330A00000100000002000000021601FF0900117E
:10331A0003031601FF06003103000000000000004D
:10332A00000100000002000000021001FF0100007D
:10333A0000031001FF04000000000000000000006C
:10334A00000100000002000000020000000400006A
:10335A000000000000000000000100000002000060
:10336A0000021601FF04009903031601FF0C00A9CD
:10337A0003041601FF0E00710300000000000000A4
:10338A00000100000002000000020000000400002A
:10339A000003000000040000000400000004000014
:1033AA00000000000000000000010000000400000E
:1033BA0000000000000000000001000000040000FE
:1033CA0000020000000400000003000000040000E6
:1033DA0000000000000000000001000000020000E0
:1033EA0000020000000200000000000000000000CF
:1033FA000093060F074707500765095909000AFA9B
:10340A000CA91102120B12B70C620CE71000000093
:10341A0000A31271120F1218122C123C1200000093
:0E342A000045176316E0160F17F31631170052
:00000001FF
